{
	"data": {
		"bytecode": {
			"linkReferences": {},
			"object": "60806040523480156200001157600080fd5b506040516200404a3803806200404a8339818101604052810190620000379190620001be565b62000048336200009060201b60201c565b80600160006101000a81548173ffffffffffffffffffffffffffffffffffffffff021916908373ffffffffffffffffffffffffffffffffffffffff16021790555050620001f0565b60008060009054906101000a900473ffffffffffffffffffffffffffffffffffffffff169050816000806101000a81548173ffffffffffffffffffffffffffffffffffffffff021916908373ffffffffffffffffffffffffffffffffffffffff1602179055508173ffffffffffffffffffffffffffffffffffffffff168173ffffffffffffffffffffffffffffffffffffffff167f8be0079c531659141344cd1fd0a4f28419497f9722a3daafe3b4186f6b6457e060405160405180910390a35050565b600080fd5b600073ffffffffffffffffffffffffffffffffffffffff82169050919050565b6000620001868262000159565b9050919050565b620001988162000179565b8114620001a457600080fd5b50565b600081519050620001b8816200018d565b92915050565b600060208284031215620001d757620001d662000154565b5b6000620001e784828501620001a7565b91505092915050565b613e4a80620002006000396000f3fe6080604052600436106100e85760003560e01c80637cd2bffc1161008a5780639d4323be116100595780639d4323be146102a1578063a1a227fa146102ca578063c81739cd146102f5578063f2fde38b14610311576100e8565b80637cd2bffc146101fa57806386dfc3c81461022a5780638da5cb5b146102465780639c649fdf14610271576100e8565b8063547cad12116100c6578063547cad12146101695780635ab7afc6146101925780637767b8d7146101c25780637bcf9fe1146101de576100e8565b8063063ce4e5146100ed5780630bcb49821461011d5780633c8790d71461014d575b600080fd5b61010760048036038101906101029190612316565b61033a565b6040516101149190612434565b60405180910390f35b61013760048036038101906101329190612485565b610431565b6040516101449190612434565b60405180910390f35b610167600480360381019061016291906125b9565b610550565b005b34801561017557600080fd5b50610190600480360381019061018b9190612660565b61064e565b005b6101ac60048036038101906101a7919061268d565b610760565b6040516101b99190612434565b60405180910390f35b6101dc60048036038101906101d7919061279d565b6107fd565b005b6101f860048036038101906101f3919061285f565b6108d2565b005b610214600480360381019061020f9190612a28565b61090e565b6040516102219190612434565b60405180910390f35b610244600480360381019061023f9190612ad1565b610a37565b005b34801561025257600080fd5b5061025b610ad7565b6040516102689190612b75565b60405180910390f35b61028b60048036038101906102869190612b90565b610b00565b6040516102989190612434565b60405180910390f35b3480156102ad57600080fd5b506102c860048036038101906102c39190612c18565b610c88565b005b3480156102d657600080fd5b506102df610d2c565b6040516102ec9190612b75565b60405180910390f35b61030f600480360381019061030a9190612c58565b610d52565b005b34801561031d57600080fd5b5061033860048036038101906103339190612660565b610df0565b005b6000600160009054906101000a900473ffffffffffffffffffffffffffffffffffffffff1673ffffffffffffffffffffffffffffffffffffffff163373ffffffffffffffffffffffffffffffffffffffff16146103cc576040517f08c379a00000000000000000000000000000000000000000000000000000000081526004016103c390612d29565b60405180910390fd5b60008085858101906103de9190612d49565b915091507f93bff870467428ead6659a7a554cb75cc2ca56d416714397a31d7dd90fdf3b9c8989898585604051610419959493929190612e69565b60405180910390a16001925050509695505050505050565b6000600160009054906101000a900473ffffffffffffffffffffffffffffffffffffffff1673ffffffffffffffffffffffffffffffffffffffff163373ffffffffffffffffffffffffffffffffffffffff16146104c3576040517f08c379a00000000000000000000000000000000000000000000000000000000081526004016104ba90612d29565b60405180910390fd5b60008085858101906104d59190612efc565b9150915061050482888a73ffffffffffffffffffffffffffffffffffffffff16610ee19092919063ffffffff16565b7f28b3e4c963e8ed6cdcdd38aa916a725939823a99bbfa73fe91297cbd65076ebd828989846040516105399493929190612f67565b60405180910390a160019250505095945050505050565b60005b84849050811015610645576000600160149054906101000a900467ffffffffffffffff1686868481811061058a57610589612fb3565b5b905060200281019061059c9190612ff1565b6040516020016105ae93929190613054565b60405160208183030381529060405290506001601481819054906101000a900467ffffffffffffffff16809291906105e5906130b5565b91906101000a81548167ffffffffffffffff021916908367ffffffffffffffff1602179055505061063188888387878781811061062557610624612fb3565b5b90506020020135610f67565b50808061063d906130e6565b915050610553565b50505050505050565b3373ffffffffffffffffffffffffffffffffffffffff1661066d610ad7565b73ffffffffffffffffffffffffffffffffffffffff16146106c3576040517f08c379a00000000000000000000000000000000000000000000000000000000081526004016106ba9061317b565b60405180910390fd5b80600160006101000a81548173ffffffffffffffffffffffffffffffffffffffff021916908373ffffffffffffffffffffffffffffffffffffffff1602179055507f3f8223bcd8b3b875473e9f9e14e1ad075451a2b5ffd31591655da9a01516bf5e600160009054906101000a900473ffffffffffffffffffffffffffffffffffffffff166040516107559190612b75565b60405180910390a150565b6000600160009054906101000a900473ffffffffffffffffffffffffffffffffffffffff1673ffffffffffffffffffffffffffffffffffffffff163373ffffffffffffffffffffffffffffffffffffffff16146107f2576040517f08c379a00000000000000000000000000000000000000000000000000000000081526004016107e990612d29565b60405180910390fd5b979650505050505050565b61082a3330888a73ffffffffffffffffffffffffffffffffffffffff16610f9c909392919063ffffffff16565b60003384846040516020016108419392919061319b565b604051602081830303815290604052905061087989898989600160149054906101000a900467ffffffffffffffff168a878934611025565b506001601481819054906101000a900467ffffffffffffffff16809291906108a0906130b5565b91906101000a81548167ffffffffffffffff021916908367ffffffffffffffff16021790555050505050505050505050565b60008184846040516020016108e993929190613054565b604051602081830303815290604052905061090686868334610f67565b505050505050565b6000600160009054906101000a900473ffffffffffffffffffffffffffffffffffffffff1673ffffffffffffffffffffffffffffffffffffffff163373ffffffffffffffffffffffffffffffffffffffff16146109a0576040517f08c379a000000000000000000000000000000000000000000000000000000000815260040161099790612d29565b60405180910390fd5b600080848060200190518101906109b79190613252565b915091506109e682888a73ffffffffffffffffffffffffffffffffffffffff16610ee19092919063ffffffff16565b7f853d38177348cfc87290e96c941a5fb96dc3da8a07c31163ddffe4da6661b76f88888b898686604051610a1f969594939291906132ae565b60405180910390a16001925050509695505050505050565b6000600160149054906101000a900467ffffffffffffffff168383604051602001610a6493929190613054565b60405160208183030381529060405290506001601481819054906101000a900467ffffffffffffffff1680929190610a9b906130b5565b91906101000a81548167ffffffffffffffff021916908367ffffffffffffffff16021790555050610acf868686843461106a565b505050505050565b60008060009054906101000a900473ffffffffffffffffffffffffffffffffffffffff16905090565b6000600160009054906101000a900473ffffffffffffffffffffffffffffffffffffffff1673ffffffffffffffffffffffffffffffffffffffff163373ffffffffffffffffffffffffffffffffffffffff1614610b92576040517f08c379a0000000000000000000000000000000000000000000000000000000008152600401610b8990612d29565b60405180910390fd5b6000808585810190610ba49190612d49565b91509150655af3107a40018267ffffffffffffffff161415610bfb576040517f08c379a0000000000000000000000000000000000000000000000000000000008152600401610bf290613362565b60405180910390fd5b655af3107a40028267ffffffffffffffff161415610c1857600080fd5b655af3107a40038267ffffffffffffffff161415610c3b57600292505050610c7f565b7f2bc20c63cdcc1b0e6aeb64fcaaf7ea3c8b999228a4a9ed2a2df1d2e17dd1252088888484604051610c709493929190613382565b60405180910390a16001925050505b95945050505050565b3373ffffffffffffffffffffffffffffffffffffffff16610ca7610ad7565b73ffffffffffffffffffffffffffffffffffffffff1614610cfd576040517f08c379a0000000000000000000000000000000000000000000000000000000008152600401610cf49061317b565b60405180910390fd5b610d2833828473ffffffffffffffffffffffffffffffffffffffff16610ee19092919063ffffffff16565b5050565b600160009054906101000a900473ffffffffffffffffffffffffffffffffffffffff1681565b6000600160149054906101000a900467ffffffffffffffff168383604051602001610d7f93929190613054565b60405160208183030381529060405290506001601481819054906101000a900467ffffffffffffffff1680929190610db6906130b5565b91906101000a81548167ffffffffffffffff021916908367ffffffffffffffff16021790555050610de985858334610f67565b5050505050565b3373ffffffffffffffffffffffffffffffffffffffff16610e0f610ad7565b73ffffffffffffffffffffffffffffffffffffffff1614610e65576040517f08c379a0000000000000000000000000000000000000000000000000000000008152600401610e5c9061317b565b60405180910390fd5b600073ffffffffffffffffffffffffffffffffffffffff168173ffffffffffffffffffffffffffffffffffffffff161415610ed5576040517f08c379a0000000000000000000000000000000000000000000000000000000008152600401610ecc90613440565b60405180910390fd5b610ede816110a1565b50565b610f628363a9059cbb60e01b8484604051602401610f00929190613460565b604051602081830303815290604052907bffffffffffffffffffffffffffffffffffffffffffffffffffffffff19166020820180517bffffffffffffffffffffffffffffffffffffffffffffffffffffffff8381831617835250505050611165565b505050565b610f96848484600160009054906101000a900473ffffffffffffffffffffffffffffffffffffffff168561122c565b50505050565b61101f846323b872dd60e01b858585604051602401610fbd93929190613489565b604051602081830303815290604052907bffffffffffffffffffffffffffffffffffffffffffffffffffffffff19166020820180517bffffffffffffffffffffffffffffffffffffffffffffffffffffffff8381831617835250505050611165565b50505050565b600061105b8a8a8a8a8a8a8a8a600160009054906101000a900473ffffffffffffffffffffffffffffffffffffffff168b6112a3565b90509998505050505050505050565b61109a85858585600160009054906101000a900473ffffffffffffffffffffffffffffffffffffffff168661134e565b5050505050565b60008060009054906101000a900473ffffffffffffffffffffffffffffffffffffffff169050816000806101000a81548173ffffffffffffffffffffffffffffffffffffffff021916908373ffffffffffffffffffffffffffffffffffffffff1602179055508173ffffffffffffffffffffffffffffffffffffffff168173ffffffffffffffffffffffffffffffffffffffff167f8be0079c531659141344cd1fd0a4f28419497f9722a3daafe3b4186f6b6457e060405160405180910390a35050565b60006111c7826040518060400160405280602081526020017f5361666545524332303a206c6f772d6c6576656c2063616c6c206661696c65648152508573ffffffffffffffffffffffffffffffffffffffff166113c89092919063ffffffff16565b905060008151111561122757808060200190518101906111e791906134f8565b611226576040517f08c379a000000000000000000000000000000000000000000000000000000000815260040161121d90613597565b60405180910390fd5b5b505050565b8173ffffffffffffffffffffffffffffffffffffffff16639f3ce55a828787876040518563ffffffff1660e01b815260040161126a939291906135f2565b6000604051808303818588803b15801561128357600080fd5b505af1158015611297573d6000803e3d6000fd5b50505050505050505050565b60008060006112b88d8d8d8d8d8d8c8c6113e0565b9150915060008751111561133b578473ffffffffffffffffffffffffffffffffffffffff16634289fbb3858f8d85878d6040518763ffffffff1660e01b8152600401611308959493929190613649565b6000604051808303818588803b15801561132157600080fd5b505af1158015611335573d6000803e3d6000fd5b50505050505b81925050509a9950505050505050505050565b8173ffffffffffffffffffffffffffffffffffffffff16637d7a101d82888888886040518663ffffffff1660e01b815260040161138e94939291906136a3565b6000604051808303818588803b1580156113a757600080fd5b505af11580156113bb573d6000803e3d6000fd5b5050505050505050505050565b60606113d78484600085611d25565b90509392505050565b600080600160068111156113f7576113f66123bd565b5b84600681111561140a576114096123bd565b5b1415611544578273ffffffffffffffffffffffffffffffffffffffff166382980dc46040518163ffffffff1660e01b815260040160206040518083038186803b15801561145657600080fd5b505afa15801561146a573d6000803e3d6000fd5b505050506040513d601f19601f8201168201806040525081019061148e91906136ff565b90506114bb81898b73ffffffffffffffffffffffffffffffffffffffff16611e399092919063ffffffff16565b8073ffffffffffffffffffffffffffffffffffffffff1663a5977fbb8b8b8b8b8b8b6040518763ffffffff1660e01b81526004016114fe9695949392919061373b565b600060405180830381600087803b15801561151857600080fd5b505af115801561152c573d6000803e3d6000fd5b5050505061153d8a8a8a8a8a611f5a565b9150611d18565b60026006811115611558576115576123bd565b5b84600681111561156b5761156a6123bd565b5b14156116a3578273ffffffffffffffffffffffffffffffffffffffff1663d8257d176040518163ffffffff1660e01b815260040160206040518083038186803b1580156115b757600080fd5b505afa1580156115cb573d6000803e3d6000fd5b505050506040513d601f19601f820116820180604052508101906115ef91906136ff565b905061161c81898b73ffffffffffffffffffffffffffffffffffffffff16611e399092919063ffffffff16565b8073ffffffffffffffffffffffffffffffffffffffff1663234636248a8a8a8e8b6040518663ffffffff1660e01b815260040161165d95949392919061379c565b600060405180830381600087803b15801561167757600080fd5b505af115801561168b573d6000803e3d6000fd5b5050505061169c8a8a8a8a8a611f9a565b9150611d17565b600360068111156116b7576116b66123bd565b5b8460068111156116ca576116c96123bd565b5b141561182b578273ffffffffffffffffffffffffffffffffffffffff1663dfa2dbaf6040518163ffffffff1660e01b815260040160206040518083038186803b15801561171657600080fd5b505afa15801561172a573d6000803e3d6000fd5b505050506040513d601f19601f8201168201806040525081019061174e91906136ff565b905061177b81898b73ffffffffffffffffffffffffffffffffffffffff16611e399092919063ffffffff16565b8073ffffffffffffffffffffffffffffffffffffffff1663de790c7e8a8a8d8a6040518563ffffffff1660e01b81526004016117ba94939291906137ef565b600060405180830381600087803b1580156117d457600080fd5b505af11580156117e8573d6000803e3d6000fd5b505050506118188160008b73ffffffffffffffffffffffffffffffffffffffff16611fda9092919063ffffffff16565b6118248a8a8a89612138565b9150611d16565b6004600681111561183f5761183e6123bd565b5b846006811115611852576118516123bd565b5b141561199d578273ffffffffffffffffffffffffffffffffffffffff1663c66a9c5a6040518163ffffffff1660e01b815260040160206040518083038186803b15801561189e57600080fd5b505afa1580156118b2573d6000803e3d6000fd5b505050506040513d601f19601f820116820180604052508101906118d691906136ff565b905061190381898b73ffffffffffffffffffffffffffffffffffffffff16611e399092919063ffffffff16565b8073ffffffffffffffffffffffffffffffffffffffff1663234636248a8a8a8e8b6040518663ffffffff1660e01b815260040161194495949392919061379c565b602060405180830381600087803b15801561195e57600080fd5b505af1158015611972573d6000803e3d6000fd5b505050506040513d601f19601f820116820180604052508101906119969190613860565b9150611d15565b600560068111156119b1576119b06123bd565b5b8460068111156119c4576119c36123bd565b5b1415611b3b578273ffffffffffffffffffffffffffffffffffffffff166395b12c276040518163ffffffff1660e01b815260040160206040518083038186803b158015611a1057600080fd5b505afa158015611a24573d6000803e3d6000fd5b505050506040513d601f19601f82011682018060405250810190611a4891906136ff565b9050611a7581898b73ffffffffffffffffffffffffffffffffffffffff16611e399092919063ffffffff16565b8073ffffffffffffffffffffffffffffffffffffffff1663a00293018a8a8a8e8b6040518663ffffffff1660e01b8152600401611ab695949392919061379c565b602060405180830381600087803b158015611ad057600080fd5b505af1158015611ae4573d6000803e3d6000fd5b505050506040513d601f19601f82011682018060405250810190611b089190613860565b9150611b368160008b73ffffffffffffffffffffffffffffffffffffffff16611fda9092919063ffffffff16565b611d14565b600680811115611b4e57611b4d6123bd565b5b846006811115611b6157611b606123bd565b5b1415611cd8578273ffffffffffffffffffffffffffffffffffffffff166395b12c276040518163ffffffff1660e01b815260040160206040518083038186803b158015611bad57600080fd5b505afa158015611bc1573d6000803e3d6000fd5b505050506040513d601f19601f82011682018060405250810190611be591906136ff565b9050611c1281898b73ffffffffffffffffffffffffffffffffffffffff16611e399092919063ffffffff16565b8073ffffffffffffffffffffffffffffffffffffffff16639e422c338a8a8a8e8b6040518663ffffffff1660e01b8152600401611c5395949392919061379c565b602060405180830381600087803b158015611c6d57600080fd5b505af1158015611c81573d6000803e3d6000fd5b505050506040513d601f19601f82011682018060405250810190611ca59190613860565b9150611cd38160008b73ffffffffffffffffffffffffffffffffffffffff16611fda9092919063ffffffff16565b611d13565b6040517f08c379a0000000000000000000000000000000000000000000000000000000008152600401611d0a906138d9565b60405180910390fd5b5b5b5b5b5b9850989650505050505050565b606082471015611d6a576040517f08c379a0000000000000000000000000000000000000000000000000000000008152600401611d619061396b565b60405180910390fd5b611d7385612175565b611db2576040517f08c379a0000000000000000000000000000000000000000000000000000000008152600401611da9906139d7565b60405180910390fd5b6000808673ffffffffffffffffffffffffffffffffffffffff168587604051611ddb9190613a33565b60006040518083038185875af1925050503d8060008114611e18576040519150601f19603f3d011682016040523d82523d6000602084013e611e1d565b606091505b5091509150611e2d828286612198565b92505050949350505050565b6000818473ffffffffffffffffffffffffffffffffffffffff1663dd62ed3e30866040518363ffffffff1660e01b8152600401611e77929190613a4a565b60206040518083038186803b158015611e8f57600080fd5b505afa158015611ea3573d6000803e3d6000fd5b505050506040513d601f19601f82011682018060405250810190611ec79190613a88565b611ed19190613ab5565b9050611f548463095ea7b360e01b8584604051602401611ef2929190613460565b604051602081830303815290604052907bffffffffffffffffffffffffffffffffffffffffffffffffffffffff19166020820180517bffffffffffffffffffffffffffffffffffffffffffffffffffffffff8381831617835250505050611165565b50505050565b600030868686868646604051602001611f799796959493929190613baa565b60405160208183030381529060405280519060200120905095945050505050565b600030858585898646604051602001611fb99796959493929190613c2b565b60405160208183030381529060405280519060200120905095945050505050565b6000811480612073575060008373ffffffffffffffffffffffffffffffffffffffff1663dd62ed3e30856040518363ffffffff1660e01b8152600401612021929190613a4a565b60206040518083038186803b15801561203957600080fd5b505afa15801561204d573d6000803e3d6000fd5b505050506040513d601f19601f820116820180604052508101906120719190613a88565b145b6120b2576040517f08c379a00000000000000000000000000000000000000000000000000000000081526004016120a990613d1e565b60405180910390fd5b6121338363095ea7b360e01b84846040516024016120d1929190613460565b604051602081830303815290604052907bffffffffffffffffffffffffffffffffffffffffffffffffffffffff19166020820180517bffffffffffffffffffffffffffffffffffffffffffffffffffffffff8381831617835250505050611165565b505050565b600030848487854660405160200161215596959493929190613d3e565b604051602081830303815290604052805190602001209050949350505050565b6000808273ffffffffffffffffffffffffffffffffffffffff163b119050919050565b606083156121a8578290506121f8565b6000835111156121bb5782518084602001fd5b816040517f08c379a00000000000000000000000000000000000000000000000000000000081526004016121ef9190613df2565b60405180910390fd5b9392505050565b6000604051905090565b600080fd5b600080fd5b600080fd5b600080fd5b600080fd5b60008083601f84011261223857612237612213565b5b8235905067ffffffffffffffff81111561225557612254612218565b5b6020830191508360018202830111156122715761227061221d565b5b9250929050565b600067ffffffffffffffff82169050919050565b61229581612278565b81146122a057600080fd5b50565b6000813590506122b28161228c565b92915050565b600073ffffffffffffffffffffffffffffffffffffffff82169050919050565b60006122e3826122b8565b9050919050565b6122f3816122d8565b81146122fe57600080fd5b50565b600081359050612310816122ea565b92915050565b6000806000806000806080878903121561233357612332612209565b5b600087013567ffffffffffffffff8111156123515761235061220e565b5b61235d89828a01612222565b9650965050602061237089828a016122a3565b945050604087013567ffffffffffffffff8111156123915761239061220e565b5b61239d89828a01612222565b935093505060606123b089828a01612301565b9150509295509295509295565b7f4e487b7100000000000000000000000000000000000000000000000000000000600052602160045260246000fd5b600381106123fd576123fc6123bd565b5b50565b600081905061240e826123ec565b919050565b600061241e82612400565b9050919050565b61242e81612413565b82525050565b60006020820190506124496000830184612425565b92915050565b6000819050919050565b6124628161244f565b811461246d57600080fd5b50565b60008135905061247f81612459565b92915050565b6000806000806000608086880312156124a1576124a0612209565b5b60006124af88828901612301565b95505060206124c088828901612470565b945050604086013567ffffffffffffffff8111156124e1576124e061220e565b5b6124ed88828901612222565b9350935050606061250088828901612301565b9150509295509295909350565b60008083601f84011261252357612522612213565b5b8235905067ffffffffffffffff8111156125405761253f612218565b5b60208301915083602082028301111561255c5761255b61221d565b5b9250929050565b60008083601f84011261257957612578612213565b5b8235905067ffffffffffffffff81111561259657612595612218565b5b6020830191508360208202830111156125b2576125b161221d565b5b9250929050565b600080600080600080608087890312156125d6576125d5612209565b5b60006125e489828a01612301565b96505060206125f589828a016122a3565b955050604087013567ffffffffffffffff8111156126165761261561220e565b5b61262289828a0161250d565b9450945050606087013567ffffffffffffffff8111156126455761264461220e565b5b61265189828a01612563565b92509250509295509295509295565b60006020828403121561267657612675612209565b5b600061268484828501612301565b91505092915050565b600080600080600080600060c0888a0312156126ac576126ab612209565b5b60006126ba8a828b01612301565b97505060206126cb8a828b01612301565b96505060406126dc8a828b01612470565b95505060606126ed8a828b016122a3565b945050608088013567ffffffffffffffff81111561270e5761270d61220e565b5b61271a8a828b01612222565b935093505060a061272d8a828b01612301565b91505092959891949750929550565b600063ffffffff82169050919050565b6127558161273c565b811461276057600080fd5b50565b6000813590506127728161274c565b92915050565b6007811061278557600080fd5b50565b60008135905061279781612778565b92915050565b60008060008060008060008060e0898b0312156127bd576127bc612209565b5b60006127cb8b828c01612301565b98505060206127dc8b828c01612301565b97505060406127ed8b828c01612470565b96505060606127fe8b828c016122a3565b955050608061280f8b828c01612763565b94505060a089013567ffffffffffffffff8111156128305761282f61220e565b5b61283c8b828c01612222565b935093505060c061284f8b828c01612788565b9150509295985092959890939650565b60008060008060006080868803121561287b5761287a612209565b5b600061288988828901612301565b955050602061289a888289016122a3565b945050604086013567ffffffffffffffff8111156128bb576128ba61220e565b5b6128c788828901612222565b935093505060606128da888289016122a3565b9150509295509295909350565b600080fd5b6000601f19601f8301169050919050565b7f4e487b7100000000000000000000000000000000000000000000000000000000600052604160045260246000fd5b612935826128ec565b810181811067ffffffffffffffff82111715612954576129536128fd565b5b80604052505050565b60006129676121ff565b9050612973828261292c565b919050565b600067ffffffffffffffff821115612993576129926128fd565b5b61299c826128ec565b9050602081019050919050565b82818337600083830152505050565b60006129cb6129c684612978565b61295d565b9050828152602081018484840111156129e7576129e66128e7565b5b6129f28482856129a9565b509392505050565b600082601f830112612a0f57612a0e612213565b5b8135612a1f8482602086016129b8565b91505092915050565b60008060008060008060c08789031215612a4557612a44612209565b5b6000612a5389828a01612301565b9650506020612a6489828a01612301565b9550506040612a7589828a01612470565b9450506060612a8689828a016122a3565b935050608087013567ffffffffffffffff811115612aa757612aa661220e565b5b612ab389828a016129fa565b92505060a0612ac489828a01612301565b9150509295509295509295565b600080600080600060608688031215612aed57612aec612209565b5b600086013567ffffffffffffffff811115612b0b57612b0a61220e565b5b612b1788828901612222565b95509550506020612b2a888289016122a3565b935050604086013567ffffffffffffffff811115612b4b57612b4a61220e565b5b612b5788828901612222565b92509250509295509295909350565b612b6f816122d8565b82525050565b6000602082019050612b8a6000830184612b66565b92915050565b600080600080600060808688031215612bac57612bab612209565b5b6000612bba88828901612301565b9550506020612bcb888289016122a3565b945050604086013567ffffffffffffffff811115612bec57612beb61220e565b5b612bf888828901612222565b93509350506060612c0b88828901612301565b9150509295509295909350565b60008060408385031215612c2f57612c2e612209565b5b6000612c3d85828601612301565b9250506020612c4e85828601612470565b9150509250929050565b60008060008060608587031215612c7257612c71612209565b5b6000612c8087828801612301565b9450506020612c91878288016122a3565b935050604085013567ffffffffffffffff811115612cb257612cb161220e565b5b612cbe87828801612222565b925092505092959194509250565b600082825260208201905092915050565b7f63616c6c6572206973206e6f74206d6573736167652062757300000000000000600082015250565b6000612d13601983612ccc565b9150612d1e82612cdd565b602082019050919050565b60006020820190508181036000830152612d4281612d06565b9050919050565b60008060408385031215612d6057612d5f612209565b5b6000612d6e858286016122a3565b925050602083013567ffffffffffffffff811115612d8f57612d8e61220e565b5b612d9b858286016129fa565b9150509250929050565b600082825260208201905092915050565b6000612dc28385612da5565b9350612dcf8385846129a9565b612dd8836128ec565b840190509392505050565b612dec81612278565b82525050565b600081519050919050565b60005b83811015612e1b578082015181840152602081019050612e00565b83811115612e2a576000848401525b50505050565b6000612e3b82612df2565b612e458185612da5565b9350612e55818560208601612dfd565b612e5e816128ec565b840191505092915050565b60006080820190508181036000830152612e84818789612db6565b9050612e936020830186612de3565b612ea06040830185612de3565b8181036060830152612eb28184612e30565b90509695505050505050565b6000612ec9826122b8565b9050919050565b612ed981612ebe565b8114612ee457600080fd5b50565b600081359050612ef681612ed0565b92915050565b60008060408385031215612f1357612f12612209565b5b6000612f2185828601612ee7565b925050602083013567ffffffffffffffff811115612f4257612f4161220e565b5b612f4e858286016129fa565b9150509250929050565b612f618161244f565b82525050565b6000608082019050612f7c6000830187612b66565b612f896020830186612b66565b612f966040830185612f58565b8181036060830152612fa88184612e30565b905095945050505050565b7f4e487b7100000000000000000000000000000000000000000000000000000000600052603260045260246000fd5b600080fd5b600080fd5b600080fd5b6000808335600160200384360303811261300e5761300d612fe2565b5b80840192508235915067ffffffffffffffff8211156130305761302f612fe7565b5b60208301925060018202360383131561304c5761304b612fec565b5b509250929050565b60006040820190506130696000830186612de3565b818103602083015261307c818486612db6565b9050949350505050565b7f4e487b7100000000000000000000000000000000000000000000000000000000600052601160045260246000fd5b60006130c082612278565b915067ffffffffffffffff8214156130db576130da613086565b5b600182019050919050565b60006130f18261244f565b91507fffffffffffffffffffffffffffffffffffffffffffffffffffffffffffffffff82141561312457613123613086565b5b600182019050919050565b7f4f776e61626c653a2063616c6c6572206973206e6f7420746865206f776e6572600082015250565b6000613165602083612ccc565b91506131708261312f565b602082019050919050565b6000602082019050818103600083015261319481613158565b9050919050565b60006040820190506131b06000830186612b66565b81810360208301526131c3818486612db6565b9050949350505050565b6000815190506131dc81612ed0565b92915050565b60006131f56131f084612978565b61295d565b905082815260208101848484011115613211576132106128e7565b5b61321c848285612dfd565b509392505050565b600082601f83011261323957613238612213565b5b81516132498482602086016131e2565b91505092915050565b6000806040838503121561326957613268612209565b5b6000613277858286016131cd565b925050602083015167ffffffffffffffff8111156132985761329761220e565b5b6132a485828601613224565b9150509250929050565b600060c0820190506132c36000830189612b66565b6132d06020830188612f58565b6132dd6040830187612b66565b6132ea6060830186612de3565b6132f76080830185612b66565b81810360a08301526133098184612e30565b9050979650505050505050565b7f696e76616c6964206e6f6e636500000000000000000000000000000000000000600082015250565b600061334c600d83612ccc565b915061335782613316565b602082019050919050565b6000602082019050818103600083015261337b8161333f565b9050919050565b60006080820190506133976000830187612b66565b6133a46020830186612de3565b6133b16040830185612de3565b81810360608301526133c38184612e30565b905095945050505050565b7f4f776e61626c653a206e6577206f776e657220697320746865207a65726f206160008201527f6464726573730000000000000000000000000000000000000000000000000000602082015250565b600061342a602683612ccc565b9150613435826133ce565b604082019050919050565b600060208201905081810360008301526134598161341d565b9050919050565b60006040820190506134756000830185612b66565b6134826020830184612f58565b9392505050565b600060608201905061349e6000830186612b66565b6134ab6020830185612b66565b6134b86040830184612f58565b949350505050565b60008115159050919050565b6134d5816134c0565b81146134e057600080fd5b50565b6000815190506134f2816134cc565b92915050565b60006020828403121561350e5761350d612209565b5b600061351c848285016134e3565b91505092915050565b7f5361666545524332303a204552433230206f7065726174696f6e20646964206e60008201527f6f74207375636365656400000000000000000000000000000000000000000000602082015250565b6000613581602a83612ccc565b915061358c82613525565b604082019050919050565b600060208201905081810360008301526135b081613574565b9050919050565b6000819050919050565b60006135dc6135d76135d284612278565b6135b7565b61244f565b9050919050565b6135ec816135c1565b82525050565b60006060820190506136076000830186612b66565b61361460208301856135e3565b81810360408301526136268184612e30565b9050949350505050565b6000819050919050565b61364381613630565b82525050565b600060a08201905061365e6000830188612b66565b61366b60208301876135e3565b6136786040830186612b66565b613685606083018561363a565b81810360808301526136978184612e30565b90509695505050505050565b600060608201905081810360008301526136be818688612db6565b90506136cd60208301856135e3565b81810360408301526136df8184612e30565b905095945050505050565b6000815190506136f9816122ea565b92915050565b60006020828403121561371557613714612209565b5b6000613723848285016136ea565b91505092915050565b6137358161273c565b82525050565b600060c0820190506137506000830189612b66565b61375d6020830188612b66565b61376a6040830187612f58565b6137776060830186612de3565b6137846080830185612de3565b61379160a083018461372c565b979650505050505050565b600060a0820190506137b16000830188612b66565b6137be6020830187612f58565b6137cb6040830186612de3565b6137d86060830185612b66565b6137e56080830184612de3565b9695505050505050565b60006080820190506138046000830187612b66565b6138116020830186612f58565b61381e6040830185612b66565b61382b6060830184612de3565b95945050505050565b61383d81613630565b811461384857600080fd5b50565b60008151905061385a81613834565b92915050565b60006020828403121561387657613875612209565b5b60006138848482850161384b565b91505092915050565b7f6272696467652074797065206e6f7420737570706f7274656400000000000000600082015250565b60006138c3601983612ccc565b91506138ce8261388d565b602082019050919050565b600060208201905081810360008301526138f2816138b6565b9050919050565b7f416464726573733a20696e73756666696369656e742062616c616e636520666f60008201527f722063616c6c0000000000000000000000000000000000000000000000000000602082015250565b6000613955602683612ccc565b9150613960826138f9565b604082019050919050565b6000602082019050818103600083015261398481613948565b9050919050565b7f416464726573733a2063616c6c20746f206e6f6e2d636f6e7472616374000000600082015250565b60006139c1601d83612ccc565b91506139cc8261398b565b602082019050919050565b600060208201905081810360008301526139f0816139b4565b9050919050565b600081905092915050565b6000613a0d82612df2565b613a1781856139f7565b9350613a27818560208601612dfd565b80840191505092915050565b6000613a3f8284613a02565b915081905092915050565b6000604082019050613a5f6000830185612b66565b613a6c6020830184612b66565b9392505050565b600081519050613a8281612459565b92915050565b600060208284031215613a9e57613a9d612209565b5b6000613aac84828501613a73565b91505092915050565b6000613ac08261244f565b9150613acb8361244f565b9250827fffffffffffffffffffffffffffffffffffffffffffffffffffffffffffffffff03821115613b0057613aff613086565b5b828201905092915050565b60008160601b9050919050565b6000613b2382613b0b565b9050919050565b6000613b3582613b18565b9050919050565b613b4d613b48826122d8565b613b2a565b82525050565b6000819050919050565b613b6e613b698261244f565b613b53565b82525050565b60008160c01b9050919050565b6000613b8c82613b74565b9050919050565b613ba4613b9f82612278565b613b81565b82525050565b6000613bb6828a613b3c565b601482019150613bc68289613b3c565b601482019150613bd68288613b3c565b601482019150613be68287613b5d565b602082019150613bf68286613b93565b600882019150613c068285613b93565b600882019150613c168284613b93565b60088201915081905098975050505050505050565b6000613c37828a613b3c565b601482019150613c478289613b3c565b601482019150613c578288613b5d565b602082019150613c678287613b93565b600882019150613c778286613b3c565b601482019150613c878285613b93565b600882019150613c978284613b93565b60088201915081905098975050505050505050565b7f5361666545524332303a20617070726f76652066726f6d206e6f6e2d7a65726f60008201527f20746f206e6f6e2d7a65726f20616c6c6f77616e636500000000000000000000602082015250565b6000613d08603683612ccc565b9150613d1382613cac565b604082019050919050565b60006020820190508181036000830152613d3781613cfb565b9050919050565b6000613d4a8289613b3c565b601482019150613d5a8288613b3c565b601482019150613d6a8287613b5d565b602082019150613d7a8286613b3c565b601482019150613d8a8285613b93565b600882019150613d9a8284613b93565b600882019150819050979650505050505050565b600081519050919050565b6000613dc482613dae565b613dce8185612ccc565b9350613dde818560208601612dfd565b613de7816128ec565b840191505092915050565b60006020820190508181036000830152613e0c8184613db9565b90509291505056fea2646970667358221220d003cc1fb989f6fb2da81fbb173c978c20d753e3a285145a875e2782f38731a964736f6c63430008090033",
			"opcodes": "PUSH1 0x80 PUSH1 0x40 MSTORE CALLVALUE DUP1 ISZERO PUSH3 0x11 JUMPI PUSH1 0x0 DUP1 REVERT JUMPDEST POP PUSH1 0x40 MLOAD PUSH3 0x404A CODESIZE SUB DUP1 PUSH3 0x404A DUP4 CODECOPY DUP2 DUP2 ADD PUSH1 0x40 MSTORE DUP2 ADD SWAP1 PUSH3 0x37 SWAP2 SWAP1 PUSH3 0x1BE JUMP JUMPDEST PUSH3 0x48 CALLER PUSH3 0x90 PUSH1 0x20 SHL PUSH1 0x20 SHR JUMP JUMPDEST DUP1 PUSH1 0x1 PUSH1 0x0 PUSH2 0x100 EXP DUP2 SLOAD DUP2 PUSH20 0xFFFFFFFFFFFFFFFFFFFFFFFFFFFFFFFFFFFFFFFF MUL NOT AND SWAP1 DUP4 PUSH20 0xFFFFFFFFFFFFFFFFFFFFFFFFFFFFFFFFFFFFFFFF AND MUL OR SWAP1 SSTORE POP POP PUSH3 0x1F0 JUMP JUMPDEST PUSH1 0x0 DUP1 PUSH1 0x0 SWAP1 SLOAD SWAP1 PUSH2 0x100 EXP SWAP1 DIV PUSH20 0xFFFFFFFFFFFFFFFFFFFFFFFFFFFFFFFFFFFFFFFF AND SWAP1 POP DUP2 PUSH1 0x0 DUP1 PUSH2 0x100 EXP DUP2 SLOAD DUP2 PUSH20 0xFFFFFFFFFFFFFFFFFFFFFFFFFFFFFFFFFFFFFFFF MUL NOT AND SWAP1 DUP4 PUSH20 0xFFFFFFFFFFFFFFFFFFFFFFFFFFFFFFFFFFFFFFFF AND MUL OR SWAP1 SSTORE POP DUP2 PUSH20 0xFFFFFFFFFFFFFFFFFFFFFFFFFFFFFFFFFFFFFFFF AND DUP2 PUSH20 0xFFFFFFFFFFFFFFFFFFFFFFFFFFFFFFFFFFFFFFFF AND PUSH32 0x8BE0079C531659141344CD1FD0A4F28419497F9722A3DAAFE3B4186F6B6457E0 PUSH1 0x40 MLOAD PUSH1 0x40 MLOAD DUP1 SWAP2 SUB SWAP1 LOG3 POP POP JUMP JUMPDEST PUSH1 0x0 DUP1 REVERT JUMPDEST PUSH1 0x0 PUSH20 0xFFFFFFFFFFFFFFFFFFFFFFFFFFFFFFFFFFFFFFFF DUP3 AND SWAP1 POP SWAP2 SWAP1 POP JUMP JUMPDEST PUSH1 0x0 PUSH3 0x186 DUP3 PUSH3 0x159 JUMP JUMPDEST SWAP1 POP SWAP2 SWAP1 POP JUMP JUMPDEST PUSH3 0x198 DUP2 PUSH3 0x179 JUMP JUMPDEST DUP2 EQ PUSH3 0x1A4 JUMPI PUSH1 0x0 DUP1 REVERT JUMPDEST POP JUMP JUMPDEST PUSH1 0x0 DUP2 MLOAD SWAP1 POP PUSH3 0x1B8 DUP2 PUSH3 0x18D JUMP JUMPDEST SWAP3 SWAP2 POP POP JUMP JUMPDEST PUSH1 0x0 PUSH1 0x20 DUP3 DUP5 SUB SLT ISZERO PUSH3 0x1D7 JUMPI PUSH3 0x1D6 PUSH3 0x154 JUMP JUMPDEST JUMPDEST PUSH1 0x0 PUSH3 0x1E7 DUP5 DUP3 DUP6 ADD PUSH3 0x1A7 JUMP JUMPDEST SWAP2 POP POP SWAP3 SWAP2 POP POP JUMP JUMPDEST PUSH2 0x3E4A DUP1 PUSH3 0x200 PUSH1 0x0 CODECOPY PUSH1 0x0 RETURN INVALID PUSH1 0x80 PUSH1 0x40 MSTORE PUSH1 0x4 CALLDATASIZE LT PUSH2 0xE8 JUMPI PUSH1 0x0 CALLDATALOAD PUSH1 0xE0 SHR DUP1 PUSH4 0x7CD2BFFC GT PUSH2 0x8A JUMPI DUP1 PUSH4 0x9D4323BE GT PUSH2 0x59 JUMPI DUP1 PUSH4 0x9D4323BE EQ PUSH2 0x2A1 JUMPI DUP1 PUSH4 0xA1A227FA EQ PUSH2 0x2CA JUMPI DUP1 PUSH4 0xC81739CD EQ PUSH2 0x2F5 JUMPI DUP1 PUSH4 0xF2FDE38B EQ PUSH2 0x311 JUMPI PUSH2 0xE8 JUMP JUMPDEST DUP1 PUSH4 0x7CD2BFFC EQ PUSH2 0x1FA JUMPI DUP1 PUSH4 0x86DFC3C8 EQ PUSH2 0x22A JUMPI DUP1 PUSH4 0x8DA5CB5B EQ PUSH2 0x246 JUMPI DUP1 PUSH4 0x9C649FDF EQ PUSH2 0x271 JUMPI PUSH2 0xE8 JUMP JUMPDEST DUP1 PUSH4 0x547CAD12 GT PUSH2 0xC6 JUMPI DUP1 PUSH4 0x547CAD12 EQ PUSH2 0x169 JUMPI DUP1 PUSH4 0x5AB7AFC6 EQ PUSH2 0x192 JUMPI DUP1 PUSH4 0x7767B8D7 EQ PUSH2 0x1C2 JUMPI DUP1 PUSH4 0x7BCF9FE1 EQ PUSH2 0x1DE JUMPI PUSH2 0xE8 JUMP JUMPDEST DUP1 PUSH4 0x63CE4E5 EQ PUSH2 0xED JUMPI DUP1 PUSH4 0xBCB4982 EQ PUSH2 0x11D JUMPI DUP1 PUSH4 0x3C8790D7 EQ PUSH2 0x14D JUMPI JUMPDEST PUSH1 0x0 DUP1 REVERT JUMPDEST PUSH2 0x107 PUSH1 0x4 DUP1 CALLDATASIZE SUB DUP2 ADD SWAP1 PUSH2 0x102 SWAP2 SWAP1 PUSH2 0x2316 JUMP JUMPDEST PUSH2 0x33A JUMP JUMPDEST PUSH1 0x40 MLOAD PUSH2 0x114 SWAP2 SWAP1 PUSH2 0x2434 JUMP JUMPDEST PUSH1 0x40 MLOAD DUP1 SWAP2 SUB SWAP1 RETURN JUMPDEST PUSH2 0x137 PUSH1 0x4 DUP1 CALLDATASIZE SUB DUP2 ADD SWAP1 PUSH2 0x132 SWAP2 SWAP1 PUSH2 0x2485 JUMP JUMPDEST PUSH2 0x431 JUMP JUMPDEST PUSH1 0x40 MLOAD PUSH2 0x144 SWAP2 SWAP1 PUSH2 0x2434 JUMP JUMPDEST PUSH1 0x40 MLOAD DUP1 SWAP2 SUB SWAP1 RETURN JUMPDEST PUSH2 0x167 PUSH1 0x4 DUP1 CALLDATASIZE SUB DUP2 ADD SWAP1 PUSH2 0x162 SWAP2 SWAP1 PUSH2 0x25B9 JUMP JUMPDEST PUSH2 0x550 JUMP JUMPDEST STOP JUMPDEST CALLVALUE DUP1 ISZERO PUSH2 0x175 JUMPI PUSH1 0x0 DUP1 REVERT JUMPDEST POP PUSH2 0x190 PUSH1 0x4 DUP1 CALLDATASIZE SUB DUP2 ADD SWAP1 PUSH2 0x18B SWAP2 SWAP1 PUSH2 0x2660 JUMP JUMPDEST PUSH2 0x64E JUMP JUMPDEST STOP JUMPDEST PUSH2 0x1AC PUSH1 0x4 DUP1 CALLDATASIZE SUB DUP2 ADD SWAP1 PUSH2 0x1A7 SWAP2 SWAP1 PUSH2 0x268D JUMP JUMPDEST PUSH2 0x760 JUMP JUMPDEST PUSH1 0x40 MLOAD PUSH2 0x1B9 SWAP2 SWAP1 PUSH2 0x2434 JUMP JUMPDEST PUSH1 0x40 MLOAD DUP1 SWAP2 SUB SWAP1 RETURN JUMPDEST PUSH2 0x1DC PUSH1 0x4 DUP1 CALLDATASIZE SUB DUP2 ADD SWAP1 PUSH2 0x1D7 SWAP2 SWAP1 PUSH2 0x279D JUMP JUMPDEST PUSH2 0x7FD JUMP JUMPDEST STOP JUMPDEST PUSH2 0x1F8 PUSH1 0x4 DUP1 CALLDATASIZE SUB DUP2 ADD SWAP1 PUSH2 0x1F3 SWAP2 SWAP1 PUSH2 0x285F JUMP JUMPDEST PUSH2 0x8D2 JUMP JUMPDEST STOP JUMPDEST PUSH2 0x214 PUSH1 0x4 DUP1 CALLDATASIZE SUB DUP2 ADD SWAP1 PUSH2 0x20F SWAP2 SWAP1 PUSH2 0x2A28 JUMP JUMPDEST PUSH2 0x90E JUMP JUMPDEST PUSH1 0x40 MLOAD PUSH2 0x221 SWAP2 SWAP1 PUSH2 0x2434 JUMP JUMPDEST PUSH1 0x40 MLOAD DUP1 SWAP2 SUB SWAP1 RETURN JUMPDEST PUSH2 0x244 PUSH1 0x4 DUP1 CALLDATASIZE SUB DUP2 ADD SWAP1 PUSH2 0x23F SWAP2 SWAP1 PUSH2 0x2AD1 JUMP JUMPDEST PUSH2 0xA37 JUMP JUMPDEST STOP JUMPDEST CALLVALUE DUP1 ISZERO PUSH2 0x252 JUMPI PUSH1 0x0 DUP1 REVERT JUMPDEST POP PUSH2 0x25B PUSH2 0xAD7 JUMP JUMPDEST PUSH1 0x40 MLOAD PUSH2 0x268 SWAP2 SWAP1 PUSH2 0x2B75 JUMP JUMPDEST PUSH1 0x40 MLOAD DUP1 SWAP2 SUB SWAP1 RETURN JUMPDEST PUSH2 0x28B PUSH1 0x4 DUP1 CALLDATASIZE SUB DUP2 ADD SWAP1 PUSH2 0x286 SWAP2 SWAP1 PUSH2 0x2B90 JUMP JUMPDEST PUSH2 0xB00 JUMP JUMPDEST PUSH1 0x40 MLOAD PUSH2 0x298 SWAP2 SWAP1 PUSH2 0x2434 JUMP JUMPDEST PUSH1 0x40 MLOAD DUP1 SWAP2 SUB SWAP1 RETURN JUMPDEST CALLVALUE DUP1 ISZERO PUSH2 0x2AD JUMPI PUSH1 0x0 DUP1 REVERT JUMPDEST POP PUSH2 0x2C8 PUSH1 0x4 DUP1 CALLDATASIZE SUB DUP2 ADD SWAP1 PUSH2 0x2C3 SWAP2 SWAP1 PUSH2 0x2C18 JUMP JUMPDEST PUSH2 0xC88 JUMP JUMPDEST STOP JUMPDEST CALLVALUE DUP1 ISZERO PUSH2 0x2D6 JUMPI PUSH1 0x0 DUP1 REVERT JUMPDEST POP PUSH2 0x2DF PUSH2 0xD2C JUMP JUMPDEST PUSH1 0x40 MLOAD PUSH2 0x2EC SWAP2 SWAP1 PUSH2 0x2B75 JUMP JUMPDEST PUSH1 0x40 MLOAD DUP1 SWAP2 SUB SWAP1 RETURN JUMPDEST PUSH2 0x30F PUSH1 0x4 DUP1 CALLDATASIZE SUB DUP2 ADD SWAP1 PUSH2 0x30A SWAP2 SWAP1 PUSH2 0x2C58 JUMP JUMPDEST PUSH2 0xD52 JUMP JUMPDEST STOP JUMPDEST CALLVALUE DUP1 ISZERO PUSH2 0x31D JUMPI PUSH1 0x0 DUP1 REVERT JUMPDEST POP PUSH2 0x338 PUSH1 0x4 DUP1 CALLDATASIZE SUB DUP2 ADD SWAP1 PUSH2 0x333 SWAP2 SWAP1 PUSH2 0x2660 JUMP JUMPDEST PUSH2 0xDF0 JUMP JUMPDEST STOP JUMPDEST PUSH1 0x0 PUSH1 0x1 PUSH1 0x0 SWAP1 SLOAD SWAP1 PUSH2 0x100 EXP SWAP1 DIV PUSH20 0xFFFFFFFFFFFFFFFFFFFFFFFFFFFFFFFFFFFFFFFF AND PUSH20 0xFFFFFFFFFFFFFFFFFFFFFFFFFFFFFFFFFFFFFFFF AND CALLER PUSH20 0xFFFFFFFFFFFFFFFFFFFFFFFFFFFFFFFFFFFFFFFF AND EQ PUSH2 0x3CC JUMPI PUSH1 0x40 MLOAD PUSH32 0x8C379A000000000000000000000000000000000000000000000000000000000 DUP2 MSTORE PUSH1 0x4 ADD PUSH2 0x3C3 SWAP1 PUSH2 0x2D29 JUMP JUMPDEST PUSH1 0x40 MLOAD DUP1 SWAP2 SUB SWAP1 REVERT JUMPDEST PUSH1 0x0 DUP1 DUP6 DUP6 DUP2 ADD SWAP1 PUSH2 0x3DE SWAP2 SWAP1 PUSH2 0x2D49 JUMP JUMPDEST SWAP2 POP SWAP2 POP PUSH32 0x93BFF870467428EAD6659A7A554CB75CC2CA56D416714397A31D7DD90FDF3B9C DUP10 DUP10 DUP10 DUP6 DUP6 PUSH1 0x40 MLOAD PUSH2 0x419 SWAP6 SWAP5 SWAP4 SWAP3 SWAP2 SWAP1 PUSH2 0x2E69 JUMP JUMPDEST PUSH1 0x40 MLOAD DUP1 SWAP2 SUB SWAP1 LOG1 PUSH1 0x1 SWAP3 POP POP POP SWAP7 SWAP6 POP POP POP POP POP POP JUMP JUMPDEST PUSH1 0x0 PUSH1 0x1 PUSH1 0x0 SWAP1 SLOAD SWAP1 PUSH2 0x100 EXP SWAP1 DIV PUSH20 0xFFFFFFFFFFFFFFFFFFFFFFFFFFFFFFFFFFFFFFFF AND PUSH20 0xFFFFFFFFFFFFFFFFFFFFFFFFFFFFFFFFFFFFFFFF AND CALLER PUSH20 0xFFFFFFFFFFFFFFFFFFFFFFFFFFFFFFFFFFFFFFFF AND EQ PUSH2 0x4C3 JUMPI PUSH1 0x40 MLOAD PUSH32 0x8C379A000000000000000000000000000000000000000000000000000000000 DUP2 MSTORE PUSH1 0x4 ADD PUSH2 0x4BA SWAP1 PUSH2 0x2D29 JUMP JUMPDEST PUSH1 0x40 MLOAD DUP1 SWAP2 SUB SWAP1 REVERT JUMPDEST PUSH1 0x0 DUP1 DUP6 DUP6 DUP2 ADD SWAP1 PUSH2 0x4D5 SWAP2 SWAP1 PUSH2 0x2EFC JUMP JUMPDEST SWAP2 POP SWAP2 POP PUSH2 0x504 DUP3 DUP9 DUP11 PUSH20 0xFFFFFFFFFFFFFFFFFFFFFFFFFFFFFFFFFFFFFFFF AND PUSH2 0xEE1 SWAP1 SWAP3 SWAP2 SWAP1 PUSH4 0xFFFFFFFF AND JUMP JUMPDEST PUSH32 0x28B3E4C963E8ED6CDCDD38AA916A725939823A99BBFA73FE91297CBD65076EBD DUP3 DUP10 DUP10 DUP5 PUSH1 0x40 MLOAD PUSH2 0x539 SWAP5 SWAP4 SWAP3 SWAP2 SWAP1 PUSH2 0x2F67 JUMP JUMPDEST PUSH1 0x40 MLOAD DUP1 SWAP2 SUB SWAP1 LOG1 PUSH1 0x1 SWAP3 POP POP POP SWAP6 SWAP5 POP POP POP POP POP JUMP JUMPDEST PUSH1 0x0 JUMPDEST DUP5 DUP5 SWAP1 POP DUP2 LT ISZERO PUSH2 0x645 JUMPI PUSH1 0x0 PUSH1 0x1 PUSH1 0x14 SWAP1 SLOAD SWAP1 PUSH2 0x100 EXP SWAP1 DIV PUSH8 0xFFFFFFFFFFFFFFFF AND DUP7 DUP7 DUP5 DUP2 DUP2 LT PUSH2 0x58A JUMPI PUSH2 0x589 PUSH2 0x2FB3 JUMP JUMPDEST JUMPDEST SWAP1 POP PUSH1 0x20 MUL DUP2 ADD SWAP1 PUSH2 0x59C SWAP2 SWAP1 PUSH2 0x2FF1 JUMP JUMPDEST PUSH1 0x40 MLOAD PUSH1 0x20 ADD PUSH2 0x5AE SWAP4 SWAP3 SWAP2 SWAP1 PUSH2 0x3054 JUMP JUMPDEST PUSH1 0x40 MLOAD PUSH1 0x20 DUP2 DUP4 SUB SUB DUP2 MSTORE SWAP1 PUSH1 0x40 MSTORE SWAP1 POP PUSH1 0x1 PUSH1 0x14 DUP2 DUP2 SWAP1 SLOAD SWAP1 PUSH2 0x100 EXP SWAP1 DIV PUSH8 0xFFFFFFFFFFFFFFFF AND DUP1 SWAP3 SWAP2 SWAP1 PUSH2 0x5E5 SWAP1 PUSH2 0x30B5 JUMP JUMPDEST SWAP2 SWAP1 PUSH2 0x100 EXP DUP2 SLOAD DUP2 PUSH8 0xFFFFFFFFFFFFFFFF MUL NOT AND SWAP1 DUP4 PUSH8 0xFFFFFFFFFFFFFFFF AND MUL OR SWAP1 SSTORE POP POP PUSH2 0x631 DUP9 DUP9 DUP4 DUP8 DUP8 DUP8 DUP2 DUP2 LT PUSH2 0x625 JUMPI PUSH2 0x624 PUSH2 0x2FB3 JUMP JUMPDEST JUMPDEST SWAP1 POP PUSH1 0x20 MUL ADD CALLDATALOAD PUSH2 0xF67 JUMP JUMPDEST POP DUP1 DUP1 PUSH2 0x63D SWAP1 PUSH2 0x30E6 JUMP JUMPDEST SWAP2 POP POP PUSH2 0x553 JUMP JUMPDEST POP POP POP POP POP POP POP JUMP JUMPDEST CALLER PUSH20 0xFFFFFFFFFFFFFFFFFFFFFFFFFFFFFFFFFFFFFFFF AND PUSH2 0x66D PUSH2 0xAD7 JUMP JUMPDEST PUSH20 0xFFFFFFFFFFFFFFFFFFFFFFFFFFFFFFFFFFFFFFFF AND EQ PUSH2 0x6C3 JUMPI PUSH1 0x40 MLOAD PUSH32 0x8C379A000000000000000000000000000000000000000000000000000000000 DUP2 MSTORE PUSH1 0x4 ADD PUSH2 0x6BA SWAP1 PUSH2 0x317B JUMP JUMPDEST PUSH1 0x40 MLOAD DUP1 SWAP2 SUB SWAP1 REVERT JUMPDEST DUP1 PUSH1 0x1 PUSH1 0x0 PUSH2 0x100 EXP DUP2 SLOAD DUP2 PUSH20 0xFFFFFFFFFFFFFFFFFFFFFFFFFFFFFFFFFFFFFFFF MUL NOT AND SWAP1 DUP4 PUSH20 0xFFFFFFFFFFFFFFFFFFFFFFFFFFFFFFFFFFFFFFFF AND MUL OR SWAP1 SSTORE POP PUSH32 0x3F8223BCD8B3B875473E9F9E14E1AD075451A2B5FFD31591655DA9A01516BF5E PUSH1 0x1 PUSH1 0x0 SWAP1 SLOAD SWAP1 PUSH2 0x100 EXP SWAP1 DIV PUSH20 0xFFFFFFFFFFFFFFFFFFFFFFFFFFFFFFFFFFFFFFFF AND PUSH1 0x40 MLOAD PUSH2 0x755 SWAP2 SWAP1 PUSH2 0x2B75 JUMP JUMPDEST PUSH1 0x40 MLOAD DUP1 SWAP2 SUB SWAP1 LOG1 POP JUMP JUMPDEST PUSH1 0x0 PUSH1 0x1 PUSH1 0x0 SWAP1 SLOAD SWAP1 PUSH2 0x100 EXP SWAP1 DIV PUSH20 0xFFFFFFFFFFFFFFFFFFFFFFFFFFFFFFFFFFFFFFFF AND PUSH20 0xFFFFFFFFFFFFFFFFFFFFFFFFFFFFFFFFFFFFFFFF AND CALLER PUSH20 0xFFFFFFFFFFFFFFFFFFFFFFFFFFFFFFFFFFFFFFFF AND EQ PUSH2 0x7F2 JUMPI PUSH1 0x40 MLOAD PUSH32 0x8C379A000000000000000000000000000000000000000000000000000000000 DUP2 MSTORE PUSH1 0x4 ADD PUSH2 0x7E9 SWAP1 PUSH2 0x2D29 JUMP JUMPDEST PUSH1 0x40 MLOAD DUP1 SWAP2 SUB SWAP1 REVERT JUMPDEST SWAP8 SWAP7 POP POP POP POP POP POP POP JUMP JUMPDEST PUSH2 0x82A CALLER ADDRESS DUP9 DUP11 PUSH20 0xFFFFFFFFFFFFFFFFFFFFFFFFFFFFFFFFFFFFFFFF AND PUSH2 0xF9C SWAP1 SWAP4 SWAP3 SWAP2 SWAP1 PUSH4 0xFFFFFFFF AND JUMP JUMPDEST PUSH1 0x0 CALLER DUP5 DUP5 PUSH1 0x40 MLOAD PUSH1 0x20 ADD PUSH2 0x841 SWAP4 SWAP3 SWAP2 SWAP1 PUSH2 0x319B JUMP JUMPDEST PUSH1 0x40 MLOAD PUSH1 0x20 DUP2 DUP4 SUB SUB DUP2 MSTORE SWAP1 PUSH1 0x40 MSTORE SWAP1 POP PUSH2 0x879 DUP10 DUP10 DUP10 DUP10 PUSH1 0x1 PUSH1 0x14 SWAP1 SLOAD SWAP1 PUSH2 0x100 EXP SWAP1 DIV PUSH8 0xFFFFFFFFFFFFFFFF AND DUP11 DUP8 DUP10 CALLVALUE PUSH2 0x1025 JUMP JUMPDEST POP PUSH1 0x1 PUSH1 0x14 DUP2 DUP2 SWAP1 SLOAD SWAP1 PUSH2 0x100 EXP SWAP1 DIV PUSH8 0xFFFFFFFFFFFFFFFF AND DUP1 SWAP3 SWAP2 SWAP1 PUSH2 0x8A0 SWAP1 PUSH2 0x30B5 JUMP JUMPDEST SWAP2 SWAP1 PUSH2 0x100 EXP DUP2 SLOAD DUP2 PUSH8 0xFFFFFFFFFFFFFFFF MUL NOT AND SWAP1 DUP4 PUSH8 0xFFFFFFFFFFFFFFFF AND MUL OR SWAP1 SSTORE POP POP POP POP POP POP POP POP POP POP POP JUMP JUMPDEST PUSH1 0x0 DUP2 DUP5 DUP5 PUSH1 0x40 MLOAD PUSH1 0x20 ADD PUSH2 0x8E9 SWAP4 SWAP3 SWAP2 SWAP1 PUSH2 0x3054 JUMP JUMPDEST PUSH1 0x40 MLOAD PUSH1 0x20 DUP2 DUP4 SUB SUB DUP2 MSTORE SWAP1 PUSH1 0x40 MSTORE SWAP1 POP PUSH2 0x906 DUP7 DUP7 DUP4 CALLVALUE PUSH2 0xF67 JUMP JUMPDEST POP POP POP POP POP POP JUMP JUMPDEST PUSH1 0x0 PUSH1 0x1 PUSH1 0x0 SWAP1 SLOAD SWAP1 PUSH2 0x100 EXP SWAP1 DIV PUSH20 0xFFFFFFFFFFFFFFFFFFFFFFFFFFFFFFFFFFFFFFFF AND PUSH20 0xFFFFFFFFFFFFFFFFFFFFFFFFFFFFFFFFFFFFFFFF AND CALLER PUSH20 0xFFFFFFFFFFFFFFFFFFFFFFFFFFFFFFFFFFFFFFFF AND EQ PUSH2 0x9A0 JUMPI PUSH1 0x40 MLOAD PUSH32 0x8C379A000000000000000000000000000000000000000000000000000000000 DUP2 MSTORE PUSH1 0x4 ADD PUSH2 0x997 SWAP1 PUSH2 0x2D29 JUMP JUMPDEST PUSH1 0x40 MLOAD DUP1 SWAP2 SUB SWAP1 REVERT JUMPDEST PUSH1 0x0 DUP1 DUP5 DUP1 PUSH1 0x20 ADD SWAP1 MLOAD DUP2 ADD SWAP1 PUSH2 0x9B7 SWAP2 SWAP1 PUSH2 0x3252 JUMP JUMPDEST SWAP2 POP SWAP2 POP PUSH2 0x9E6 DUP3 DUP9 DUP11 PUSH20 0xFFFFFFFFFFFFFFFFFFFFFFFFFFFFFFFFFFFFFFFF AND PUSH2 0xEE1 SWAP1 SWAP3 SWAP2 SWAP1 PUSH4 0xFFFFFFFF AND JUMP JUMPDEST PUSH32 0x853D38177348CFC87290E96C941A5FB96DC3DA8A07C31163DDFFE4DA6661B76F DUP9 DUP9 DUP12 DUP10 DUP7 DUP7 PUSH1 0x40 MLOAD PUSH2 0xA1F SWAP7 SWAP6 SWAP5 SWAP4 SWAP3 SWAP2 SWAP1 PUSH2 0x32AE JUMP JUMPDEST PUSH1 0x40 MLOAD DUP1 SWAP2 SUB SWAP1 LOG1 PUSH1 0x1 SWAP3 POP POP POP SWAP7 SWAP6 POP POP POP POP POP POP JUMP JUMPDEST PUSH1 0x0 PUSH1 0x1 PUSH1 0x14 SWAP1 SLOAD SWAP1 PUSH2 0x100 EXP SWAP1 DIV PUSH8 0xFFFFFFFFFFFFFFFF AND DUP4 DUP4 PUSH1 0x40 MLOAD PUSH1 0x20 ADD PUSH2 0xA64 SWAP4 SWAP3 SWAP2 SWAP1 PUSH2 0x3054 JUMP JUMPDEST PUSH1 0x40 MLOAD PUSH1 0x20 DUP2 DUP4 SUB SUB DUP2 MSTORE SWAP1 PUSH1 0x40 MSTORE SWAP1 POP PUSH1 0x1 PUSH1 0x14 DUP2 DUP2 SWAP1 SLOAD SWAP1 PUSH2 0x100 EXP SWAP1 DIV PUSH8 0xFFFFFFFFFFFFFFFF AND DUP1 SWAP3 SWAP2 SWAP1 PUSH2 0xA9B SWAP1 PUSH2 0x30B5 JUMP JUMPDEST SWAP2 SWAP1 PUSH2 0x100 EXP DUP2 SLOAD DUP2 PUSH8 0xFFFFFFFFFFFFFFFF MUL NOT AND SWAP1 DUP4 PUSH8 0xFFFFFFFFFFFFFFFF AND MUL OR SWAP1 SSTORE POP POP PUSH2 0xACF DUP7 DUP7 DUP7 DUP5 CALLVALUE PUSH2 0x106A JUMP JUMPDEST POP POP POP POP POP POP JUMP JUMPDEST PUSH1 0x0 DUP1 PUSH1 0x0 SWAP1 SLOAD SWAP1 PUSH2 0x100 EXP SWAP1 DIV PUSH20 0xFFFFFFFFFFFFFFFFFFFFFFFFFFFFFFFFFFFFFFFF AND SWAP1 POP SWAP1 JUMP JUMPDEST PUSH1 0x0 PUSH1 0x1 PUSH1 0x0 SWAP1 SLOAD SWAP1 PUSH2 0x100 EXP SWAP1 DIV PUSH20 0xFFFFFFFFFFFFFFFFFFFFFFFFFFFFFFFFFFFFFFFF AND PUSH20 0xFFFFFFFFFFFFFFFFFFFFFFFFFFFFFFFFFFFFFFFF AND CALLER PUSH20 0xFFFFFFFFFFFFFFFFFFFFFFFFFFFFFFFFFFFFFFFF AND EQ PUSH2 0xB92 JUMPI PUSH1 0x40 MLOAD PUSH32 0x8C379A000000000000000000000000000000000000000000000000000000000 DUP2 MSTORE PUSH1 0x4 ADD PUSH2 0xB89 SWAP1 PUSH2 0x2D29 JUMP JUMPDEST PUSH1 0x40 MLOAD DUP1 SWAP2 SUB SWAP1 REVERT JUMPDEST PUSH1 0x0 DUP1 DUP6 DUP6 DUP2 ADD SWAP1 PUSH2 0xBA4 SWAP2 SWAP1 PUSH2 0x2D49 JUMP JUMPDEST SWAP2 POP SWAP2 POP PUSH6 0x5AF3107A4001 DUP3 PUSH8 0xFFFFFFFFFFFFFFFF AND EQ ISZERO PUSH2 0xBFB JUMPI PUSH1 0x40 MLOAD PUSH32 0x8C379A000000000000000000000000000000000000000000000000000000000 DUP2 MSTORE PUSH1 0x4 ADD PUSH2 0xBF2 SWAP1 PUSH2 0x3362 JUMP JUMPDEST PUSH1 0x40 MLOAD DUP1 SWAP2 SUB SWAP1 REVERT JUMPDEST PUSH6 0x5AF3107A4002 DUP3 PUSH8 0xFFFFFFFFFFFFFFFF AND EQ ISZERO PUSH2 0xC18 JUMPI PUSH1 0x0 DUP1 REVERT JUMPDEST PUSH6 0x5AF3107A4003 DUP3 PUSH8 0xFFFFFFFFFFFFFFFF AND EQ ISZERO PUSH2 0xC3B JUMPI PUSH1 0x2 SWAP3 POP POP POP PUSH2 0xC7F JUMP JUMPDEST PUSH32 0x2BC20C63CDCC1B0E6AEB64FCAAF7EA3C8B999228A4A9ED2A2DF1D2E17DD12520 DUP9 DUP9 DUP5 DUP5 PUSH1 0x40 MLOAD PUSH2 0xC70 SWAP5 SWAP4 SWAP3 SWAP2 SWAP1 PUSH2 0x3382 JUMP JUMPDEST PUSH1 0x40 MLOAD DUP1 SWAP2 SUB SWAP1 LOG1 PUSH1 0x1 SWAP3 POP POP POP JUMPDEST SWAP6 SWAP5 POP POP POP POP POP JUMP JUMPDEST CALLER PUSH20 0xFFFFFFFFFFFFFFFFFFFFFFFFFFFFFFFFFFFFFFFF AND PUSH2 0xCA7 PUSH2 0xAD7 JUMP JUMPDEST PUSH20 0xFFFFFFFFFFFFFFFFFFFFFFFFFFFFFFFFFFFFFFFF AND EQ PUSH2 0xCFD JUMPI PUSH1 0x40 MLOAD PUSH32 0x8C379A000000000000000000000000000000000000000000000000000000000 DUP2 MSTORE PUSH1 0x4 ADD PUSH2 0xCF4 SWAP1 PUSH2 0x317B JUMP JUMPDEST PUSH1 0x40 MLOAD DUP1 SWAP2 SUB SWAP1 REVERT JUMPDEST PUSH2 0xD28 CALLER DUP3 DUP5 PUSH20 0xFFFFFFFFFFFFFFFFFFFFFFFFFFFFFFFFFFFFFFFF AND PUSH2 0xEE1 SWAP1 SWAP3 SWAP2 SWAP1 PUSH4 0xFFFFFFFF AND JUMP JUMPDEST POP POP JUMP JUMPDEST PUSH1 0x1 PUSH1 0x0 SWAP1 SLOAD SWAP1 PUSH2 0x100 EXP SWAP1 DIV PUSH20 0xFFFFFFFFFFFFFFFFFFFFFFFFFFFFFFFFFFFFFFFF AND DUP2 JUMP JUMPDEST PUSH1 0x0 PUSH1 0x1 PUSH1 0x14 SWAP1 SLOAD SWAP1 PUSH2 0x100 EXP SWAP1 DIV PUSH8 0xFFFFFFFFFFFFFFFF AND DUP4 DUP4 PUSH1 0x40 MLOAD PUSH1 0x20 ADD PUSH2 0xD7F SWAP4 SWAP3 SWAP2 SWAP1 PUSH2 0x3054 JUMP JUMPDEST PUSH1 0x40 MLOAD PUSH1 0x20 DUP2 DUP4 SUB SUB DUP2 MSTORE SWAP1 PUSH1 0x40 MSTORE SWAP1 POP PUSH1 0x1 PUSH1 0x14 DUP2 DUP2 SWAP1 SLOAD SWAP1 PUSH2 0x100 EXP SWAP1 DIV PUSH8 0xFFFFFFFFFFFFFFFF AND DUP1 SWAP3 SWAP2 SWAP1 PUSH2 0xDB6 SWAP1 PUSH2 0x30B5 JUMP JUMPDEST SWAP2 SWAP1 PUSH2 0x100 EXP DUP2 SLOAD DUP2 PUSH8 0xFFFFFFFFFFFFFFFF MUL NOT AND SWAP1 DUP4 PUSH8 0xFFFFFFFFFFFFFFFF AND MUL OR SWAP1 SSTORE POP POP PUSH2 0xDE9 DUP6 DUP6 DUP4 CALLVALUE PUSH2 0xF67 JUMP JUMPDEST POP POP POP POP POP JUMP JUMPDEST CALLER PUSH20 0xFFFFFFFFFFFFFFFFFFFFFFFFFFFFFFFFFFFFFFFF AND PUSH2 0xE0F PUSH2 0xAD7 JUMP JUMPDEST PUSH20 0xFFFFFFFFFFFFFFFFFFFFFFFFFFFFFFFFFFFFFFFF AND EQ PUSH2 0xE65 JUMPI PUSH1 0x40 MLOAD PUSH32 0x8C379A000000000000000000000000000000000000000000000000000000000 DUP2 MSTORE PUSH1 0x4 ADD PUSH2 0xE5C SWAP1 PUSH2 0x317B JUMP JUMPDEST PUSH1 0x40 MLOAD DUP1 SWAP2 SUB SWAP1 REVERT JUMPDEST PUSH1 0x0 PUSH20 0xFFFFFFFFFFFFFFFFFFFFFFFFFFFFFFFFFFFFFFFF AND DUP2 PUSH20 0xFFFFFFFFFFFFFFFFFFFFFFFFFFFFFFFFFFFFFFFF AND EQ ISZERO PUSH2 0xED5 JUMPI PUSH1 0x40 MLOAD PUSH32 0x8C379A000000000000000000000000000000000000000000000000000000000 DUP2 MSTORE PUSH1 0x4 ADD PUSH2 0xECC SWAP1 PUSH2 0x3440 JUMP JUMPDEST PUSH1 0x40 MLOAD DUP1 SWAP2 SUB SWAP1 REVERT JUMPDEST PUSH2 0xEDE DUP2 PUSH2 0x10A1 JUMP JUMPDEST POP JUMP JUMPDEST PUSH2 0xF62 DUP4 PUSH4 0xA9059CBB PUSH1 0xE0 SHL DUP5 DUP5 PUSH1 0x40 MLOAD PUSH1 0x24 ADD PUSH2 0xF00 SWAP3 SWAP2 SWAP1 PUSH2 0x3460 JUMP JUMPDEST PUSH1 0x40 MLOAD PUSH1 0x20 DUP2 DUP4 SUB SUB DUP2 MSTORE SWAP1 PUSH1 0x40 MSTORE SWAP1 PUSH28 0xFFFFFFFFFFFFFFFFFFFFFFFFFFFFFFFFFFFFFFFFFFFFFFFFFFFFFFFF NOT AND PUSH1 0x20 DUP3 ADD DUP1 MLOAD PUSH28 0xFFFFFFFFFFFFFFFFFFFFFFFFFFFFFFFFFFFFFFFFFFFFFFFFFFFFFFFF DUP4 DUP2 DUP4 AND OR DUP4 MSTORE POP POP POP POP PUSH2 0x1165 JUMP JUMPDEST POP POP POP JUMP JUMPDEST PUSH2 0xF96 DUP5 DUP5 DUP5 PUSH1 0x1 PUSH1 0x0 SWAP1 SLOAD SWAP1 PUSH2 0x100 EXP SWAP1 DIV PUSH20 0xFFFFFFFFFFFFFFFFFFFFFFFFFFFFFFFFFFFFFFFF AND DUP6 PUSH2 0x122C JUMP JUMPDEST POP POP POP POP JUMP JUMPDEST PUSH2 0x101F DUP5 PUSH4 0x23B872DD PUSH1 0xE0 SHL DUP6 DUP6 DUP6 PUSH1 0x40 MLOAD PUSH1 0x24 ADD PUSH2 0xFBD SWAP4 SWAP3 SWAP2 SWAP1 PUSH2 0x3489 JUMP JUMPDEST PUSH1 0x40 MLOAD PUSH1 0x20 DUP2 DUP4 SUB SUB DUP2 MSTORE SWAP1 PUSH1 0x40 MSTORE SWAP1 PUSH28 0xFFFFFFFFFFFFFFFFFFFFFFFFFFFFFFFFFFFFFFFFFFFFFFFFFFFFFFFF NOT AND PUSH1 0x20 DUP3 ADD DUP1 MLOAD PUSH28 0xFFFFFFFFFFFFFFFFFFFFFFFFFFFFFFFFFFFFFFFFFFFFFFFFFFFFFFFF DUP4 DUP2 DUP4 AND OR DUP4 MSTORE POP POP POP POP PUSH2 0x1165 JUMP JUMPDEST POP POP POP POP JUMP JUMPDEST PUSH1 0x0 PUSH2 0x105B DUP11 DUP11 DUP11 DUP11 DUP11 DUP11 DUP11 DUP11 PUSH1 0x1 PUSH1 0x0 SWAP1 SLOAD SWAP1 PUSH2 0x100 EXP SWAP1 DIV PUSH20 0xFFFFFFFFFFFFFFFFFFFFFFFFFFFFFFFFFFFFFFFF AND DUP12 PUSH2 0x12A3 JUMP JUMPDEST SWAP1 POP SWAP10 SWAP9 POP POP POP POP POP POP POP POP POP JUMP JUMPDEST PUSH2 0x109A DUP6 DUP6 DUP6 DUP6 PUSH1 0x1 PUSH1 0x0 SWAP1 SLOAD SWAP1 PUSH2 0x100 EXP SWAP1 DIV PUSH20 0xFFFFFFFFFFFFFFFFFFFFFFFFFFFFFFFFFFFFFFFF AND DUP7 PUSH2 0x134E JUMP JUMPDEST POP POP POP POP POP JUMP JUMPDEST PUSH1 0x0 DUP1 PUSH1 0x0 SWAP1 SLOAD SWAP1 PUSH2 0x100 EXP SWAP1 DIV PUSH20 0xFFFFFFFFFFFFFFFFFFFFFFFFFFFFFFFFFFFFFFFF AND SWAP1 POP DUP2 PUSH1 0x0 DUP1 PUSH2 0x100 EXP DUP2 SLOAD DUP2 PUSH20 0xFFFFFFFFFFFFFFFFFFFFFFFFFFFFFFFFFFFFFFFF MUL NOT AND SWAP1 DUP4 PUSH20 0xFFFFFFFFFFFFFFFFFFFFFFFFFFFFFFFFFFFFFFFF AND MUL OR SWAP1 SSTORE POP DUP2 PUSH20 0xFFFFFFFFFFFFFFFFFFFFFFFFFFFFFFFFFFFFFFFF AND DUP2 PUSH20 0xFFFFFFFFFFFFFFFFFFFFFFFFFFFFFFFFFFFFFFFF AND PUSH32 0x8BE0079C531659141344CD1FD0A4F28419497F9722A3DAAFE3B4186F6B6457E0 PUSH1 0x40 MLOAD PUSH1 0x40 MLOAD DUP1 SWAP2 SUB SWAP1 LOG3 POP POP JUMP JUMPDEST PUSH1 0x0 PUSH2 0x11C7 DUP3 PUSH1 0x40 MLOAD DUP1 PUSH1 0x40 ADD PUSH1 0x40 MSTORE DUP1 PUSH1 0x20 DUP2 MSTORE PUSH1 0x20 ADD PUSH32 0x5361666545524332303A206C6F772D6C6576656C2063616C6C206661696C6564 DUP2 MSTORE POP DUP6 PUSH20 0xFFFFFFFFFFFFFFFFFFFFFFFFFFFFFFFFFFFFFFFF AND PUSH2 0x13C8 SWAP1 SWAP3 SWAP2 SWAP1 PUSH4 0xFFFFFFFF AND JUMP JUMPDEST SWAP1 POP PUSH1 0x0 DUP2 MLOAD GT ISZERO PUSH2 0x1227 JUMPI DUP1 DUP1 PUSH1 0x20 ADD SWAP1 MLOAD DUP2 ADD SWAP1 PUSH2 0x11E7 SWAP2 SWAP1 PUSH2 0x34F8 JUMP JUMPDEST PUSH2 0x1226 JUMPI PUSH1 0x40 MLOAD PUSH32 0x8C379A000000000000000000000000000000000000000000000000000000000 DUP2 MSTORE PUSH1 0x4 ADD PUSH2 0x121D SWAP1 PUSH2 0x3597 JUMP JUMPDEST PUSH1 0x40 MLOAD DUP1 SWAP2 SUB SWAP1 REVERT JUMPDEST JUMPDEST POP POP POP JUMP JUMPDEST DUP2 PUSH20 0xFFFFFFFFFFFFFFFFFFFFFFFFFFFFFFFFFFFFFFFF AND PUSH4 0x9F3CE55A DUP3 DUP8 DUP8 DUP8 PUSH1 0x40 MLOAD DUP6 PUSH4 0xFFFFFFFF AND PUSH1 0xE0 SHL DUP2 MSTORE PUSH1 0x4 ADD PUSH2 0x126A SWAP4 SWAP3 SWAP2 SWAP1 PUSH2 0x35F2 JUMP JUMPDEST PUSH1 0x0 PUSH1 0x40 MLOAD DUP1 DUP4 SUB DUP2 DUP6 DUP9 DUP1 EXTCODESIZE ISZERO DUP1 ISZERO PUSH2 0x1283 JUMPI PUSH1 0x0 DUP1 REVERT JUMPDEST POP GAS CALL ISZERO DUP1 ISZERO PUSH2 0x1297 JUMPI RETURNDATASIZE PUSH1 0x0 DUP1 RETURNDATACOPY RETURNDATASIZE PUSH1 0x0 REVERT JUMPDEST POP POP POP POP POP POP POP POP POP POP JUMP JUMPDEST PUSH1 0x0 DUP1 PUSH1 0x0 PUSH2 0x12B8 DUP14 DUP14 DUP14 DUP14 DUP14 DUP14 DUP13 DUP13 PUSH2 0x13E0 JUMP JUMPDEST SWAP2 POP SWAP2 POP PUSH1 0x0 DUP8 MLOAD GT ISZERO PUSH2 0x133B JUMPI DUP5 PUSH20 0xFFFFFFFFFFFFFFFFFFFFFFFFFFFFFFFFFFFFFFFF AND PUSH4 0x4289FBB3 DUP6 DUP16 DUP14 DUP6 DUP8 DUP14 PUSH1 0x40 MLOAD DUP8 PUSH4 0xFFFFFFFF AND PUSH1 0xE0 SHL DUP2 MSTORE PUSH1 0x4 ADD PUSH2 0x1308 SWAP6 SWAP5 SWAP4 SWAP3 SWAP2 SWAP1 PUSH2 0x3649 JUMP JUMPDEST PUSH1 0x0 PUSH1 0x40 MLOAD DUP1 DUP4 SUB DUP2 DUP6 DUP9 DUP1 EXTCODESIZE ISZERO DUP1 ISZERO PUSH2 0x1321 JUMPI PUSH1 0x0 DUP1 REVERT JUMPDEST POP GAS CALL ISZERO DUP1 ISZERO PUSH2 0x1335 JUMPI RETURNDATASIZE PUSH1 0x0 DUP1 RETURNDATACOPY RETURNDATASIZE PUSH1 0x0 REVERT JUMPDEST POP POP POP POP POP JUMPDEST DUP2 SWAP3 POP POP POP SWAP11 SWAP10 POP POP POP POP POP POP POP POP POP POP JUMP JUMPDEST DUP2 PUSH20 0xFFFFFFFFFFFFFFFFFFFFFFFFFFFFFFFFFFFFFFFF AND PUSH4 0x7D7A101D DUP3 DUP9 DUP9 DUP9 DUP9 PUSH1 0x40 MLOAD DUP7 PUSH4 0xFFFFFFFF AND PUSH1 0xE0 SHL DUP2 MSTORE PUSH1 0x4 ADD PUSH2 0x138E SWAP5 SWAP4 SWAP3 SWAP2 SWAP1 PUSH2 0x36A3 JUMP JUMPDEST PUSH1 0x0 PUSH1 0x40 MLOAD DUP1 DUP4 SUB DUP2 DUP6 DUP9 DUP1 EXTCODESIZE ISZERO DUP1 ISZERO PUSH2 0x13A7 JUMPI PUSH1 0x0 DUP1 REVERT JUMPDEST POP GAS CALL ISZERO DUP1 ISZERO PUSH2 0x13BB JUMPI RETURNDATASIZE PUSH1 0x0 DUP1 RETURNDATACOPY RETURNDATASIZE PUSH1 0x0 REVERT JUMPDEST POP POP POP POP POP POP POP POP POP POP POP JUMP JUMPDEST PUSH1 0x60 PUSH2 0x13D7 DUP5 DUP5 PUSH1 0x0 DUP6 PUSH2 0x1D25 JUMP JUMPDEST SWAP1 POP SWAP4 SWAP3 POP POP POP JUMP JUMPDEST PUSH1 0x0 DUP1 PUSH1 0x1 PUSH1 0x6 DUP2 GT ISZERO PUSH2 0x13F7 JUMPI PUSH2 0x13F6 PUSH2 0x23BD JUMP JUMPDEST JUMPDEST DUP5 PUSH1 0x6 DUP2 GT ISZERO PUSH2 0x140A JUMPI PUSH2 0x1409 PUSH2 0x23BD JUMP JUMPDEST JUMPDEST EQ ISZERO PUSH2 0x1544 JUMPI DUP3 PUSH20 0xFFFFFFFFFFFFFFFFFFFFFFFFFFFFFFFFFFFFFFFF AND PUSH4 0x82980DC4 PUSH1 0x40 MLOAD DUP2 PUSH4 0xFFFFFFFF AND PUSH1 0xE0 SHL DUP2 MSTORE PUSH1 0x4 ADD PUSH1 0x20 PUSH1 0x40 MLOAD DUP1 DUP4 SUB DUP2 DUP7 DUP1 EXTCODESIZE ISZERO DUP1 ISZERO PUSH2 0x1456 JUMPI PUSH1 0x0 DUP1 REVERT JUMPDEST POP GAS STATICCALL ISZERO DUP1 ISZERO PUSH2 0x146A JUMPI RETURNDATASIZE PUSH1 0x0 DUP1 RETURNDATACOPY RETURNDATASIZE PUSH1 0x0 REVERT JUMPDEST POP POP POP POP PUSH1 0x40 MLOAD RETURNDATASIZE PUSH1 0x1F NOT PUSH1 0x1F DUP3 ADD AND DUP3 ADD DUP1 PUSH1 0x40 MSTORE POP DUP2 ADD SWAP1 PUSH2 0x148E SWAP2 SWAP1 PUSH2 0x36FF JUMP JUMPDEST SWAP1 POP PUSH2 0x14BB DUP2 DUP10 DUP12 PUSH20 0xFFFFFFFFFFFFFFFFFFFFFFFFFFFFFFFFFFFFFFFF AND PUSH2 0x1E39 SWAP1 SWAP3 SWAP2 SWAP1 PUSH4 0xFFFFFFFF AND JUMP JUMPDEST DUP1 PUSH20 0xFFFFFFFFFFFFFFFFFFFFFFFFFFFFFFFFFFFFFFFF AND PUSH4 0xA5977FBB DUP12 DUP12 DUP12 DUP12 DUP12 DUP12 PUSH1 0x40 MLOAD DUP8 PUSH4 0xFFFFFFFF AND PUSH1 0xE0 SHL DUP2 MSTORE PUSH1 0x4 ADD PUSH2 0x14FE SWAP7 SWAP6 SWAP5 SWAP4 SWAP3 SWAP2 SWAP1 PUSH2 0x373B JUMP JUMPDEST PUSH1 0x0 PUSH1 0x40 MLOAD DUP1 DUP4 SUB DUP2 PUSH1 0x0 DUP8 DUP1 EXTCODESIZE ISZERO DUP1 ISZERO PUSH2 0x1518 JUMPI PUSH1 0x0 DUP1 REVERT JUMPDEST POP GAS CALL ISZERO DUP1 ISZERO PUSH2 0x152C JUMPI RETURNDATASIZE PUSH1 0x0 DUP1 RETURNDATACOPY RETURNDATASIZE PUSH1 0x0 REVERT JUMPDEST POP POP POP POP PUSH2 0x153D DUP11 DUP11 DUP11 DUP11 DUP11 PUSH2 0x1F5A JUMP JUMPDEST SWAP2 POP PUSH2 0x1D18 JUMP JUMPDEST PUSH1 0x2 PUSH1 0x6 DUP2 GT ISZERO PUSH2 0x1558 JUMPI PUSH2 0x1557 PUSH2 0x23BD JUMP JUMPDEST JUMPDEST DUP5 PUSH1 0x6 DUP2 GT ISZERO PUSH2 0x156B JUMPI PUSH2 0x156A PUSH2 0x23BD JUMP JUMPDEST JUMPDEST EQ ISZERO PUSH2 0x16A3 JUMPI DUP3 PUSH20 0xFFFFFFFFFFFFFFFFFFFFFFFFFFFFFFFFFFFFFFFF AND PUSH4 0xD8257D17 PUSH1 0x40 MLOAD DUP2 PUSH4 0xFFFFFFFF AND PUSH1 0xE0 SHL DUP2 MSTORE PUSH1 0x4 ADD PUSH1 0x20 PUSH1 0x40 MLOAD DUP1 DUP4 SUB DUP2 DUP7 DUP1 EXTCODESIZE ISZERO DUP1 ISZERO PUSH2 0x15B7 JUMPI PUSH1 0x0 DUP1 REVERT JUMPDEST POP GAS STATICCALL ISZERO DUP1 ISZERO PUSH2 0x15CB JUMPI RETURNDATASIZE PUSH1 0x0 DUP1 RETURNDATACOPY RETURNDATASIZE PUSH1 0x0 REVERT JUMPDEST POP POP POP POP PUSH1 0x40 MLOAD RETURNDATASIZE PUSH1 0x1F NOT PUSH1 0x1F DUP3 ADD AND DUP3 ADD DUP1 PUSH1 0x40 MSTORE POP DUP2 ADD SWAP1 PUSH2 0x15EF SWAP2 SWAP1 PUSH2 0x36FF JUMP JUMPDEST SWAP1 POP PUSH2 0x161C DUP2 DUP10 DUP12 PUSH20 0xFFFFFFFFFFFFFFFFFFFFFFFFFFFFFFFFFFFFFFFF AND PUSH2 0x1E39 SWAP1 SWAP3 SWAP2 SWAP1 PUSH4 0xFFFFFFFF AND JUMP JUMPDEST DUP1 PUSH20 0xFFFFFFFFFFFFFFFFFFFFFFFFFFFFFFFFFFFFFFFF AND PUSH4 0x23463624 DUP11 DUP11 DUP11 DUP15 DUP12 PUSH1 0x40 MLOAD DUP7 PUSH4 0xFFFFFFFF AND PUSH1 0xE0 SHL DUP2 MSTORE PUSH1 0x4 ADD PUSH2 0x165D SWAP6 SWAP5 SWAP4 SWAP3 SWAP2 SWAP1 PUSH2 0x379C JUMP JUMPDEST PUSH1 0x0 PUSH1 0x40 MLOAD DUP1 DUP4 SUB DUP2 PUSH1 0x0 DUP8 DUP1 EXTCODESIZE ISZERO DUP1 ISZERO PUSH2 0x1677 JUMPI PUSH1 0x0 DUP1 REVERT JUMPDEST POP GAS CALL ISZERO DUP1 ISZERO PUSH2 0x168B JUMPI RETURNDATASIZE PUSH1 0x0 DUP1 RETURNDATACOPY RETURNDATASIZE PUSH1 0x0 REVERT JUMPDEST POP POP POP POP PUSH2 0x169C DUP11 DUP11 DUP11 DUP11 DUP11 PUSH2 0x1F9A JUMP JUMPDEST SWAP2 POP PUSH2 0x1D17 JUMP JUMPDEST PUSH1 0x3 PUSH1 0x6 DUP2 GT ISZERO PUSH2 0x16B7 JUMPI PUSH2 0x16B6 PUSH2 0x23BD JUMP JUMPDEST JUMPDEST DUP5 PUSH1 0x6 DUP2 GT ISZERO PUSH2 0x16CA JUMPI PUSH2 0x16C9 PUSH2 0x23BD JUMP JUMPDEST JUMPDEST EQ ISZERO PUSH2 0x182B JUMPI DUP3 PUSH20 0xFFFFFFFFFFFFFFFFFFFFFFFFFFFFFFFFFFFFFFFF AND PUSH4 0xDFA2DBAF PUSH1 0x40 MLOAD DUP2 PUSH4 0xFFFFFFFF AND PUSH1 0xE0 SHL DUP2 MSTORE PUSH1 0x4 ADD PUSH1 0x20 PUSH1 0x40 MLOAD DUP1 DUP4 SUB DUP2 DUP7 DUP1 EXTCODESIZE ISZERO DUP1 ISZERO PUSH2 0x1716 JUMPI PUSH1 0x0 DUP1 REVERT JUMPDEST POP GAS STATICCALL ISZERO DUP1 ISZERO PUSH2 0x172A JUMPI RETURNDATASIZE PUSH1 0x0 DUP1 RETURNDATACOPY RETURNDATASIZE PUSH1 0x0 REVERT JUMPDEST POP POP POP POP PUSH1 0x40 MLOAD RETURNDATASIZE PUSH1 0x1F NOT PUSH1 0x1F DUP3 ADD AND DUP3 ADD DUP1 PUSH1 0x40 MSTORE POP DUP2 ADD SWAP1 PUSH2 0x174E SWAP2 SWAP1 PUSH2 0x36FF JUMP JUMPDEST SWAP1 POP PUSH2 0x177B DUP2 DUP10 DUP12 PUSH20 0xFFFFFFFFFFFFFFFFFFFFFFFFFFFFFFFFFFFFFFFF AND PUSH2 0x1E39 SWAP1 SWAP3 SWAP2 SWAP1 PUSH4 0xFFFFFFFF AND JUMP JUMPDEST DUP1 PUSH20 0xFFFFFFFFFFFFFFFFFFFFFFFFFFFFFFFFFFFFFFFF AND PUSH4 0xDE790C7E DUP11 DUP11 DUP14 DUP11 PUSH1 0x40 MLOAD DUP6 PUSH4 0xFFFFFFFF AND PUSH1 0xE0 SHL DUP2 MSTORE PUSH1 0x4 ADD PUSH2 0x17BA SWAP5 SWAP4 SWAP3 SWAP2 SWAP1 PUSH2 0x37EF JUMP JUMPDEST PUSH1 0x0 PUSH1 0x40 MLOAD DUP1 DUP4 SUB DUP2 PUSH1 0x0 DUP8 DUP1 EXTCODESIZE ISZERO DUP1 ISZERO PUSH2 0x17D4 JUMPI PUSH1 0x0 DUP1 REVERT JUMPDEST POP GAS CALL ISZERO DUP1 ISZERO PUSH2 0x17E8 JUMPI RETURNDATASIZE PUSH1 0x0 DUP1 RETURNDATACOPY RETURNDATASIZE PUSH1 0x0 REVERT JUMPDEST POP POP POP POP PUSH2 0x1818 DUP2 PUSH1 0x0 DUP12 PUSH20 0xFFFFFFFFFFFFFFFFFFFFFFFFFFFFFFFFFFFFFFFF AND PUSH2 0x1FDA SWAP1 SWAP3 SWAP2 SWAP1 PUSH4 0xFFFFFFFF AND JUMP JUMPDEST PUSH2 0x1824 DUP11 DUP11 DUP11 DUP10 PUSH2 0x2138 JUMP JUMPDEST SWAP2 POP PUSH2 0x1D16 JUMP JUMPDEST PUSH1 0x4 PUSH1 0x6 DUP2 GT ISZERO PUSH2 0x183F JUMPI PUSH2 0x183E PUSH2 0x23BD JUMP JUMPDEST JUMPDEST DUP5 PUSH1 0x6 DUP2 GT ISZERO PUSH2 0x1852 JUMPI PUSH2 0x1851 PUSH2 0x23BD JUMP JUMPDEST JUMPDEST EQ ISZERO PUSH2 0x199D JUMPI DUP3 PUSH20 0xFFFFFFFFFFFFFFFFFFFFFFFFFFFFFFFFFFFFFFFF AND PUSH4 0xC66A9C5A PUSH1 0x40 MLOAD DUP2 PUSH4 0xFFFFFFFF AND PUSH1 0xE0 SHL DUP2 MSTORE PUSH1 0x4 ADD PUSH1 0x20 PUSH1 0x40 MLOAD DUP1 DUP4 SUB DUP2 DUP7 DUP1 EXTCODESIZE ISZERO DUP1 ISZERO PUSH2 0x189E JUMPI PUSH1 0x0 DUP1 REVERT JUMPDEST POP GAS STATICCALL ISZERO DUP1 ISZERO PUSH2 0x18B2 JUMPI RETURNDATASIZE PUSH1 0x0 DUP1 RETURNDATACOPY RETURNDATASIZE PUSH1 0x0 REVERT JUMPDEST POP POP POP POP PUSH1 0x40 MLOAD RETURNDATASIZE PUSH1 0x1F NOT PUSH1 0x1F DUP3 ADD AND DUP3 ADD DUP1 PUSH1 0x40 MSTORE POP DUP2 ADD SWAP1 PUSH2 0x18D6 SWAP2 SWAP1 PUSH2 0x36FF JUMP JUMPDEST SWAP1 POP PUSH2 0x1903 DUP2 DUP10 DUP12 PUSH20 0xFFFFFFFFFFFFFFFFFFFFFFFFFFFFFFFFFFFFFFFF AND PUSH2 0x1E39 SWAP1 SWAP3 SWAP2 SWAP1 PUSH4 0xFFFFFFFF AND JUMP JUMPDEST DUP1 PUSH20 0xFFFFFFFFFFFFFFFFFFFFFFFFFFFFFFFFFFFFFFFF AND PUSH4 0x23463624 DUP11 DUP11 DUP11 DUP15 DUP12 PUSH1 0x40 MLOAD DUP7 PUSH4 0xFFFFFFFF AND PUSH1 0xE0 SHL DUP2 MSTORE PUSH1 0x4 ADD PUSH2 0x1944 SWAP6 SWAP5 SWAP4 SWAP3 SWAP2 SWAP1 PUSH2 0x379C JUMP JUMPDEST PUSH1 0x20 PUSH1 0x40 MLOAD DUP1 DUP4 SUB DUP2 PUSH1 0x0 DUP8 DUP1 EXTCODESIZE ISZERO DUP1 ISZERO PUSH2 0x195E JUMPI PUSH1 0x0 DUP1 REVERT JUMPDEST POP GAS CALL ISZERO DUP1 ISZERO PUSH2 0x1972 JUMPI RETURNDATASIZE PUSH1 0x0 DUP1 RETURNDATACOPY RETURNDATASIZE PUSH1 0x0 REVERT JUMPDEST POP POP POP POP PUSH1 0x40 MLOAD RETURNDATASIZE PUSH1 0x1F NOT PUSH1 0x1F DUP3 ADD AND DUP3 ADD DUP1 PUSH1 0x40 MSTORE POP DUP2 ADD SWAP1 PUSH2 0x1996 SWAP2 SWAP1 PUSH2 0x3860 JUMP JUMPDEST SWAP2 POP PUSH2 0x1D15 JUMP JUMPDEST PUSH1 0x5 PUSH1 0x6 DUP2 GT ISZERO PUSH2 0x19B1 JUMPI PUSH2 0x19B0 PUSH2 0x23BD JUMP JUMPDEST JUMPDEST DUP5 PUSH1 0x6 DUP2 GT ISZERO PUSH2 0x19C4 JUMPI PUSH2 0x19C3 PUSH2 0x23BD JUMP JUMPDEST JUMPDEST EQ ISZERO PUSH2 0x1B3B JUMPI DUP3 PUSH20 0xFFFFFFFFFFFFFFFFFFFFFFFFFFFFFFFFFFFFFFFF AND PUSH4 0x95B12C27 PUSH1 0x40 MLOAD DUP2 PUSH4 0xFFFFFFFF AND PUSH1 0xE0 SHL DUP2 MSTORE PUSH1 0x4 ADD PUSH1 0x20 PUSH1 0x40 MLOAD DUP1 DUP4 SUB DUP2 DUP7 DUP1 EXTCODESIZE ISZERO DUP1 ISZERO PUSH2 0x1A10 JUMPI PUSH1 0x0 DUP1 REVERT JUMPDEST POP GAS STATICCALL ISZERO DUP1 ISZERO PUSH2 0x1A24 JUMPI RETURNDATASIZE PUSH1 0x0 DUP1 RETURNDATACOPY RETURNDATASIZE PUSH1 0x0 REVERT JUMPDEST POP POP POP POP PUSH1 0x40 MLOAD RETURNDATASIZE PUSH1 0x1F NOT PUSH1 0x1F DUP3 ADD AND DUP3 ADD DUP1 PUSH1 0x40 MSTORE POP DUP2 ADD SWAP1 PUSH2 0x1A48 SWAP2 SWAP1 PUSH2 0x36FF JUMP JUMPDEST SWAP1 POP PUSH2 0x1A75 DUP2 DUP10 DUP12 PUSH20 0xFFFFFFFFFFFFFFFFFFFFFFFFFFFFFFFFFFFFFFFF AND PUSH2 0x1E39 SWAP1 SWAP3 SWAP2 SWAP1 PUSH4 0xFFFFFFFF AND JUMP JUMPDEST DUP1 PUSH20 0xFFFFFFFFFFFFFFFFFFFFFFFFFFFFFFFFFFFFFFFF AND PUSH4 0xA0029301 DUP11 DUP11 DUP11 DUP15 DUP12 PUSH1 0x40 MLOAD DUP7 PUSH4 0xFFFFFFFF AND PUSH1 0xE0 SHL DUP2 MSTORE PUSH1 0x4 ADD PUSH2 0x1AB6 SWAP6 SWAP5 SWAP4 SWAP3 SWAP2 SWAP1 PUSH2 0x379C JUMP JUMPDEST PUSH1 0x20 PUSH1 0x40 MLOAD DUP1 DUP4 SUB DUP2 PUSH1 0x0 DUP8 DUP1 EXTCODESIZE ISZERO DUP1 ISZERO PUSH2 0x1AD0 JUMPI PUSH1 0x0 DUP1 REVERT JUMPDEST POP GAS CALL ISZERO DUP1 ISZERO PUSH2 0x1AE4 JUMPI RETURNDATASIZE PUSH1 0x0 DUP1 RETURNDATACOPY RETURNDATASIZE PUSH1 0x0 REVERT JUMPDEST POP POP POP POP PUSH1 0x40 MLOAD RETURNDATASIZE PUSH1 0x1F NOT PUSH1 0x1F DUP3 ADD AND DUP3 ADD DUP1 PUSH1 0x40 MSTORE POP DUP2 ADD SWAP1 PUSH2 0x1B08 SWAP2 SWAP1 PUSH2 0x3860 JUMP JUMPDEST SWAP2 POP PUSH2 0x1B36 DUP2 PUSH1 0x0 DUP12 PUSH20 0xFFFFFFFFFFFFFFFFFFFFFFFFFFFFFFFFFFFFFFFF AND PUSH2 0x1FDA SWAP1 SWAP3 SWAP2 SWAP1 PUSH4 0xFFFFFFFF AND JUMP JUMPDEST PUSH2 0x1D14 JUMP JUMPDEST PUSH1 0x6 DUP1 DUP2 GT ISZERO PUSH2 0x1B4E JUMPI PUSH2 0x1B4D PUSH2 0x23BD JUMP JUMPDEST JUMPDEST DUP5 PUSH1 0x6 DUP2 GT ISZERO PUSH2 0x1B61 JUMPI PUSH2 0x1B60 PUSH2 0x23BD JUMP JUMPDEST JUMPDEST EQ ISZERO PUSH2 0x1CD8 JUMPI DUP3 PUSH20 0xFFFFFFFFFFFFFFFFFFFFFFFFFFFFFFFFFFFFFFFF AND PUSH4 0x95B12C27 PUSH1 0x40 MLOAD DUP2 PUSH4 0xFFFFFFFF AND PUSH1 0xE0 SHL DUP2 MSTORE PUSH1 0x4 ADD PUSH1 0x20 PUSH1 0x40 MLOAD DUP1 DUP4 SUB DUP2 DUP7 DUP1 EXTCODESIZE ISZERO DUP1 ISZERO PUSH2 0x1BAD JUMPI PUSH1 0x0 DUP1 REVERT JUMPDEST POP GAS STATICCALL ISZERO DUP1 ISZERO PUSH2 0x1BC1 JUMPI RETURNDATASIZE PUSH1 0x0 DUP1 RETURNDATACOPY RETURNDATASIZE PUSH1 0x0 REVERT JUMPDEST POP POP POP POP PUSH1 0x40 MLOAD RETURNDATASIZE PUSH1 0x1F NOT PUSH1 0x1F DUP3 ADD AND DUP3 ADD DUP1 PUSH1 0x40 MSTORE POP DUP2 ADD SWAP1 PUSH2 0x1BE5 SWAP2 SWAP1 PUSH2 0x36FF JUMP JUMPDEST SWAP1 POP PUSH2 0x1C12 DUP2 DUP10 DUP12 PUSH20 0xFFFFFFFFFFFFFFFFFFFFFFFFFFFFFFFFFFFFFFFF AND PUSH2 0x1E39 SWAP1 SWAP3 SWAP2 SWAP1 PUSH4 0xFFFFFFFF AND JUMP JUMPDEST DUP1 PUSH20 0xFFFFFFFFFFFFFFFFFFFFFFFFFFFFFFFFFFFFFFFF AND PUSH4 0x9E422C33 DUP11 DUP11 DUP11 DUP15 DUP12 PUSH1 0x40 MLOAD DUP7 PUSH4 0xFFFFFFFF AND PUSH1 0xE0 SHL DUP2 MSTORE PUSH1 0x4 ADD PUSH2 0x1C53 SWAP6 SWAP5 SWAP4 SWAP3 SWAP2 SWAP1 PUSH2 0x379C JUMP JUMPDEST PUSH1 0x20 PUSH1 0x40 MLOAD DUP1 DUP4 SUB DUP2 PUSH1 0x0 DUP8 DUP1 EXTCODESIZE ISZERO DUP1 ISZERO PUSH2 0x1C6D JUMPI PUSH1 0x0 DUP1 REVERT JUMPDEST POP GAS CALL ISZERO DUP1 ISZERO PUSH2 0x1C81 JUMPI RETURNDATASIZE PUSH1 0x0 DUP1 RETURNDATACOPY RETURNDATASIZE PUSH1 0x0 REVERT JUMPDEST POP POP POP POP PUSH1 0x40 MLOAD RETURNDATASIZE PUSH1 0x1F NOT PUSH1 0x1F DUP3 ADD AND DUP3 ADD DUP1 PUSH1 0x40 MSTORE POP DUP2 ADD SWAP1 PUSH2 0x1CA5 SWAP2 SWAP1 PUSH2 0x3860 JUMP JUMPDEST SWAP2 POP PUSH2 0x1CD3 DUP2 PUSH1 0x0 DUP12 PUSH20 0xFFFFFFFFFFFFFFFFFFFFFFFFFFFFFFFFFFFFFFFF AND PUSH2 0x1FDA SWAP1 SWAP3 SWAP2 SWAP1 PUSH4 0xFFFFFFFF AND JUMP JUMPDEST PUSH2 0x1D13 JUMP JUMPDEST PUSH1 0x40 MLOAD PUSH32 0x8C379A000000000000000000000000000000000000000000000000000000000 DUP2 MSTORE PUSH1 0x4 ADD PUSH2 0x1D0A SWAP1 PUSH2 0x38D9 JUMP JUMPDEST PUSH1 0x40 MLOAD DUP1 SWAP2 SUB SWAP1 REVERT JUMPDEST JUMPDEST JUMPDEST JUMPDEST JUMPDEST JUMPDEST SWAP9 POP SWAP9 SWAP7 POP POP POP POP POP POP POP JUMP JUMPDEST PUSH1 0x60 DUP3 SELFBALANCE LT ISZERO PUSH2 0x1D6A JUMPI PUSH1 0x40 MLOAD PUSH32 0x8C379A000000000000000000000000000000000000000000000000000000000 DUP2 MSTORE PUSH1 0x4 ADD PUSH2 0x1D61 SWAP1 PUSH2 0x396B JUMP JUMPDEST PUSH1 0x40 MLOAD DUP1 SWAP2 SUB SWAP1 REVERT JUMPDEST PUSH2 0x1D73 DUP6 PUSH2 0x2175 JUMP JUMPDEST PUSH2 0x1DB2 JUMPI PUSH1 0x40 MLOAD PUSH32 0x8C379A000000000000000000000000000000000000000000000000000000000 DUP2 MSTORE PUSH1 0x4 ADD PUSH2 0x1DA9 SWAP1 PUSH2 0x39D7 JUMP JUMPDEST PUSH1 0x40 MLOAD DUP1 SWAP2 SUB SWAP1 REVERT JUMPDEST PUSH1 0x0 DUP1 DUP7 PUSH20 0xFFFFFFFFFFFFFFFFFFFFFFFFFFFFFFFFFFFFFFFF AND DUP6 DUP8 PUSH1 0x40 MLOAD PUSH2 0x1DDB SWAP2 SWAP1 PUSH2 0x3A33 JUMP JUMPDEST PUSH1 0x0 PUSH1 0x40 MLOAD DUP1 DUP4 SUB DUP2 DUP6 DUP8 GAS CALL SWAP3 POP POP POP RETURNDATASIZE DUP1 PUSH1 0x0 DUP2 EQ PUSH2 0x1E18 JUMPI PUSH1 0x40 MLOAD SWAP2 POP PUSH1 0x1F NOT PUSH1 0x3F RETURNDATASIZE ADD AND DUP3 ADD PUSH1 0x40 MSTORE RETURNDATASIZE DUP3 MSTORE RETURNDATASIZE PUSH1 0x0 PUSH1 0x20 DUP5 ADD RETURNDATACOPY PUSH2 0x1E1D JUMP JUMPDEST PUSH1 0x60 SWAP2 POP JUMPDEST POP SWAP2 POP SWAP2 POP PUSH2 0x1E2D DUP3 DUP3 DUP7 PUSH2 0x2198 JUMP JUMPDEST SWAP3 POP POP POP SWAP5 SWAP4 POP POP POP POP JUMP JUMPDEST PUSH1 0x0 DUP2 DUP5 PUSH20 0xFFFFFFFFFFFFFFFFFFFFFFFFFFFFFFFFFFFFFFFF AND PUSH4 0xDD62ED3E ADDRESS DUP7 PUSH1 0x40 MLOAD DUP4 PUSH4 0xFFFFFFFF AND PUSH1 0xE0 SHL DUP2 MSTORE PUSH1 0x4 ADD PUSH2 0x1E77 SWAP3 SWAP2 SWAP1 PUSH2 0x3A4A JUMP JUMPDEST PUSH1 0x20 PUSH1 0x40 MLOAD DUP1 DUP4 SUB DUP2 DUP7 DUP1 EXTCODESIZE ISZERO DUP1 ISZERO PUSH2 0x1E8F JUMPI PUSH1 0x0 DUP1 REVERT JUMPDEST POP GAS STATICCALL ISZERO DUP1 ISZERO PUSH2 0x1EA3 JUMPI RETURNDATASIZE PUSH1 0x0 DUP1 RETURNDATACOPY RETURNDATASIZE PUSH1 0x0 REVERT JUMPDEST POP POP POP POP PUSH1 0x40 MLOAD RETURNDATASIZE PUSH1 0x1F NOT PUSH1 0x1F DUP3 ADD AND DUP3 ADD DUP1 PUSH1 0x40 MSTORE POP DUP2 ADD SWAP1 PUSH2 0x1EC7 SWAP2 SWAP1 PUSH2 0x3A88 JUMP JUMPDEST PUSH2 0x1ED1 SWAP2 SWAP1 PUSH2 0x3AB5 JUMP JUMPDEST SWAP1 POP PUSH2 0x1F54 DUP5 PUSH4 0x95EA7B3 PUSH1 0xE0 SHL DUP6 DUP5 PUSH1 0x40 MLOAD PUSH1 0x24 ADD PUSH2 0x1EF2 SWAP3 SWAP2 SWAP1 PUSH2 0x3460 JUMP JUMPDEST PUSH1 0x40 MLOAD PUSH1 0x20 DUP2 DUP4 SUB SUB DUP2 MSTORE SWAP1 PUSH1 0x40 MSTORE SWAP1 PUSH28 0xFFFFFFFFFFFFFFFFFFFFFFFFFFFFFFFFFFFFFFFFFFFFFFFFFFFFFFFF NOT AND PUSH1 0x20 DUP3 ADD DUP1 MLOAD PUSH28 0xFFFFFFFFFFFFFFFFFFFFFFFFFFFFFFFFFFFFFFFFFFFFFFFFFFFFFFFF DUP4 DUP2 DUP4 AND OR DUP4 MSTORE POP POP POP POP PUSH2 0x1165 JUMP JUMPDEST POP POP POP POP JUMP JUMPDEST PUSH1 0x0 ADDRESS DUP7 DUP7 DUP7 DUP7 DUP7 CHAINID PUSH1 0x40 MLOAD PUSH1 0x20 ADD PUSH2 0x1F79 SWAP8 SWAP7 SWAP6 SWAP5 SWAP4 SWAP3 SWAP2 SWAP1 PUSH2 0x3BAA JUMP JUMPDEST PUSH1 0x40 MLOAD PUSH1 0x20 DUP2 DUP4 SUB SUB DUP2 MSTORE SWAP1 PUSH1 0x40 MSTORE DUP1 MLOAD SWAP1 PUSH1 0x20 ADD KECCAK256 SWAP1 POP SWAP6 SWAP5 POP POP POP POP POP JUMP JUMPDEST PUSH1 0x0 ADDRESS DUP6 DUP6 DUP6 DUP10 DUP7 CHAINID PUSH1 0x40 MLOAD PUSH1 0x20 ADD PUSH2 0x1FB9 SWAP8 SWAP7 SWAP6 SWAP5 SWAP4 SWAP3 SWAP2 SWAP1 PUSH2 0x3C2B JUMP JUMPDEST PUSH1 0x40 MLOAD PUSH1 0x20 DUP2 DUP4 SUB SUB DUP2 MSTORE SWAP1 PUSH1 0x40 MSTORE DUP1 MLOAD SWAP1 PUSH1 0x20 ADD KECCAK256 SWAP1 POP SWAP6 SWAP5 POP POP POP POP POP JUMP JUMPDEST PUSH1 0x0 DUP2 EQ DUP1 PUSH2 0x2073 JUMPI POP PUSH1 0x0 DUP4 PUSH20 0xFFFFFFFFFFFFFFFFFFFFFFFFFFFFFFFFFFFFFFFF AND PUSH4 0xDD62ED3E ADDRESS DUP6 PUSH1 0x40 MLOAD DUP4 PUSH4 0xFFFFFFFF AND PUSH1 0xE0 SHL DUP2 MSTORE PUSH1 0x4 ADD PUSH2 0x2021 SWAP3 SWAP2 SWAP1 PUSH2 0x3A4A JUMP JUMPDEST PUSH1 0x20 PUSH1 0x40 MLOAD DUP1 DUP4 SUB DUP2 DUP7 DUP1 EXTCODESIZE ISZERO DUP1 ISZERO PUSH2 0x2039 JUMPI PUSH1 0x0 DUP1 REVERT JUMPDEST POP GAS STATICCALL ISZERO DUP1 ISZERO PUSH2 0x204D JUMPI RETURNDATASIZE PUSH1 0x0 DUP1 RETURNDATACOPY RETURNDATASIZE PUSH1 0x0 REVERT JUMPDEST POP POP POP POP PUSH1 0x40 MLOAD RETURNDATASIZE PUSH1 0x1F NOT PUSH1 0x1F DUP3 ADD AND DUP3 ADD DUP1 PUSH1 0x40 MSTORE POP DUP2 ADD SWAP1 PUSH2 0x2071 SWAP2 SWAP1 PUSH2 0x3A88 JUMP JUMPDEST EQ JUMPDEST PUSH2 0x20B2 JUMPI PUSH1 0x40 MLOAD PUSH32 0x8C379A000000000000000000000000000000000000000000000000000000000 DUP2 MSTORE PUSH1 0x4 ADD PUSH2 0x20A9 SWAP1 PUSH2 0x3D1E JUMP JUMPDEST PUSH1 0x40 MLOAD DUP1 SWAP2 SUB SWAP1 REVERT JUMPDEST PUSH2 0x2133 DUP4 PUSH4 0x95EA7B3 PUSH1 0xE0 SHL DUP5 DUP5 PUSH1 0x40 MLOAD PUSH1 0x24 ADD PUSH2 0x20D1 SWAP3 SWAP2 SWAP1 PUSH2 0x3460 JUMP JUMPDEST PUSH1 0x40 MLOAD PUSH1 0x20 DUP2 DUP4 SUB SUB DUP2 MSTORE SWAP1 PUSH1 0x40 MSTORE SWAP1 PUSH28 0xFFFFFFFFFFFFFFFFFFFFFFFFFFFFFFFFFFFFFFFFFFFFFFFFFFFFFFFF NOT AND PUSH1 0x20 DUP3 ADD DUP1 MLOAD PUSH28 0xFFFFFFFFFFFFFFFFFFFFFFFFFFFFFFFFFFFFFFFFFFFFFFFFFFFFFFFF DUP4 DUP2 DUP4 AND OR DUP4 MSTORE POP POP POP POP PUSH2 0x1165 JUMP JUMPDEST POP POP POP JUMP JUMPDEST PUSH1 0x0 ADDRESS DUP5 DUP5 DUP8 DUP6 CHAINID PUSH1 0x40 MLOAD PUSH1 0x20 ADD PUSH2 0x2155 SWAP7 SWAP6 SWAP5 SWAP4 SWAP3 SWAP2 SWAP1 PUSH2 0x3D3E JUMP JUMPDEST PUSH1 0x40 MLOAD PUSH1 0x20 DUP2 DUP4 SUB SUB DUP2 MSTORE SWAP1 PUSH1 0x40 MSTORE DUP1 MLOAD SWAP1 PUSH1 0x20 ADD KECCAK256 SWAP1 POP SWAP5 SWAP4 POP POP POP POP JUMP JUMPDEST PUSH1 0x0 DUP1 DUP3 PUSH20 0xFFFFFFFFFFFFFFFFFFFFFFFFFFFFFFFFFFFFFFFF AND EXTCODESIZE GT SWAP1 POP SWAP2 SWAP1 POP JUMP JUMPDEST PUSH1 0x60 DUP4 ISZERO PUSH2 0x21A8 JUMPI DUP3 SWAP1 POP PUSH2 0x21F8 JUMP JUMPDEST PUSH1 0x0 DUP4 MLOAD GT ISZERO PUSH2 0x21BB JUMPI DUP3 MLOAD DUP1 DUP5 PUSH1 0x20 ADD REVERT JUMPDEST DUP2 PUSH1 0x40 MLOAD PUSH32 0x8C379A000000000000000000000000000000000000000000000000000000000 DUP2 MSTORE PUSH1 0x4 ADD PUSH2 0x21EF SWAP2 SWAP1 PUSH2 0x3DF2 JUMP JUMPDEST PUSH1 0x40 MLOAD DUP1 SWAP2 SUB SWAP1 REVERT JUMPDEST SWAP4 SWAP3 POP POP POP JUMP JUMPDEST PUSH1 0x0 PUSH1 0x40 MLOAD SWAP1 POP SWAP1 JUMP JUMPDEST PUSH1 0x0 DUP1 REVERT JUMPDEST PUSH1 0x0 DUP1 REVERT JUMPDEST PUSH1 0x0 DUP1 REVERT JUMPDEST PUSH1 0x0 DUP1 REVERT JUMPDEST PUSH1 0x0 DUP1 REVERT JUMPDEST PUSH1 0x0 DUP1 DUP4 PUSH1 0x1F DUP5 ADD SLT PUSH2 0x2238 JUMPI PUSH2 0x2237 PUSH2 0x2213 JUMP JUMPDEST JUMPDEST DUP3 CALLDATALOAD SWAP1 POP PUSH8 0xFFFFFFFFFFFFFFFF DUP2 GT ISZERO PUSH2 0x2255 JUMPI PUSH2 0x2254 PUSH2 0x2218 JUMP JUMPDEST JUMPDEST PUSH1 0x20 DUP4 ADD SWAP2 POP DUP4 PUSH1 0x1 DUP3 MUL DUP4 ADD GT ISZERO PUSH2 0x2271 JUMPI PUSH2 0x2270 PUSH2 0x221D JUMP JUMPDEST JUMPDEST SWAP3 POP SWAP3 SWAP1 POP JUMP JUMPDEST PUSH1 0x0 PUSH8 0xFFFFFFFFFFFFFFFF DUP3 AND SWAP1 POP SWAP2 SWAP1 POP JUMP JUMPDEST PUSH2 0x2295 DUP2 PUSH2 0x2278 JUMP JUMPDEST DUP2 EQ PUSH2 0x22A0 JUMPI PUSH1 0x0 DUP1 REVERT JUMPDEST POP JUMP JUMPDEST PUSH1 0x0 DUP2 CALLDATALOAD SWAP1 POP PUSH2 0x22B2 DUP2 PUSH2 0x228C JUMP JUMPDEST SWAP3 SWAP2 POP POP JUMP JUMPDEST PUSH1 0x0 PUSH20 0xFFFFFFFFFFFFFFFFFFFFFFFFFFFFFFFFFFFFFFFF DUP3 AND SWAP1 POP SWAP2 SWAP1 POP JUMP JUMPDEST PUSH1 0x0 PUSH2 0x22E3 DUP3 PUSH2 0x22B8 JUMP JUMPDEST SWAP1 POP SWAP2 SWAP1 POP JUMP JUMPDEST PUSH2 0x22F3 DUP2 PUSH2 0x22D8 JUMP JUMPDEST DUP2 EQ PUSH2 0x22FE JUMPI PUSH1 0x0 DUP1 REVERT JUMPDEST POP JUMP JUMPDEST PUSH1 0x0 DUP2 CALLDATALOAD SWAP1 POP PUSH2 0x2310 DUP2 PUSH2 0x22EA JUMP JUMPDEST SWAP3 SWAP2 POP POP JUMP JUMPDEST PUSH1 0x0 DUP1 PUSH1 0x0 DUP1 PUSH1 0x0 DUP1 PUSH1 0x80 DUP8 DUP10 SUB SLT ISZERO PUSH2 0x2333 JUMPI PUSH2 0x2332 PUSH2 0x2209 JUMP JUMPDEST JUMPDEST PUSH1 0x0 DUP8 ADD CALLDATALOAD PUSH8 0xFFFFFFFFFFFFFFFF DUP2 GT ISZERO PUSH2 0x2351 JUMPI PUSH2 0x2350 PUSH2 0x220E JUMP JUMPDEST JUMPDEST PUSH2 0x235D DUP10 DUP3 DUP11 ADD PUSH2 0x2222 JUMP JUMPDEST SWAP7 POP SWAP7 POP POP PUSH1 0x20 PUSH2 0x2370 DUP10 DUP3 DUP11 ADD PUSH2 0x22A3 JUMP JUMPDEST SWAP5 POP POP PUSH1 0x40 DUP8 ADD CALLDATALOAD PUSH8 0xFFFFFFFFFFFFFFFF DUP2 GT ISZERO PUSH2 0x2391 JUMPI PUSH2 0x2390 PUSH2 0x220E JUMP JUMPDEST JUMPDEST PUSH2 0x239D DUP10 DUP3 DUP11 ADD PUSH2 0x2222 JUMP JUMPDEST SWAP4 POP SWAP4 POP POP PUSH1 0x60 PUSH2 0x23B0 DUP10 DUP3 DUP11 ADD PUSH2 0x2301 JUMP JUMPDEST SWAP2 POP POP SWAP3 SWAP6 POP SWAP3 SWAP6 POP SWAP3 SWAP6 JUMP JUMPDEST PUSH32 0x4E487B7100000000000000000000000000000000000000000000000000000000 PUSH1 0x0 MSTORE PUSH1 0x21 PUSH1 0x4 MSTORE PUSH1 0x24 PUSH1 0x0 REVERT JUMPDEST PUSH1 0x3 DUP2 LT PUSH2 0x23FD JUMPI PUSH2 0x23FC PUSH2 0x23BD JUMP JUMPDEST JUMPDEST POP JUMP JUMPDEST PUSH1 0x0 DUP2 SWAP1 POP PUSH2 0x240E DUP3 PUSH2 0x23EC JUMP JUMPDEST SWAP2 SWAP1 POP JUMP JUMPDEST PUSH1 0x0 PUSH2 0x241E DUP3 PUSH2 0x2400 JUMP JUMPDEST SWAP1 POP SWAP2 SWAP1 POP JUMP JUMPDEST PUSH2 0x242E DUP2 PUSH2 0x2413 JUMP JUMPDEST DUP3 MSTORE POP POP JUMP JUMPDEST PUSH1 0x0 PUSH1 0x20 DUP3 ADD SWAP1 POP PUSH2 0x2449 PUSH1 0x0 DUP4 ADD DUP5 PUSH2 0x2425 JUMP JUMPDEST SWAP3 SWAP2 POP POP JUMP JUMPDEST PUSH1 0x0 DUP2 SWAP1 POP SWAP2 SWAP1 POP JUMP JUMPDEST PUSH2 0x2462 DUP2 PUSH2 0x244F JUMP JUMPDEST DUP2 EQ PUSH2 0x246D JUMPI PUSH1 0x0 DUP1 REVERT JUMPDEST POP JUMP JUMPDEST PUSH1 0x0 DUP2 CALLDATALOAD SWAP1 POP PUSH2 0x247F DUP2 PUSH2 0x2459 JUMP JUMPDEST SWAP3 SWAP2 POP POP JUMP JUMPDEST PUSH1 0x0 DUP1 PUSH1 0x0 DUP1 PUSH1 0x0 PUSH1 0x80 DUP7 DUP9 SUB SLT ISZERO PUSH2 0x24A1 JUMPI PUSH2 0x24A0 PUSH2 0x2209 JUMP JUMPDEST JUMPDEST PUSH1 0x0 PUSH2 0x24AF DUP9 DUP3 DUP10 ADD PUSH2 0x2301 JUMP JUMPDEST SWAP6 POP POP PUSH1 0x20 PUSH2 0x24C0 DUP9 DUP3 DUP10 ADD PUSH2 0x2470 JUMP JUMPDEST SWAP5 POP POP PUSH1 0x40 DUP7 ADD CALLDATALOAD PUSH8 0xFFFFFFFFFFFFFFFF DUP2 GT ISZERO PUSH2 0x24E1 JUMPI PUSH2 0x24E0 PUSH2 0x220E JUMP JUMPDEST JUMPDEST PUSH2 0x24ED DUP9 DUP3 DUP10 ADD PUSH2 0x2222 JUMP JUMPDEST SWAP4 POP SWAP4 POP POP PUSH1 0x60 PUSH2 0x2500 DUP9 DUP3 DUP10 ADD PUSH2 0x2301 JUMP JUMPDEST SWAP2 POP POP SWAP3 SWAP6 POP SWAP3 SWAP6 SWAP1 SWAP4 POP JUMP JUMPDEST PUSH1 0x0 DUP1 DUP4 PUSH1 0x1F DUP5 ADD SLT PUSH2 0x2523 JUMPI PUSH2 0x2522 PUSH2 0x2213 JUMP JUMPDEST JUMPDEST DUP3 CALLDATALOAD SWAP1 POP PUSH8 0xFFFFFFFFFFFFFFFF DUP2 GT ISZERO PUSH2 0x2540 JUMPI PUSH2 0x253F PUSH2 0x2218 JUMP JUMPDEST JUMPDEST PUSH1 0x20 DUP4 ADD SWAP2 POP DUP4 PUSH1 0x20 DUP3 MUL DUP4 ADD GT ISZERO PUSH2 0x255C JUMPI PUSH2 0x255B PUSH2 0x221D JUMP JUMPDEST JUMPDEST SWAP3 POP SWAP3 SWAP1 POP JUMP JUMPDEST PUSH1 0x0 DUP1 DUP4 PUSH1 0x1F DUP5 ADD SLT PUSH2 0x2579 JUMPI PUSH2 0x2578 PUSH2 0x2213 JUMP JUMPDEST JUMPDEST DUP3 CALLDATALOAD SWAP1 POP PUSH8 0xFFFFFFFFFFFFFFFF DUP2 GT ISZERO PUSH2 0x2596 JUMPI PUSH2 0x2595 PUSH2 0x2218 JUMP JUMPDEST JUMPDEST PUSH1 0x20 DUP4 ADD SWAP2 POP DUP4 PUSH1 0x20 DUP3 MUL DUP4 ADD GT ISZERO PUSH2 0x25B2 JUMPI PUSH2 0x25B1 PUSH2 0x221D JUMP JUMPDEST JUMPDEST SWAP3 POP SWAP3 SWAP1 POP JUMP JUMPDEST PUSH1 0x0 DUP1 PUSH1 0x0 DUP1 PUSH1 0x0 DUP1 PUSH1 0x80 DUP8 DUP10 SUB SLT ISZERO PUSH2 0x25D6 JUMPI PUSH2 0x25D5 PUSH2 0x2209 JUMP JUMPDEST JUMPDEST PUSH1 0x0 PUSH2 0x25E4 DUP10 DUP3 DUP11 ADD PUSH2 0x2301 JUMP JUMPDEST SWAP7 POP POP PUSH1 0x20 PUSH2 0x25F5 DUP10 DUP3 DUP11 ADD PUSH2 0x22A3 JUMP JUMPDEST SWAP6 POP POP PUSH1 0x40 DUP8 ADD CALLDATALOAD PUSH8 0xFFFFFFFFFFFFFFFF DUP2 GT ISZERO PUSH2 0x2616 JUMPI PUSH2 0x2615 PUSH2 0x220E JUMP JUMPDEST JUMPDEST PUSH2 0x2622 DUP10 DUP3 DUP11 ADD PUSH2 0x250D JUMP JUMPDEST SWAP5 POP SWAP5 POP POP PUSH1 0x60 DUP8 ADD CALLDATALOAD PUSH8 0xFFFFFFFFFFFFFFFF DUP2 GT ISZERO PUSH2 0x2645 JUMPI PUSH2 0x2644 PUSH2 0x220E JUMP JUMPDEST JUMPDEST PUSH2 0x2651 DUP10 DUP3 DUP11 ADD PUSH2 0x2563 JUMP JUMPDEST SWAP3 POP SWAP3 POP POP SWAP3 SWAP6 POP SWAP3 SWAP6 POP SWAP3 SWAP6 JUMP JUMPDEST PUSH1 0x0 PUSH1 0x20 DUP3 DUP5 SUB SLT ISZERO PUSH2 0x2676 JUMPI PUSH2 0x2675 PUSH2 0x2209 JUMP JUMPDEST JUMPDEST PUSH1 0x0 PUSH2 0x2684 DUP5 DUP3 DUP6 ADD PUSH2 0x2301 JUMP JUMPDEST SWAP2 POP POP SWAP3 SWAP2 POP POP JUMP JUMPDEST PUSH1 0x0 DUP1 PUSH1 0x0 DUP1 PUSH1 0x0 DUP1 PUSH1 0x0 PUSH1 0xC0 DUP9 DUP11 SUB SLT ISZERO PUSH2 0x26AC JUMPI PUSH2 0x26AB PUSH2 0x2209 JUMP JUMPDEST JUMPDEST PUSH1 0x0 PUSH2 0x26BA DUP11 DUP3 DUP12 ADD PUSH2 0x2301 JUMP JUMPDEST SWAP8 POP POP PUSH1 0x20 PUSH2 0x26CB DUP11 DUP3 DUP12 ADD PUSH2 0x2301 JUMP JUMPDEST SWAP7 POP POP PUSH1 0x40 PUSH2 0x26DC DUP11 DUP3 DUP12 ADD PUSH2 0x2470 JUMP JUMPDEST SWAP6 POP POP PUSH1 0x60 PUSH2 0x26ED DUP11 DUP3 DUP12 ADD PUSH2 0x22A3 JUMP JUMPDEST SWAP5 POP POP PUSH1 0x80 DUP9 ADD CALLDATALOAD PUSH8 0xFFFFFFFFFFFFFFFF DUP2 GT ISZERO PUSH2 0x270E JUMPI PUSH2 0x270D PUSH2 0x220E JUMP JUMPDEST JUMPDEST PUSH2 0x271A DUP11 DUP3 DUP12 ADD PUSH2 0x2222 JUMP JUMPDEST SWAP4 POP SWAP4 POP POP PUSH1 0xA0 PUSH2 0x272D DUP11 DUP3 DUP12 ADD PUSH2 0x2301 JUMP JUMPDEST SWAP2 POP POP SWAP3 SWAP6 SWAP9 SWAP2 SWAP5 SWAP8 POP SWAP3 SWAP6 POP JUMP JUMPDEST PUSH1 0x0 PUSH4 0xFFFFFFFF DUP3 AND SWAP1 POP SWAP2 SWAP1 POP JUMP JUMPDEST PUSH2 0x2755 DUP2 PUSH2 0x273C JUMP JUMPDEST DUP2 EQ PUSH2 0x2760 JUMPI PUSH1 0x0 DUP1 REVERT JUMPDEST POP JUMP JUMPDEST PUSH1 0x0 DUP2 CALLDATALOAD SWAP1 POP PUSH2 0x2772 DUP2 PUSH2 0x274C JUMP JUMPDEST SWAP3 SWAP2 POP POP JUMP JUMPDEST PUSH1 0x7 DUP2 LT PUSH2 0x2785 JUMPI PUSH1 0x0 DUP1 REVERT JUMPDEST POP JUMP JUMPDEST PUSH1 0x0 DUP2 CALLDATALOAD SWAP1 POP PUSH2 0x2797 DUP2 PUSH2 0x2778 JUMP JUMPDEST SWAP3 SWAP2 POP POP JUMP JUMPDEST PUSH1 0x0 DUP1 PUSH1 0x0 DUP1 PUSH1 0x0 DUP1 PUSH1 0x0 DUP1 PUSH1 0xE0 DUP10 DUP12 SUB SLT ISZERO PUSH2 0x27BD JUMPI PUSH2 0x27BC PUSH2 0x2209 JUMP JUMPDEST JUMPDEST PUSH1 0x0 PUSH2 0x27CB DUP12 DUP3 DUP13 ADD PUSH2 0x2301 JUMP JUMPDEST SWAP9 POP POP PUSH1 0x20 PUSH2 0x27DC DUP12 DUP3 DUP13 ADD PUSH2 0x2301 JUMP JUMPDEST SWAP8 POP POP PUSH1 0x40 PUSH2 0x27ED DUP12 DUP3 DUP13 ADD PUSH2 0x2470 JUMP JUMPDEST SWAP7 POP POP PUSH1 0x60 PUSH2 0x27FE DUP12 DUP3 DUP13 ADD PUSH2 0x22A3 JUMP JUMPDEST SWAP6 POP POP PUSH1 0x80 PUSH2 0x280F DUP12 DUP3 DUP13 ADD PUSH2 0x2763 JUMP JUMPDEST SWAP5 POP POP PUSH1 0xA0 DUP10 ADD CALLDATALOAD PUSH8 0xFFFFFFFFFFFFFFFF DUP2 GT ISZERO PUSH2 0x2830 JUMPI PUSH2 0x282F PUSH2 0x220E JUMP JUMPDEST JUMPDEST PUSH2 0x283C DUP12 DUP3 DUP13 ADD PUSH2 0x2222 JUMP JUMPDEST SWAP4 POP SWAP4 POP POP PUSH1 0xC0 PUSH2 0x284F DUP12 DUP3 DUP13 ADD PUSH2 0x2788 JUMP JUMPDEST SWAP2 POP POP SWAP3 SWAP6 SWAP9 POP SWAP3 SWAP6 SWAP9 SWAP1 SWAP4 SWAP7 POP JUMP JUMPDEST PUSH1 0x0 DUP1 PUSH1 0x0 DUP1 PUSH1 0x0 PUSH1 0x80 DUP7 DUP9 SUB SLT ISZERO PUSH2 0x287B JUMPI PUSH2 0x287A PUSH2 0x2209 JUMP JUMPDEST JUMPDEST PUSH1 0x0 PUSH2 0x2889 DUP9 DUP3 DUP10 ADD PUSH2 0x2301 JUMP JUMPDEST SWAP6 POP POP PUSH1 0x20 PUSH2 0x289A DUP9 DUP3 DUP10 ADD PUSH2 0x22A3 JUMP JUMPDEST SWAP5 POP POP PUSH1 0x40 DUP7 ADD CALLDATALOAD PUSH8 0xFFFFFFFFFFFFFFFF DUP2 GT ISZERO PUSH2 0x28BB JUMPI PUSH2 0x28BA PUSH2 0x220E JUMP JUMPDEST JUMPDEST PUSH2 0x28C7 DUP9 DUP3 DUP10 ADD PUSH2 0x2222 JUMP JUMPDEST SWAP4 POP SWAP4 POP POP PUSH1 0x60 PUSH2 0x28DA DUP9 DUP3 DUP10 ADD PUSH2 0x22A3 JUMP JUMPDEST SWAP2 POP POP SWAP3 SWAP6 POP SWAP3 SWAP6 SWAP1 SWAP4 POP JUMP JUMPDEST PUSH1 0x0 DUP1 REVERT JUMPDEST PUSH1 0x0 PUSH1 0x1F NOT PUSH1 0x1F DUP4 ADD AND SWAP1 POP SWAP2 SWAP1 POP JUMP JUMPDEST PUSH32 0x4E487B7100000000000000000000000000000000000000000000000000000000 PUSH1 0x0 MSTORE PUSH1 0x41 PUSH1 0x4 MSTORE PUSH1 0x24 PUSH1 0x0 REVERT JUMPDEST PUSH2 0x2935 DUP3 PUSH2 0x28EC JUMP JUMPDEST DUP2 ADD DUP2 DUP2 LT PUSH8 0xFFFFFFFFFFFFFFFF DUP3 GT OR ISZERO PUSH2 0x2954 JUMPI PUSH2 0x2953 PUSH2 0x28FD JUMP JUMPDEST JUMPDEST DUP1 PUSH1 0x40 MSTORE POP POP POP JUMP JUMPDEST PUSH1 0x0 PUSH2 0x2967 PUSH2 0x21FF JUMP JUMPDEST SWAP1 POP PUSH2 0x2973 DUP3 DUP3 PUSH2 0x292C JUMP JUMPDEST SWAP2 SWAP1 POP JUMP JUMPDEST PUSH1 0x0 PUSH8 0xFFFFFFFFFFFFFFFF DUP3 GT ISZERO PUSH2 0x2993 JUMPI PUSH2 0x2992 PUSH2 0x28FD JUMP JUMPDEST JUMPDEST PUSH2 0x299C DUP3 PUSH2 0x28EC JUMP JUMPDEST SWAP1 POP PUSH1 0x20 DUP2 ADD SWAP1 POP SWAP2 SWAP1 POP JUMP JUMPDEST DUP3 DUP2 DUP4 CALLDATACOPY PUSH1 0x0 DUP4 DUP4 ADD MSTORE POP POP POP JUMP JUMPDEST PUSH1 0x0 PUSH2 0x29CB PUSH2 0x29C6 DUP5 PUSH2 0x2978 JUMP JUMPDEST PUSH2 0x295D JUMP JUMPDEST SWAP1 POP DUP3 DUP2 MSTORE PUSH1 0x20 DUP2 ADD DUP5 DUP5 DUP5 ADD GT ISZERO PUSH2 0x29E7 JUMPI PUSH2 0x29E6 PUSH2 0x28E7 JUMP JUMPDEST JUMPDEST PUSH2 0x29F2 DUP5 DUP3 DUP6 PUSH2 0x29A9 JUMP JUMPDEST POP SWAP4 SWAP3 POP POP POP JUMP JUMPDEST PUSH1 0x0 DUP3 PUSH1 0x1F DUP4 ADD SLT PUSH2 0x2A0F JUMPI PUSH2 0x2A0E PUSH2 0x2213 JUMP JUMPDEST JUMPDEST DUP2 CALLDATALOAD PUSH2 0x2A1F DUP5 DUP3 PUSH1 0x20 DUP7 ADD PUSH2 0x29B8 JUMP JUMPDEST SWAP2 POP POP SWAP3 SWAP2 POP POP JUMP JUMPDEST PUSH1 0x0 DUP1 PUSH1 0x0 DUP1 PUSH1 0x0 DUP1 PUSH1 0xC0 DUP8 DUP10 SUB SLT ISZERO PUSH2 0x2A45 JUMPI PUSH2 0x2A44 PUSH2 0x2209 JUMP JUMPDEST JUMPDEST PUSH1 0x0 PUSH2 0x2A53 DUP10 DUP3 DUP11 ADD PUSH2 0x2301 JUMP JUMPDEST SWAP7 POP POP PUSH1 0x20 PUSH2 0x2A64 DUP10 DUP3 DUP11 ADD PUSH2 0x2301 JUMP JUMPDEST SWAP6 POP POP PUSH1 0x40 PUSH2 0x2A75 DUP10 DUP3 DUP11 ADD PUSH2 0x2470 JUMP JUMPDEST SWAP5 POP POP PUSH1 0x60 PUSH2 0x2A86 DUP10 DUP3 DUP11 ADD PUSH2 0x22A3 JUMP JUMPDEST SWAP4 POP POP PUSH1 0x80 DUP8 ADD CALLDATALOAD PUSH8 0xFFFFFFFFFFFFFFFF DUP2 GT ISZERO PUSH2 0x2AA7 JUMPI PUSH2 0x2AA6 PUSH2 0x220E JUMP JUMPDEST JUMPDEST PUSH2 0x2AB3 DUP10 DUP3 DUP11 ADD PUSH2 0x29FA JUMP JUMPDEST SWAP3 POP POP PUSH1 0xA0 PUSH2 0x2AC4 DUP10 DUP3 DUP11 ADD PUSH2 0x2301 JUMP JUMPDEST SWAP2 POP POP SWAP3 SWAP6 POP SWAP3 SWAP6 POP SWAP3 SWAP6 JUMP JUMPDEST PUSH1 0x0 DUP1 PUSH1 0x0 DUP1 PUSH1 0x0 PUSH1 0x60 DUP7 DUP9 SUB SLT ISZERO PUSH2 0x2AED JUMPI PUSH2 0x2AEC PUSH2 0x2209 JUMP JUMPDEST JUMPDEST PUSH1 0x0 DUP7 ADD CALLDATALOAD PUSH8 0xFFFFFFFFFFFFFFFF DUP2 GT ISZERO PUSH2 0x2B0B JUMPI PUSH2 0x2B0A PUSH2 0x220E JUMP JUMPDEST JUMPDEST PUSH2 0x2B17 DUP9 DUP3 DUP10 ADD PUSH2 0x2222 JUMP JUMPDEST SWAP6 POP SWAP6 POP POP PUSH1 0x20 PUSH2 0x2B2A DUP9 DUP3 DUP10 ADD PUSH2 0x22A3 JUMP JUMPDEST SWAP4 POP POP PUSH1 0x40 DUP7 ADD CALLDATALOAD PUSH8 0xFFFFFFFFFFFFFFFF DUP2 GT ISZERO PUSH2 0x2B4B JUMPI PUSH2 0x2B4A PUSH2 0x220E JUMP JUMPDEST JUMPDEST PUSH2 0x2B57 DUP9 DUP3 DUP10 ADD PUSH2 0x2222 JUMP JUMPDEST SWAP3 POP SWAP3 POP POP SWAP3 SWAP6 POP SWAP3 SWAP6 SWAP1 SWAP4 POP JUMP JUMPDEST PUSH2 0x2B6F DUP2 PUSH2 0x22D8 JUMP JUMPDEST DUP3 MSTORE POP POP JUMP JUMPDEST PUSH1 0x0 PUSH1 0x20 DUP3 ADD SWAP1 POP PUSH2 0x2B8A PUSH1 0x0 DUP4 ADD DUP5 PUSH2 0x2B66 JUMP JUMPDEST SWAP3 SWAP2 POP POP JUMP JUMPDEST PUSH1 0x0 DUP1 PUSH1 0x0 DUP1 PUSH1 0x0 PUSH1 0x80 DUP7 DUP9 SUB SLT ISZERO PUSH2 0x2BAC JUMPI PUSH2 0x2BAB PUSH2 0x2209 JUMP JUMPDEST JUMPDEST PUSH1 0x0 PUSH2 0x2BBA DUP9 DUP3 DUP10 ADD PUSH2 0x2301 JUMP JUMPDEST SWAP6 POP POP PUSH1 0x20 PUSH2 0x2BCB DUP9 DUP3 DUP10 ADD PUSH2 0x22A3 JUMP JUMPDEST SWAP5 POP POP PUSH1 0x40 DUP7 ADD CALLDATALOAD PUSH8 0xFFFFFFFFFFFFFFFF DUP2 GT ISZERO PUSH2 0x2BEC JUMPI PUSH2 0x2BEB PUSH2 0x220E JUMP JUMPDEST JUMPDEST PUSH2 0x2BF8 DUP9 DUP3 DUP10 ADD PUSH2 0x2222 JUMP JUMPDEST SWAP4 POP SWAP4 POP POP PUSH1 0x60 PUSH2 0x2C0B DUP9 DUP3 DUP10 ADD PUSH2 0x2301 JUMP JUMPDEST SWAP2 POP POP SWAP3 SWAP6 POP SWAP3 SWAP6 SWAP1 SWAP4 POP JUMP JUMPDEST PUSH1 0x0 DUP1 PUSH1 0x40 DUP4 DUP6 SUB SLT ISZERO PUSH2 0x2C2F JUMPI PUSH2 0x2C2E PUSH2 0x2209 JUMP JUMPDEST JUMPDEST PUSH1 0x0 PUSH2 0x2C3D DUP6 DUP3 DUP7 ADD PUSH2 0x2301 JUMP JUMPDEST SWAP3 POP POP PUSH1 0x20 PUSH2 0x2C4E DUP6 DUP3 DUP7 ADD PUSH2 0x2470 JUMP JUMPDEST SWAP2 POP POP SWAP3 POP SWAP3 SWAP1 POP JUMP JUMPDEST PUSH1 0x0 DUP1 PUSH1 0x0 DUP1 PUSH1 0x60 DUP6 DUP8 SUB SLT ISZERO PUSH2 0x2C72 JUMPI PUSH2 0x2C71 PUSH2 0x2209 JUMP JUMPDEST JUMPDEST PUSH1 0x0 PUSH2 0x2C80 DUP8 DUP3 DUP9 ADD PUSH2 0x2301 JUMP JUMPDEST SWAP5 POP POP PUSH1 0x20 PUSH2 0x2C91 DUP8 DUP3 DUP9 ADD PUSH2 0x22A3 JUMP JUMPDEST SWAP4 POP POP PUSH1 0x40 DUP6 ADD CALLDATALOAD PUSH8 0xFFFFFFFFFFFFFFFF DUP2 GT ISZERO PUSH2 0x2CB2 JUMPI PUSH2 0x2CB1 PUSH2 0x220E JUMP JUMPDEST JUMPDEST PUSH2 0x2CBE DUP8 DUP3 DUP9 ADD PUSH2 0x2222 JUMP JUMPDEST SWAP3 POP SWAP3 POP POP SWAP3 SWAP6 SWAP2 SWAP5 POP SWAP3 POP JUMP JUMPDEST PUSH1 0x0 DUP3 DUP3 MSTORE PUSH1 0x20 DUP3 ADD SWAP1 POP SWAP3 SWAP2 POP POP JUMP JUMPDEST PUSH32 0x63616C6C6572206973206E6F74206D6573736167652062757300000000000000 PUSH1 0x0 DUP3 ADD MSTORE POP JUMP JUMPDEST PUSH1 0x0 PUSH2 0x2D13 PUSH1 0x19 DUP4 PUSH2 0x2CCC JUMP JUMPDEST SWAP2 POP PUSH2 0x2D1E DUP3 PUSH2 0x2CDD JUMP JUMPDEST PUSH1 0x20 DUP3 ADD SWAP1 POP SWAP2 SWAP1 POP JUMP JUMPDEST PUSH1 0x0 PUSH1 0x20 DUP3 ADD SWAP1 POP DUP2 DUP2 SUB PUSH1 0x0 DUP4 ADD MSTORE PUSH2 0x2D42 DUP2 PUSH2 0x2D06 JUMP JUMPDEST SWAP1 POP SWAP2 SWAP1 POP JUMP JUMPDEST PUSH1 0x0 DUP1 PUSH1 0x40 DUP4 DUP6 SUB SLT ISZERO PUSH2 0x2D60 JUMPI PUSH2 0x2D5F PUSH2 0x2209 JUMP JUMPDEST JUMPDEST PUSH1 0x0 PUSH2 0x2D6E DUP6 DUP3 DUP7 ADD PUSH2 0x22A3 JUMP JUMPDEST SWAP3 POP POP PUSH1 0x20 DUP4 ADD CALLDATALOAD PUSH8 0xFFFFFFFFFFFFFFFF DUP2 GT ISZERO PUSH2 0x2D8F JUMPI PUSH2 0x2D8E PUSH2 0x220E JUMP JUMPDEST JUMPDEST PUSH2 0x2D9B DUP6 DUP3 DUP7 ADD PUSH2 0x29FA JUMP JUMPDEST SWAP2 POP POP SWAP3 POP SWAP3 SWAP1 POP JUMP JUMPDEST PUSH1 0x0 DUP3 DUP3 MSTORE PUSH1 0x20 DUP3 ADD SWAP1 POP SWAP3 SWAP2 POP POP JUMP JUMPDEST PUSH1 0x0 PUSH2 0x2DC2 DUP4 DUP6 PUSH2 0x2DA5 JUMP JUMPDEST SWAP4 POP PUSH2 0x2DCF DUP4 DUP6 DUP5 PUSH2 0x29A9 JUMP JUMPDEST PUSH2 0x2DD8 DUP4 PUSH2 0x28EC JUMP JUMPDEST DUP5 ADD SWAP1 POP SWAP4 SWAP3 POP POP POP JUMP JUMPDEST PUSH2 0x2DEC DUP2 PUSH2 0x2278 JUMP JUMPDEST DUP3 MSTORE POP POP JUMP JUMPDEST PUSH1 0x0 DUP2 MLOAD SWAP1 POP SWAP2 SWAP1 POP JUMP JUMPDEST PUSH1 0x0 JUMPDEST DUP4 DUP2 LT ISZERO PUSH2 0x2E1B JUMPI DUP1 DUP3 ADD MLOAD DUP2 DUP5 ADD MSTORE PUSH1 0x20 DUP2 ADD SWAP1 POP PUSH2 0x2E00 JUMP JUMPDEST DUP4 DUP2 GT ISZERO PUSH2 0x2E2A JUMPI PUSH1 0x0 DUP5 DUP5 ADD MSTORE JUMPDEST POP POP POP POP JUMP JUMPDEST PUSH1 0x0 PUSH2 0x2E3B DUP3 PUSH2 0x2DF2 JUMP JUMPDEST PUSH2 0x2E45 DUP2 DUP6 PUSH2 0x2DA5 JUMP JUMPDEST SWAP4 POP PUSH2 0x2E55 DUP2 DUP6 PUSH1 0x20 DUP7 ADD PUSH2 0x2DFD JUMP JUMPDEST PUSH2 0x2E5E DUP2 PUSH2 0x28EC JUMP JUMPDEST DUP5 ADD SWAP2 POP POP SWAP3 SWAP2 POP POP JUMP JUMPDEST PUSH1 0x0 PUSH1 0x80 DUP3 ADD SWAP1 POP DUP2 DUP2 SUB PUSH1 0x0 DUP4 ADD MSTORE PUSH2 0x2E84 DUP2 DUP8 DUP10 PUSH2 0x2DB6 JUMP JUMPDEST SWAP1 POP PUSH2 0x2E93 PUSH1 0x20 DUP4 ADD DUP7 PUSH2 0x2DE3 JUMP JUMPDEST PUSH2 0x2EA0 PUSH1 0x40 DUP4 ADD DUP6 PUSH2 0x2DE3 JUMP JUMPDEST DUP2 DUP2 SUB PUSH1 0x60 DUP4 ADD MSTORE PUSH2 0x2EB2 DUP2 DUP5 PUSH2 0x2E30 JUMP JUMPDEST SWAP1 POP SWAP7 SWAP6 POP POP POP POP POP POP JUMP JUMPDEST PUSH1 0x0 PUSH2 0x2EC9 DUP3 PUSH2 0x22B8 JUMP JUMPDEST SWAP1 POP SWAP2 SWAP1 POP JUMP JUMPDEST PUSH2 0x2ED9 DUP2 PUSH2 0x2EBE JUMP JUMPDEST DUP2 EQ PUSH2 0x2EE4 JUMPI PUSH1 0x0 DUP1 REVERT JUMPDEST POP JUMP JUMPDEST PUSH1 0x0 DUP2 CALLDATALOAD SWAP1 POP PUSH2 0x2EF6 DUP2 PUSH2 0x2ED0 JUMP JUMPDEST SWAP3 SWAP2 POP POP JUMP JUMPDEST PUSH1 0x0 DUP1 PUSH1 0x40 DUP4 DUP6 SUB SLT ISZERO PUSH2 0x2F13 JUMPI PUSH2 0x2F12 PUSH2 0x2209 JUMP JUMPDEST JUMPDEST PUSH1 0x0 PUSH2 0x2F21 DUP6 DUP3 DUP7 ADD PUSH2 0x2EE7 JUMP JUMPDEST SWAP3 POP POP PUSH1 0x20 DUP4 ADD CALLDATALOAD PUSH8 0xFFFFFFFFFFFFFFFF DUP2 GT ISZERO PUSH2 0x2F42 JUMPI PUSH2 0x2F41 PUSH2 0x220E JUMP JUMPDEST JUMPDEST PUSH2 0x2F4E DUP6 DUP3 DUP7 ADD PUSH2 0x29FA JUMP JUMPDEST SWAP2 POP POP SWAP3 POP SWAP3 SWAP1 POP JUMP JUMPDEST PUSH2 0x2F61 DUP2 PUSH2 0x244F JUMP JUMPDEST DUP3 MSTORE POP POP JUMP JUMPDEST PUSH1 0x0 PUSH1 0x80 DUP3 ADD SWAP1 POP PUSH2 0x2F7C PUSH1 0x0 DUP4 ADD DUP8 PUSH2 0x2B66 JUMP JUMPDEST PUSH2 0x2F89 PUSH1 0x20 DUP4 ADD DUP7 PUSH2 0x2B66 JUMP JUMPDEST PUSH2 0x2F96 PUSH1 0x40 DUP4 ADD DUP6 PUSH2 0x2F58 JUMP JUMPDEST DUP2 DUP2 SUB PUSH1 0x60 DUP4 ADD MSTORE PUSH2 0x2FA8 DUP2 DUP5 PUSH2 0x2E30 JUMP JUMPDEST SWAP1 POP SWAP6 SWAP5 POP POP POP POP POP JUMP JUMPDEST PUSH32 0x4E487B7100000000000000000000000000000000000000000000000000000000 PUSH1 0x0 MSTORE PUSH1 0x32 PUSH1 0x4 MSTORE PUSH1 0x24 PUSH1 0x0 REVERT JUMPDEST PUSH1 0x0 DUP1 REVERT JUMPDEST PUSH1 0x0 DUP1 REVERT JUMPDEST PUSH1 0x0 DUP1 REVERT JUMPDEST PUSH1 0x0 DUP1 DUP4 CALLDATALOAD PUSH1 0x1 PUSH1 0x20 SUB DUP5 CALLDATASIZE SUB SUB DUP2 SLT PUSH2 0x300E JUMPI PUSH2 0x300D PUSH2 0x2FE2 JUMP JUMPDEST JUMPDEST DUP1 DUP5 ADD SWAP3 POP DUP3 CALLDATALOAD SWAP2 POP PUSH8 0xFFFFFFFFFFFFFFFF DUP3 GT ISZERO PUSH2 0x3030 JUMPI PUSH2 0x302F PUSH2 0x2FE7 JUMP JUMPDEST JUMPDEST PUSH1 0x20 DUP4 ADD SWAP3 POP PUSH1 0x1 DUP3 MUL CALLDATASIZE SUB DUP4 SGT ISZERO PUSH2 0x304C JUMPI PUSH2 0x304B PUSH2 0x2FEC JUMP JUMPDEST JUMPDEST POP SWAP3 POP SWAP3 SWAP1 POP JUMP JUMPDEST PUSH1 0x0 PUSH1 0x40 DUP3 ADD SWAP1 POP PUSH2 0x3069 PUSH1 0x0 DUP4 ADD DUP7 PUSH2 0x2DE3 JUMP JUMPDEST DUP2 DUP2 SUB PUSH1 0x20 DUP4 ADD MSTORE PUSH2 0x307C DUP2 DUP5 DUP7 PUSH2 0x2DB6 JUMP JUMPDEST SWAP1 POP SWAP5 SWAP4 POP POP POP POP JUMP JUMPDEST PUSH32 0x4E487B7100000000000000000000000000000000000000000000000000000000 PUSH1 0x0 MSTORE PUSH1 0x11 PUSH1 0x4 MSTORE PUSH1 0x24 PUSH1 0x0 REVERT JUMPDEST PUSH1 0x0 PUSH2 0x30C0 DUP3 PUSH2 0x2278 JUMP JUMPDEST SWAP2 POP PUSH8 0xFFFFFFFFFFFFFFFF DUP3 EQ ISZERO PUSH2 0x30DB JUMPI PUSH2 0x30DA PUSH2 0x3086 JUMP JUMPDEST JUMPDEST PUSH1 0x1 DUP3 ADD SWAP1 POP SWAP2 SWAP1 POP JUMP JUMPDEST PUSH1 0x0 PUSH2 0x30F1 DUP3 PUSH2 0x244F JUMP JUMPDEST SWAP2 POP PUSH32 0xFFFFFFFFFFFFFFFFFFFFFFFFFFFFFFFFFFFFFFFFFFFFFFFFFFFFFFFFFFFFFFFF DUP3 EQ ISZERO PUSH2 0x3124 JUMPI PUSH2 0x3123 PUSH2 0x3086 JUMP JUMPDEST JUMPDEST PUSH1 0x1 DUP3 ADD SWAP1 POP SWAP2 SWAP1 POP JUMP JUMPDEST PUSH32 0x4F776E61626C653A2063616C6C6572206973206E6F7420746865206F776E6572 PUSH1 0x0 DUP3 ADD MSTORE POP JUMP JUMPDEST PUSH1 0x0 PUSH2 0x3165 PUSH1 0x20 DUP4 PUSH2 0x2CCC JUMP JUMPDEST SWAP2 POP PUSH2 0x3170 DUP3 PUSH2 0x312F JUMP JUMPDEST PUSH1 0x20 DUP3 ADD SWAP1 POP SWAP2 SWAP1 POP JUMP JUMPDEST PUSH1 0x0 PUSH1 0x20 DUP3 ADD SWAP1 POP DUP2 DUP2 SUB PUSH1 0x0 DUP4 ADD MSTORE PUSH2 0x3194 DUP2 PUSH2 0x3158 JUMP JUMPDEST SWAP1 POP SWAP2 SWAP1 POP JUMP JUMPDEST PUSH1 0x0 PUSH1 0x40 DUP3 ADD SWAP1 POP PUSH2 0x31B0 PUSH1 0x0 DUP4 ADD DUP7 PUSH2 0x2B66 JUMP JUMPDEST DUP2 DUP2 SUB PUSH1 0x20 DUP4 ADD MSTORE PUSH2 0x31C3 DUP2 DUP5 DUP7 PUSH2 0x2DB6 JUMP JUMPDEST SWAP1 POP SWAP5 SWAP4 POP POP POP POP JUMP JUMPDEST PUSH1 0x0 DUP2 MLOAD SWAP1 POP PUSH2 0x31DC DUP2 PUSH2 0x2ED0 JUMP JUMPDEST SWAP3 SWAP2 POP POP JUMP JUMPDEST PUSH1 0x0 PUSH2 0x31F5 PUSH2 0x31F0 DUP5 PUSH2 0x2978 JUMP JUMPDEST PUSH2 0x295D JUMP JUMPDEST SWAP1 POP DUP3 DUP2 MSTORE PUSH1 0x20 DUP2 ADD DUP5 DUP5 DUP5 ADD GT ISZERO PUSH2 0x3211 JUMPI PUSH2 0x3210 PUSH2 0x28E7 JUMP JUMPDEST JUMPDEST PUSH2 0x321C DUP5 DUP3 DUP6 PUSH2 0x2DFD JUMP JUMPDEST POP SWAP4 SWAP3 POP POP POP JUMP JUMPDEST PUSH1 0x0 DUP3 PUSH1 0x1F DUP4 ADD SLT PUSH2 0x3239 JUMPI PUSH2 0x3238 PUSH2 0x2213 JUMP JUMPDEST JUMPDEST DUP2 MLOAD PUSH2 0x3249 DUP5 DUP3 PUSH1 0x20 DUP7 ADD PUSH2 0x31E2 JUMP JUMPDEST SWAP2 POP POP SWAP3 SWAP2 POP POP JUMP JUMPDEST PUSH1 0x0 DUP1 PUSH1 0x40 DUP4 DUP6 SUB SLT ISZERO PUSH2 0x3269 JUMPI PUSH2 0x3268 PUSH2 0x2209 JUMP JUMPDEST JUMPDEST PUSH1 0x0 PUSH2 0x3277 DUP6 DUP3 DUP7 ADD PUSH2 0x31CD JUMP JUMPDEST SWAP3 POP POP PUSH1 0x20 DUP4 ADD MLOAD PUSH8 0xFFFFFFFFFFFFFFFF DUP2 GT ISZERO PUSH2 0x3298 JUMPI PUSH2 0x3297 PUSH2 0x220E JUMP JUMPDEST JUMPDEST PUSH2 0x32A4 DUP6 DUP3 DUP7 ADD PUSH2 0x3224 JUMP JUMPDEST SWAP2 POP POP SWAP3 POP SWAP3 SWAP1 POP JUMP JUMPDEST PUSH1 0x0 PUSH1 0xC0 DUP3 ADD SWAP1 POP PUSH2 0x32C3 PUSH1 0x0 DUP4 ADD DUP10 PUSH2 0x2B66 JUMP JUMPDEST PUSH2 0x32D0 PUSH1 0x20 DUP4 ADD DUP9 PUSH2 0x2F58 JUMP JUMPDEST PUSH2 0x32DD PUSH1 0x40 DUP4 ADD DUP8 PUSH2 0x2B66 JUMP JUMPDEST PUSH2 0x32EA PUSH1 0x60 DUP4 ADD DUP7 PUSH2 0x2DE3 JUMP JUMPDEST PUSH2 0x32F7 PUSH1 0x80 DUP4 ADD DUP6 PUSH2 0x2B66 JUMP JUMPDEST DUP2 DUP2 SUB PUSH1 0xA0 DUP4 ADD MSTORE PUSH2 0x3309 DUP2 DUP5 PUSH2 0x2E30 JUMP JUMPDEST SWAP1 POP SWAP8 SWAP7 POP POP POP POP POP POP POP JUMP JUMPDEST PUSH32 0x696E76616C6964206E6F6E636500000000000000000000000000000000000000 PUSH1 0x0 DUP3 ADD MSTORE POP JUMP JUMPDEST PUSH1 0x0 PUSH2 0x334C PUSH1 0xD DUP4 PUSH2 0x2CCC JUMP JUMPDEST SWAP2 POP PUSH2 0x3357 DUP3 PUSH2 0x3316 JUMP JUMPDEST PUSH1 0x20 DUP3 ADD SWAP1 POP SWAP2 SWAP1 POP JUMP JUMPDEST PUSH1 0x0 PUSH1 0x20 DUP3 ADD SWAP1 POP DUP2 DUP2 SUB PUSH1 0x0 DUP4 ADD MSTORE PUSH2 0x337B DUP2 PUSH2 0x333F JUMP JUMPDEST SWAP1 POP SWAP2 SWAP1 POP JUMP JUMPDEST PUSH1 0x0 PUSH1 0x80 DUP3 ADD SWAP1 POP PUSH2 0x3397 PUSH1 0x0 DUP4 ADD DUP8 PUSH2 0x2B66 JUMP JUMPDEST PUSH2 0x33A4 PUSH1 0x20 DUP4 ADD DUP7 PUSH2 0x2DE3 JUMP JUMPDEST PUSH2 0x33B1 PUSH1 0x40 DUP4 ADD DUP6 PUSH2 0x2DE3 JUMP JUMPDEST DUP2 DUP2 SUB PUSH1 0x60 DUP4 ADD MSTORE PUSH2 0x33C3 DUP2 DUP5 PUSH2 0x2E30 JUMP JUMPDEST SWAP1 POP SWAP6 SWAP5 POP POP POP POP POP JUMP JUMPDEST PUSH32 0x4F776E61626C653A206E6577206F776E657220697320746865207A65726F2061 PUSH1 0x0 DUP3 ADD MSTORE PUSH32 0x6464726573730000000000000000000000000000000000000000000000000000 PUSH1 0x20 DUP3 ADD MSTORE POP JUMP JUMPDEST PUSH1 0x0 PUSH2 0x342A PUSH1 0x26 DUP4 PUSH2 0x2CCC JUMP JUMPDEST SWAP2 POP PUSH2 0x3435 DUP3 PUSH2 0x33CE JUMP JUMPDEST PUSH1 0x40 DUP3 ADD SWAP1 POP SWAP2 SWAP1 POP JUMP JUMPDEST PUSH1 0x0 PUSH1 0x20 DUP3 ADD SWAP1 POP DUP2 DUP2 SUB PUSH1 0x0 DUP4 ADD MSTORE PUSH2 0x3459 DUP2 PUSH2 0x341D JUMP JUMPDEST SWAP1 POP SWAP2 SWAP1 POP JUMP JUMPDEST PUSH1 0x0 PUSH1 0x40 DUP3 ADD SWAP1 POP PUSH2 0x3475 PUSH1 0x0 DUP4 ADD DUP6 PUSH2 0x2B66 JUMP JUMPDEST PUSH2 0x3482 PUSH1 0x20 DUP4 ADD DUP5 PUSH2 0x2F58 JUMP JUMPDEST SWAP4 SWAP3 POP POP POP JUMP JUMPDEST PUSH1 0x0 PUSH1 0x60 DUP3 ADD SWAP1 POP PUSH2 0x349E PUSH1 0x0 DUP4 ADD DUP7 PUSH2 0x2B66 JUMP JUMPDEST PUSH2 0x34AB PUSH1 0x20 DUP4 ADD DUP6 PUSH2 0x2B66 JUMP JUMPDEST PUSH2 0x34B8 PUSH1 0x40 DUP4 ADD DUP5 PUSH2 0x2F58 JUMP JUMPDEST SWAP5 SWAP4 POP POP POP POP JUMP JUMPDEST PUSH1 0x0 DUP2 ISZERO ISZERO SWAP1 POP SWAP2 SWAP1 POP JUMP JUMPDEST PUSH2 0x34D5 DUP2 PUSH2 0x34C0 JUMP JUMPDEST DUP2 EQ PUSH2 0x34E0 JUMPI PUSH1 0x0 DUP1 REVERT JUMPDEST POP JUMP JUMPDEST PUSH1 0x0 DUP2 MLOAD SWAP1 POP PUSH2 0x34F2 DUP2 PUSH2 0x34CC JUMP JUMPDEST SWAP3 SWAP2 POP POP JUMP JUMPDEST PUSH1 0x0 PUSH1 0x20 DUP3 DUP5 SUB SLT ISZERO PUSH2 0x350E JUMPI PUSH2 0x350D PUSH2 0x2209 JUMP JUMPDEST JUMPDEST PUSH1 0x0 PUSH2 0x351C DUP5 DUP3 DUP6 ADD PUSH2 0x34E3 JUMP JUMPDEST SWAP2 POP POP SWAP3 SWAP2 POP POP JUMP JUMPDEST PUSH32 0x5361666545524332303A204552433230206F7065726174696F6E20646964206E PUSH1 0x0 DUP3 ADD MSTORE PUSH32 0x6F74207375636365656400000000000000000000000000000000000000000000 PUSH1 0x20 DUP3 ADD MSTORE POP JUMP JUMPDEST PUSH1 0x0 PUSH2 0x3581 PUSH1 0x2A DUP4 PUSH2 0x2CCC JUMP JUMPDEST SWAP2 POP PUSH2 0x358C DUP3 PUSH2 0x3525 JUMP JUMPDEST PUSH1 0x40 DUP3 ADD SWAP1 POP SWAP2 SWAP1 POP JUMP JUMPDEST PUSH1 0x0 PUSH1 0x20 DUP3 ADD SWAP1 POP DUP2 DUP2 SUB PUSH1 0x0 DUP4 ADD MSTORE PUSH2 0x35B0 DUP2 PUSH2 0x3574 JUMP JUMPDEST SWAP1 POP SWAP2 SWAP1 POP JUMP JUMPDEST PUSH1 0x0 DUP2 SWAP1 POP SWAP2 SWAP1 POP JUMP JUMPDEST PUSH1 0x0 PUSH2 0x35DC PUSH2 0x35D7 PUSH2 0x35D2 DUP5 PUSH2 0x2278 JUMP JUMPDEST PUSH2 0x35B7 JUMP JUMPDEST PUSH2 0x244F JUMP JUMPDEST SWAP1 POP SWAP2 SWAP1 POP JUMP JUMPDEST PUSH2 0x35EC DUP2 PUSH2 0x35C1 JUMP JUMPDEST DUP3 MSTORE POP POP JUMP JUMPDEST PUSH1 0x0 PUSH1 0x60 DUP3 ADD SWAP1 POP PUSH2 0x3607 PUSH1 0x0 DUP4 ADD DUP7 PUSH2 0x2B66 JUMP JUMPDEST PUSH2 0x3614 PUSH1 0x20 DUP4 ADD DUP6 PUSH2 0x35E3 JUMP JUMPDEST DUP2 DUP2 SUB PUSH1 0x40 DUP4 ADD MSTORE PUSH2 0x3626 DUP2 DUP5 PUSH2 0x2E30 JUMP JUMPDEST SWAP1 POP SWAP5 SWAP4 POP POP POP POP JUMP JUMPDEST PUSH1 0x0 DUP2 SWAP1 POP SWAP2 SWAP1 POP JUMP JUMPDEST PUSH2 0x3643 DUP2 PUSH2 0x3630 JUMP JUMPDEST DUP3 MSTORE POP POP JUMP JUMPDEST PUSH1 0x0 PUSH1 0xA0 DUP3 ADD SWAP1 POP PUSH2 0x365E PUSH1 0x0 DUP4 ADD DUP9 PUSH2 0x2B66 JUMP JUMPDEST PUSH2 0x366B PUSH1 0x20 DUP4 ADD DUP8 PUSH2 0x35E3 JUMP JUMPDEST PUSH2 0x3678 PUSH1 0x40 DUP4 ADD DUP7 PUSH2 0x2B66 JUMP JUMPDEST PUSH2 0x3685 PUSH1 0x60 DUP4 ADD DUP6 PUSH2 0x363A JUMP JUMPDEST DUP2 DUP2 SUB PUSH1 0x80 DUP4 ADD MSTORE PUSH2 0x3697 DUP2 DUP5 PUSH2 0x2E30 JUMP JUMPDEST SWAP1 POP SWAP7 SWAP6 POP POP POP POP POP POP JUMP JUMPDEST PUSH1 0x0 PUSH1 0x60 DUP3 ADD SWAP1 POP DUP2 DUP2 SUB PUSH1 0x0 DUP4 ADD MSTORE PUSH2 0x36BE DUP2 DUP7 DUP9 PUSH2 0x2DB6 JUMP JUMPDEST SWAP1 POP PUSH2 0x36CD PUSH1 0x20 DUP4 ADD DUP6 PUSH2 0x35E3 JUMP JUMPDEST DUP2 DUP2 SUB PUSH1 0x40 DUP4 ADD MSTORE PUSH2 0x36DF DUP2 DUP5 PUSH2 0x2E30 JUMP JUMPDEST SWAP1 POP SWAP6 SWAP5 POP POP POP POP POP JUMP JUMPDEST PUSH1 0x0 DUP2 MLOAD SWAP1 POP PUSH2 0x36F9 DUP2 PUSH2 0x22EA JUMP JUMPDEST SWAP3 SWAP2 POP POP JUMP JUMPDEST PUSH1 0x0 PUSH1 0x20 DUP3 DUP5 SUB SLT ISZERO PUSH2 0x3715 JUMPI PUSH2 0x3714 PUSH2 0x2209 JUMP JUMPDEST JUMPDEST PUSH1 0x0 PUSH2 0x3723 DUP5 DUP3 DUP6 ADD PUSH2 0x36EA JUMP JUMPDEST SWAP2 POP POP SWAP3 SWAP2 POP POP JUMP JUMPDEST PUSH2 0x3735 DUP2 PUSH2 0x273C JUMP JUMPDEST DUP3 MSTORE POP POP JUMP JUMPDEST PUSH1 0x0 PUSH1 0xC0 DUP3 ADD SWAP1 POP PUSH2 0x3750 PUSH1 0x0 DUP4 ADD DUP10 PUSH2 0x2B66 JUMP JUMPDEST PUSH2 0x375D PUSH1 0x20 DUP4 ADD DUP9 PUSH2 0x2B66 JUMP JUMPDEST PUSH2 0x376A PUSH1 0x40 DUP4 ADD DUP8 PUSH2 0x2F58 JUMP JUMPDEST PUSH2 0x3777 PUSH1 0x60 DUP4 ADD DUP7 PUSH2 0x2DE3 JUMP JUMPDEST PUSH2 0x3784 PUSH1 0x80 DUP4 ADD DUP6 PUSH2 0x2DE3 JUMP JUMPDEST PUSH2 0x3791 PUSH1 0xA0 DUP4 ADD DUP5 PUSH2 0x372C JUMP JUMPDEST SWAP8 SWAP7 POP POP POP POP POP POP POP JUMP JUMPDEST PUSH1 0x0 PUSH1 0xA0 DUP3 ADD SWAP1 POP PUSH2 0x37B1 PUSH1 0x0 DUP4 ADD DUP9 PUSH2 0x2B66 JUMP JUMPDEST PUSH2 0x37BE PUSH1 0x20 DUP4 ADD DUP8 PUSH2 0x2F58 JUMP JUMPDEST PUSH2 0x37CB PUSH1 0x40 DUP4 ADD DUP7 PUSH2 0x2DE3 JUMP JUMPDEST PUSH2 0x37D8 PUSH1 0x60 DUP4 ADD DUP6 PUSH2 0x2B66 JUMP JUMPDEST PUSH2 0x37E5 PUSH1 0x80 DUP4 ADD DUP5 PUSH2 0x2DE3 JUMP JUMPDEST SWAP7 SWAP6 POP POP POP POP POP POP JUMP JUMPDEST PUSH1 0x0 PUSH1 0x80 DUP3 ADD SWAP1 POP PUSH2 0x3804 PUSH1 0x0 DUP4 ADD DUP8 PUSH2 0x2B66 JUMP JUMPDEST PUSH2 0x3811 PUSH1 0x20 DUP4 ADD DUP7 PUSH2 0x2F58 JUMP JUMPDEST PUSH2 0x381E PUSH1 0x40 DUP4 ADD DUP6 PUSH2 0x2B66 JUMP JUMPDEST PUSH2 0x382B PUSH1 0x60 DUP4 ADD DUP5 PUSH2 0x2DE3 JUMP JUMPDEST SWAP6 SWAP5 POP POP POP POP POP JUMP JUMPDEST PUSH2 0x383D DUP2 PUSH2 0x3630 JUMP JUMPDEST DUP2 EQ PUSH2 0x3848 JUMPI PUSH1 0x0 DUP1 REVERT JUMPDEST POP JUMP JUMPDEST PUSH1 0x0 DUP2 MLOAD SWAP1 POP PUSH2 0x385A DUP2 PUSH2 0x3834 JUMP JUMPDEST SWAP3 SWAP2 POP POP JUMP JUMPDEST PUSH1 0x0 PUSH1 0x20 DUP3 DUP5 SUB SLT ISZERO PUSH2 0x3876 JUMPI PUSH2 0x3875 PUSH2 0x2209 JUMP JUMPDEST JUMPDEST PUSH1 0x0 PUSH2 0x3884 DUP5 DUP3 DUP6 ADD PUSH2 0x384B JUMP JUMPDEST SWAP2 POP POP SWAP3 SWAP2 POP POP JUMP JUMPDEST PUSH32 0x6272696467652074797065206E6F7420737570706F7274656400000000000000 PUSH1 0x0 DUP3 ADD MSTORE POP JUMP JUMPDEST PUSH1 0x0 PUSH2 0x38C3 PUSH1 0x19 DUP4 PUSH2 0x2CCC JUMP JUMPDEST SWAP2 POP PUSH2 0x38CE DUP3 PUSH2 0x388D JUMP JUMPDEST PUSH1 0x20 DUP3 ADD SWAP1 POP SWAP2 SWAP1 POP JUMP JUMPDEST PUSH1 0x0 PUSH1 0x20 DUP3 ADD SWAP1 POP DUP2 DUP2 SUB PUSH1 0x0 DUP4 ADD MSTORE PUSH2 0x38F2 DUP2 PUSH2 0x38B6 JUMP JUMPDEST SWAP1 POP SWAP2 SWAP1 POP JUMP JUMPDEST PUSH32 0x416464726573733A20696E73756666696369656E742062616C616E636520666F PUSH1 0x0 DUP3 ADD MSTORE PUSH32 0x722063616C6C0000000000000000000000000000000000000000000000000000 PUSH1 0x20 DUP3 ADD MSTORE POP JUMP JUMPDEST PUSH1 0x0 PUSH2 0x3955 PUSH1 0x26 DUP4 PUSH2 0x2CCC JUMP JUMPDEST SWAP2 POP PUSH2 0x3960 DUP3 PUSH2 0x38F9 JUMP JUMPDEST PUSH1 0x40 DUP3 ADD SWAP1 POP SWAP2 SWAP1 POP JUMP JUMPDEST PUSH1 0x0 PUSH1 0x20 DUP3 ADD SWAP1 POP DUP2 DUP2 SUB PUSH1 0x0 DUP4 ADD MSTORE PUSH2 0x3984 DUP2 PUSH2 0x3948 JUMP JUMPDEST SWAP1 POP SWAP2 SWAP1 POP JUMP JUMPDEST PUSH32 0x416464726573733A2063616C6C20746F206E6F6E2D636F6E7472616374000000 PUSH1 0x0 DUP3 ADD MSTORE POP JUMP JUMPDEST PUSH1 0x0 PUSH2 0x39C1 PUSH1 0x1D DUP4 PUSH2 0x2CCC JUMP JUMPDEST SWAP2 POP PUSH2 0x39CC DUP3 PUSH2 0x398B JUMP JUMPDEST PUSH1 0x20 DUP3 ADD SWAP1 POP SWAP2 SWAP1 POP JUMP JUMPDEST PUSH1 0x0 PUSH1 0x20 DUP3 ADD SWAP1 POP DUP2 DUP2 SUB PUSH1 0x0 DUP4 ADD MSTORE PUSH2 0x39F0 DUP2 PUSH2 0x39B4 JUMP JUMPDEST SWAP1 POP SWAP2 SWAP1 POP JUMP JUMPDEST PUSH1 0x0 DUP2 SWAP1 POP SWAP3 SWAP2 POP POP JUMP JUMPDEST PUSH1 0x0 PUSH2 0x3A0D DUP3 PUSH2 0x2DF2 JUMP JUMPDEST PUSH2 0x3A17 DUP2 DUP6 PUSH2 0x39F7 JUMP JUMPDEST SWAP4 POP PUSH2 0x3A27 DUP2 DUP6 PUSH1 0x20 DUP7 ADD PUSH2 0x2DFD JUMP JUMPDEST DUP1 DUP5 ADD SWAP2 POP POP SWAP3 SWAP2 POP POP JUMP JUMPDEST PUSH1 0x0 PUSH2 0x3A3F DUP3 DUP5 PUSH2 0x3A02 JUMP JUMPDEST SWAP2 POP DUP2 SWAP1 POP SWAP3 SWAP2 POP POP JUMP JUMPDEST PUSH1 0x0 PUSH1 0x40 DUP3 ADD SWAP1 POP PUSH2 0x3A5F PUSH1 0x0 DUP4 ADD DUP6 PUSH2 0x2B66 JUMP JUMPDEST PUSH2 0x3A6C PUSH1 0x20 DUP4 ADD DUP5 PUSH2 0x2B66 JUMP JUMPDEST SWAP4 SWAP3 POP POP POP JUMP JUMPDEST PUSH1 0x0 DUP2 MLOAD SWAP1 POP PUSH2 0x3A82 DUP2 PUSH2 0x2459 JUMP JUMPDEST SWAP3 SWAP2 POP POP JUMP JUMPDEST PUSH1 0x0 PUSH1 0x20 DUP3 DUP5 SUB SLT ISZERO PUSH2 0x3A9E JUMPI PUSH2 0x3A9D PUSH2 0x2209 JUMP JUMPDEST JUMPDEST PUSH1 0x0 PUSH2 0x3AAC DUP5 DUP3 DUP6 ADD PUSH2 0x3A73 JUMP JUMPDEST SWAP2 POP POP SWAP3 SWAP2 POP POP JUMP JUMPDEST PUSH1 0x0 PUSH2 0x3AC0 DUP3 PUSH2 0x244F JUMP JUMPDEST SWAP2 POP PUSH2 0x3ACB DUP4 PUSH2 0x244F JUMP JUMPDEST SWAP3 POP DUP3 PUSH32 0xFFFFFFFFFFFFFFFFFFFFFFFFFFFFFFFFFFFFFFFFFFFFFFFFFFFFFFFFFFFFFFFF SUB DUP3 GT ISZERO PUSH2 0x3B00 JUMPI PUSH2 0x3AFF PUSH2 0x3086 JUMP JUMPDEST JUMPDEST DUP3 DUP3 ADD SWAP1 POP SWAP3 SWAP2 POP POP JUMP JUMPDEST PUSH1 0x0 DUP2 PUSH1 0x60 SHL SWAP1 POP SWAP2 SWAP1 POP JUMP JUMPDEST PUSH1 0x0 PUSH2 0x3B23 DUP3 PUSH2 0x3B0B JUMP JUMPDEST SWAP1 POP SWAP2 SWAP1 POP JUMP JUMPDEST PUSH1 0x0 PUSH2 0x3B35 DUP3 PUSH2 0x3B18 JUMP JUMPDEST SWAP1 POP SWAP2 SWAP1 POP JUMP JUMPDEST PUSH2 0x3B4D PUSH2 0x3B48 DUP3 PUSH2 0x22D8 JUMP JUMPDEST PUSH2 0x3B2A JUMP JUMPDEST DUP3 MSTORE POP POP JUMP JUMPDEST PUSH1 0x0 DUP2 SWAP1 POP SWAP2 SWAP1 POP JUMP JUMPDEST PUSH2 0x3B6E PUSH2 0x3B69 DUP3 PUSH2 0x244F JUMP JUMPDEST PUSH2 0x3B53 JUMP JUMPDEST DUP3 MSTORE POP POP JUMP JUMPDEST PUSH1 0x0 DUP2 PUSH1 0xC0 SHL SWAP1 POP SWAP2 SWAP1 POP JUMP JUMPDEST PUSH1 0x0 PUSH2 0x3B8C DUP3 PUSH2 0x3B74 JUMP JUMPDEST SWAP1 POP SWAP2 SWAP1 POP JUMP JUMPDEST PUSH2 0x3BA4 PUSH2 0x3B9F DUP3 PUSH2 0x2278 JUMP JUMPDEST PUSH2 0x3B81 JUMP JUMPDEST DUP3 MSTORE POP POP JUMP JUMPDEST PUSH1 0x0 PUSH2 0x3BB6 DUP3 DUP11 PUSH2 0x3B3C JUMP JUMPDEST PUSH1 0x14 DUP3 ADD SWAP2 POP PUSH2 0x3BC6 DUP3 DUP10 PUSH2 0x3B3C JUMP JUMPDEST PUSH1 0x14 DUP3 ADD SWAP2 POP PUSH2 0x3BD6 DUP3 DUP9 PUSH2 0x3B3C JUMP JUMPDEST PUSH1 0x14 DUP3 ADD SWAP2 POP PUSH2 0x3BE6 DUP3 DUP8 PUSH2 0x3B5D JUMP JUMPDEST PUSH1 0x20 DUP3 ADD SWAP2 POP PUSH2 0x3BF6 DUP3 DUP7 PUSH2 0x3B93 JUMP JUMPDEST PUSH1 0x8 DUP3 ADD SWAP2 POP PUSH2 0x3C06 DUP3 DUP6 PUSH2 0x3B93 JUMP JUMPDEST PUSH1 0x8 DUP3 ADD SWAP2 POP PUSH2 0x3C16 DUP3 DUP5 PUSH2 0x3B93 JUMP JUMPDEST PUSH1 0x8 DUP3 ADD SWAP2 POP DUP2 SWAP1 POP SWAP9 SWAP8 POP POP POP POP POP POP POP POP JUMP JUMPDEST PUSH1 0x0 PUSH2 0x3C37 DUP3 DUP11 PUSH2 0x3B3C JUMP JUMPDEST PUSH1 0x14 DUP3 ADD SWAP2 POP PUSH2 0x3C47 DUP3 DUP10 PUSH2 0x3B3C JUMP JUMPDEST PUSH1 0x14 DUP3 ADD SWAP2 POP PUSH2 0x3C57 DUP3 DUP9 PUSH2 0x3B5D JUMP JUMPDEST PUSH1 0x20 DUP3 ADD SWAP2 POP PUSH2 0x3C67 DUP3 DUP8 PUSH2 0x3B93 JUMP JUMPDEST PUSH1 0x8 DUP3 ADD SWAP2 POP PUSH2 0x3C77 DUP3 DUP7 PUSH2 0x3B3C JUMP JUMPDEST PUSH1 0x14 DUP3 ADD SWAP2 POP PUSH2 0x3C87 DUP3 DUP6 PUSH2 0x3B93 JUMP JUMPDEST PUSH1 0x8 DUP3 ADD SWAP2 POP PUSH2 0x3C97 DUP3 DUP5 PUSH2 0x3B93 JUMP JUMPDEST PUSH1 0x8 DUP3 ADD SWAP2 POP DUP2 SWAP1 POP SWAP9 SWAP8 POP POP POP POP POP POP POP POP JUMP JUMPDEST PUSH32 0x5361666545524332303A20617070726F76652066726F6D206E6F6E2D7A65726F PUSH1 0x0 DUP3 ADD MSTORE PUSH32 0x20746F206E6F6E2D7A65726F20616C6C6F77616E636500000000000000000000 PUSH1 0x20 DUP3 ADD MSTORE POP JUMP JUMPDEST PUSH1 0x0 PUSH2 0x3D08 PUSH1 0x36 DUP4 PUSH2 0x2CCC JUMP JUMPDEST SWAP2 POP PUSH2 0x3D13 DUP3 PUSH2 0x3CAC JUMP JUMPDEST PUSH1 0x40 DUP3 ADD SWAP1 POP SWAP2 SWAP1 POP JUMP JUMPDEST PUSH1 0x0 PUSH1 0x20 DUP3 ADD SWAP1 POP DUP2 DUP2 SUB PUSH1 0x0 DUP4 ADD MSTORE PUSH2 0x3D37 DUP2 PUSH2 0x3CFB JUMP JUMPDEST SWAP1 POP SWAP2 SWAP1 POP JUMP JUMPDEST PUSH1 0x0 PUSH2 0x3D4A DUP3 DUP10 PUSH2 0x3B3C JUMP JUMPDEST PUSH1 0x14 DUP3 ADD SWAP2 POP PUSH2 0x3D5A DUP3 DUP9 PUSH2 0x3B3C JUMP JUMPDEST PUSH1 0x14 DUP3 ADD SWAP2 POP PUSH2 0x3D6A DUP3 DUP8 PUSH2 0x3B5D JUMP JUMPDEST PUSH1 0x20 DUP3 ADD SWAP2 POP PUSH2 0x3D7A DUP3 DUP7 PUSH2 0x3B3C JUMP JUMPDEST PUSH1 0x14 DUP3 ADD SWAP2 POP PUSH2 0x3D8A DUP3 DUP6 PUSH2 0x3B93 JUMP JUMPDEST PUSH1 0x8 DUP3 ADD SWAP2 POP PUSH2 0x3D9A DUP3 DUP5 PUSH2 0x3B93 JUMP JUMPDEST PUSH1 0x8 DUP3 ADD SWAP2 POP DUP2 SWAP1 POP SWAP8 SWAP7 POP POP POP POP POP POP POP JUMP JUMPDEST PUSH1 0x0 DUP2 MLOAD SWAP1 POP SWAP2 SWAP1 POP JUMP JUMPDEST PUSH1 0x0 PUSH2 0x3DC4 DUP3 PUSH2 0x3DAE JUMP JUMPDEST PUSH2 0x3DCE DUP2 DUP6 PUSH2 0x2CCC JUMP JUMPDEST SWAP4 POP PUSH2 0x3DDE DUP2 DUP6 PUSH1 0x20 DUP7 ADD PUSH2 0x2DFD JUMP JUMPDEST PUSH2 0x3DE7 DUP2 PUSH2 0x28EC JUMP JUMPDEST DUP5 ADD SWAP2 POP POP SWAP3 SWAP2 POP POP JUMP JUMPDEST PUSH1 0x0 PUSH1 0x20 DUP3 ADD SWAP1 POP DUP2 DUP2 SUB PUSH1 0x0 DUP4 ADD MSTORE PUSH2 0x3E0C DUP2 DUP5 PUSH2 0x3DB9 JUMP JUMPDEST SWAP1 POP SWAP3 SWAP2 POP POP JUMP INVALID LOG2 PUSH5 0x6970667358 0x22 SLT KECCAK256 0xD0 SUB 0xCC 0x1F 0xB9 DUP10 0xF6 0xFB 0x2D 0xA8 0x1F 0xBB OR EXTCODECOPY SWAP8 DUP13 KECCAK256 0xD7 MSTORE8 0xE3 LOG2 DUP6 EQ GAS DUP8 0x5E 0x27 DUP3 RETURN DUP8 BALANCE 0xA9 PUSH5 0x736F6C6343 STOP ADDMOD MULMOD STOP CALLER "
		},
		"gasEstimates": {
			"creation": {
				"codeDepositCost": "3189200",
				"executionCost": "infinite",
				"totalCost": "infinite"
			},
			"external": {
				"drainToken(address,uint256)": "infinite",
				"executeMessage(address,uint64,bytes,address)": "infinite",
				"executeMessage(bytes,uint64,bytes,address)": "infinite",
				"executeMessageWithTransfer(address,address,uint256,uint64,bytes,address)": "infinite",
				"executeMessageWithTransferFallback(address,address,uint256,uint64,bytes,address)": "infinite",
				"executeMessageWithTransferRefund(address,uint256,bytes,address)": "infinite",
				"messageBus()": "2558",
				"owner()": "2589",
				"sendMessage(address,uint64,bytes)": "infinite",
				"sendMessage(bytes,uint64,bytes)": "infinite",
				"sendMessageWithNonce(address,uint64,bytes,uint64)": "infinite",
				"sendMessageWithTransfer(address,address,uint256,uint64,uint32,bytes,uint8)": "infinite",
				"sendMessages(address,uint64,bytes[],uint256[])": "infinite",
				"setMessageBus(address)": "infinite",
				"transferOwnership(address)": "30776"
			}
		},
		"methodIdentifiers": {
			"drainToken(address,uint256)": "9d4323be",
			"executeMessage(address,uint64,bytes,address)": "9c649fdf",
			"executeMessage(bytes,uint64,bytes,address)": "063ce4e5",
			"executeMessageWithTransfer(address,address,uint256,uint64,bytes,address)": "7cd2bffc",
			"executeMessageWithTransferFallback(address,address,uint256,uint64,bytes,address)": "5ab7afc6",
			"executeMessageWithTransferRefund(address,uint256,bytes,address)": "0bcb4982",
			"messageBus()": "a1a227fa",
			"owner()": "8da5cb5b",
			"sendMessage(address,uint64,bytes)": "c81739cd",
			"sendMessage(bytes,uint64,bytes)": "86dfc3c8",
			"sendMessageWithNonce(address,uint64,bytes,uint64)": "7bcf9fe1",
			"sendMessageWithTransfer(address,address,uint256,uint64,uint32,bytes,uint8)": "7767b8d7",
			"sendMessages(address,uint64,bytes[],uint256[])": "3c8790d7",
			"setMessageBus(address)": "547cad12",
			"transferOwnership(address)": "f2fde38b"
		}
	},
	"abi": [
		{
			"inputs": [
				{
					"internalType": "address",
					"name": "_messageBus",
					"type": "address"
				}
			],
			"stateMutability": "nonpayable",
			"type": "constructor"
		},
		{
			"anonymous": false,
			"inputs": [
				{
					"indexed": false,
					"internalType": "bytes",
					"name": "sender",
					"type": "bytes"
				},
				{
					"indexed": false,
					"internalType": "uint64",
					"name": "srcChainId",
					"type": "uint64"
				},
				{
					"indexed": false,
					"internalType": "uint64",
					"name": "nonce",
					"type": "uint64"
				},
				{
					"indexed": false,
					"internalType": "bytes",
					"name": "message",
					"type": "bytes"
				}
			],
			"name": "Message2Received",
			"type": "event"
		},
		{
			"anonymous": false,
			"inputs": [
				{
					"indexed": false,
					"internalType": "address",
					"name": "messageBus",
					"type": "address"
				}
			],
			"name": "MessageBusUpdated",
			"type": "event"
		},
		{
			"anonymous": false,
			"inputs": [
				{
					"indexed": false,
					"internalType": "address",
					"name": "sender",
					"type": "address"
				},
				{
					"indexed": false,
					"internalType": "uint64",
					"name": "srcChainId",
					"type": "uint64"
				},
				{
					"indexed": false,
					"internalType": "uint64",
					"name": "nonce",
					"type": "uint64"
				},
				{
					"indexed": false,
					"internalType": "bytes",
					"name": "message",
					"type": "bytes"
				}
			],
			"name": "MessageReceived",
			"type": "event"
		},
		{
			"anonymous": false,
			"inputs": [
				{
					"indexed": false,
					"internalType": "address",
					"name": "token",
					"type": "address"
				},
				{
					"indexed": false,
					"internalType": "uint256",
					"name": "amount",
					"type": "uint256"
				},
				{
					"indexed": false,
					"internalType": "address",
					"name": "sender",
					"type": "address"
				},
				{
					"indexed": false,
					"internalType": "uint64",
					"name": "srcChainId",
					"type": "uint64"
				},
				{
					"indexed": false,
					"internalType": "address",
					"name": "receiver",
					"type": "address"
				},
				{
					"indexed": false,
					"internalType": "bytes",
					"name": "message",
					"type": "bytes"
				}
			],
			"name": "MessageReceivedWithTransfer",
			"type": "event"
		},
		{
			"anonymous": false,
			"inputs": [
				{
					"indexed": true,
					"internalType": "address",
					"name": "previousOwner",
					"type": "address"
				},
				{
					"indexed": true,
					"internalType": "address",
					"name": "newOwner",
					"type": "address"
				}
			],
			"name": "OwnershipTransferred",
			"type": "event"
		},
		{
			"anonymous": false,
			"inputs": [
				{
					"indexed": false,
					"internalType": "address",
					"name": "receiver",
					"type": "address"
				},
				{
					"indexed": false,
					"internalType": "address",
					"name": "token",
					"type": "address"
				},
				{
					"indexed": false,
					"internalType": "uint256",
					"name": "amount",
					"type": "uint256"
				},
				{
					"indexed": false,
					"internalType": "bytes",
					"name": "message",
					"type": "bytes"
				}
			],
			"name": "Refunded",
			"type": "event"
		},
		{
			"inputs": [
				{
					"internalType": "address",
					"name": "_token",
					"type": "address"
				},
				{
					"internalType": "uint256",
					"name": "_amount",
					"type": "uint256"
				}
			],
			"name": "drainToken",
			"outputs": [],
			"stateMutability": "nonpayable",
			"type": "function"
		},
		{
			"inputs": [
				{
					"internalType": "bytes",
					"name": "_sender",
					"type": "bytes"
				},
				{
					"internalType": "uint64",
					"name": "_srcChainId",
					"type": "uint64"
				},
				{
					"internalType": "bytes",
					"name": "_message",
					"type": "bytes"
				},
				{
					"internalType": "address",
					"name": "",
					"type": "address"
				}
			],
			"name": "executeMessage",
			"outputs": [
				{
					"internalType": "enum IMessageReceiverApp.ExecutionStatus",
					"name": "",
					"type": "uint8"
				}
			],
			"stateMutability": "payable",
			"type": "function"
		},
		{
			"inputs": [
				{
					"internalType": "address",
					"name": "_sender",
					"type": "address"
				},
				{
					"internalType": "uint64",
					"name": "_srcChainId",
					"type": "uint64"
				},
				{
					"internalType": "bytes",
					"name": "_message",
					"type": "bytes"
				},
				{
					"internalType": "address",
					"name": "",
					"type": "address"
				}
			],
			"name": "executeMessage",
			"outputs": [
				{
					"internalType": "enum IMessageReceiverApp.ExecutionStatus",
					"name": "",
					"type": "uint8"
				}
			],
			"stateMutability": "payable",
			"type": "function"
		},
		{
			"inputs": [
				{
					"internalType": "address",
					"name": "_sender",
					"type": "address"
				},
				{
					"internalType": "address",
					"name": "_token",
					"type": "address"
				},
				{
					"internalType": "uint256",
					"name": "_amount",
					"type": "uint256"
				},
				{
					"internalType": "uint64",
					"name": "_srcChainId",
					"type": "uint64"
				},
				{
					"internalType": "bytes",
					"name": "_message",
					"type": "bytes"
				},
				{
					"internalType": "address",
					"name": "",
					"type": "address"
				}
			],
			"name": "executeMessageWithTransfer",
			"outputs": [
				{
					"internalType": "enum IMessageReceiverApp.ExecutionStatus",
					"name": "",
					"type": "uint8"
				}
			],
			"stateMutability": "payable",
			"type": "function"
		},
		{
			"inputs": [
				{
					"internalType": "address",
					"name": "_sender",
					"type": "address"
				},
				{
					"internalType": "address",
					"name": "_token",
					"type": "address"
				},
				{
					"internalType": "uint256",
					"name": "_amount",
					"type": "uint256"
				},
				{
					"internalType": "uint64",
					"name": "_srcChainId",
					"type": "uint64"
				},
				{
					"internalType": "bytes",
					"name": "_message",
					"type": "bytes"
				},
				{
					"internalType": "address",
					"name": "_executor",
					"type": "address"
				}
			],
			"name": "executeMessageWithTransferFallback",
			"outputs": [
				{
					"internalType": "enum IMessageReceiverApp.ExecutionStatus",
					"name": "",
					"type": "uint8"
				}
			],
			"stateMutability": "payable",
			"type": "function"
		},
		{
			"inputs": [
				{
					"internalType": "address",
					"name": "_token",
					"type": "address"
				},
				{
					"internalType": "uint256",
					"name": "_amount",
					"type": "uint256"
				},
				{
					"internalType": "bytes",
					"name": "_message",
					"type": "bytes"
				},
				{
					"internalType": "address",
					"name": "",
					"type": "address"
				}
			],
			"name": "executeMessageWithTransferRefund",
			"outputs": [
				{
					"internalType": "enum IMessageReceiverApp.ExecutionStatus",
					"name": "",
					"type": "uint8"
				}
			],
			"stateMutability": "payable",
			"type": "function"
		},
		{
			"inputs": [],
			"name": "messageBus",
			"outputs": [
				{
					"internalType": "address",
					"name": "",
					"type": "address"
				}
			],
			"stateMutability": "view",
			"type": "function"
		},
		{
			"inputs": [],
			"name": "owner",
			"outputs": [
				{
					"internalType": "address",
					"name": "",
					"type": "address"
				}
			],
			"stateMutability": "view",
			"type": "function"
		},
		{
			"inputs": [
				{
					"internalType": "bytes",
					"name": "_receiver",
					"type": "bytes"
				},
				{
					"internalType": "uint64",
					"name": "_dstChainId",
					"type": "uint64"
				},
				{
					"internalType": "bytes",
					"name": "_message",
					"type": "bytes"
				}
			],
			"name": "sendMessage",
			"outputs": [],
			"stateMutability": "payable",
			"type": "function"
		},
		{
			"inputs": [
				{
					"internalType": "address",
					"name": "_receiver",
					"type": "address"
				},
				{
					"internalType": "uint64",
					"name": "_dstChainId",
					"type": "uint64"
				},
				{
					"internalType": "bytes",
					"name": "_message",
					"type": "bytes"
				}
			],
			"name": "sendMessage",
			"outputs": [],
			"stateMutability": "payable",
			"type": "function"
		},
		{
			"inputs": [
				{
					"internalType": "address",
					"name": "_receiver",
					"type": "address"
				},
				{
					"internalType": "uint64",
					"name": "_dstChainId",
					"type": "uint64"
				},
				{
					"internalType": "bytes",
					"name": "_message",
					"type": "bytes"
				},
				{
					"internalType": "uint64",
					"name": "_nonce",
					"type": "uint64"
				}
			],
			"name": "sendMessageWithNonce",
			"outputs": [],
			"stateMutability": "payable",
			"type": "function"
		},
		{
			"inputs": [
				{
					"internalType": "address",
					"name": "_receiver",
					"type": "address"
				},
				{
					"internalType": "address",
					"name": "_token",
					"type": "address"
				},
				{
					"internalType": "uint256",
					"name": "_amount",
					"type": "uint256"
				},
				{
					"internalType": "uint64",
					"name": "_dstChainId",
					"type": "uint64"
				},
				{
					"internalType": "uint32",
					"name": "_maxSlippage",
					"type": "uint32"
				},
				{
					"internalType": "bytes",
					"name": "_message",
					"type": "bytes"
				},
				{
					"internalType": "enum MsgDataTypes.BridgeSendType",
					"name": "_bridgeSendType",
					"type": "uint8"
				}
			],
			"name": "sendMessageWithTransfer",
			"outputs": [],
			"stateMutability": "payable",
			"type": "function"
		},
		{
			"inputs": [
				{
					"internalType": "address",
					"name": "_receiver",
					"type": "address"
				},
				{
					"internalType": "uint64",
					"name": "_dstChainId",
					"type": "uint64"
				},
				{
					"internalType": "bytes[]",
					"name": "_messages",
					"type": "bytes[]"
				},
				{
					"internalType": "uint256[]",
					"name": "_fees",
					"type": "uint256[]"
				}
			],
			"name": "sendMessages",
			"outputs": [],
			"stateMutability": "payable",
			"type": "function"
		},
		{
			"inputs": [
				{
					"internalType": "address",
					"name": "_messageBus",
					"type": "address"
				}
			],
			"name": "setMessageBus",
			"outputs": [],
			"stateMutability": "nonpayable",
			"type": "function"
		},
		{
			"inputs": [
				{
					"internalType": "address",
					"name": "newOwner",
					"type": "address"
				}
			],
			"name": "transferOwnership",
			"outputs": [],
			"stateMutability": "nonpayable",
			"type": "function"
		}
	]
}