{
	"data": {
		"bytecode": {
			"linkReferences": {},
			"object": "60806040523480156200001157600080fd5b5060405162002eb738038062002eb78339810160408190526200003491620000de565b6200003f3362000071565b600180546001600160a01b039384166001600160a01b0319918216179091556004805492909316911617905562000116565b600080546001600160a01b038381166001600160a01b0319831681178455604051919092169283917f8be0079c531659141344cd1fd0a4f28419497f9722a3daafe3b4186f6b6457e09190a35050565b80516001600160a01b0381168114620000d957600080fd5b919050565b60008060408385031215620000f257600080fd5b620000fd83620000c1565b91506200010d60208401620000c1565b90509250929050565b612d9180620001266000396000f3fe6080604052600436106101025760003560e01c80635b5a66a7116100955780639c649fdf116100645780639c649fdf14610296578063a1a227fa146102a4578063e3cb78a8146102c4578063e97edf09146102d7578063f2fde38b146102f757600080fd5b80635b5a66a7146102325780637cd2bffc146102525780638da5cb5b146102655780639398bf461461028357600080fd5b8063457bfa2f116100d1578063457bfa2f146101bd578063496dbfd9146101dd578063547cad12146101ff5780635ab7afc61461021f57600080fd5b8063063ce4e51461010e5780630bcb4982146101375780631306342d1461014a57806334e181251461018257600080fd5b3661010957005b600080fd5b61012161011c366004612150565b610317565b60405161012e91906121fc565b60405180910390f35b610121610145366004612216565b610357565b34801561015657600080fd5b5060025461016a906001600160a01b031681565b6040516001600160a01b03909116815260200161012e565b34801561018e57600080fd5b506101af61019d366004612289565b60036020526000908152604090205481565b60405190815260200161012e565b3480156101c957600080fd5b5060045461016a906001600160a01b031681565b3480156101e957600080fd5b506101fd6101f83660046122a6565b61038d565b005b34801561020b57600080fd5b506101fd61021a366004612289565b6103e2565b61012161022d3660046123df565b61046f565b34801561023e57600080fd5b506101fd61024d366004612289565b610514565b6101216102603660046123df565b61056f565b34801561027157600080fd5b506000546001600160a01b031661016a565b6101fd610291366004612493565b610850565b61012161014536600461254a565b3480156102b057600080fd5b5060015461016a906001600160a01b031681565b6101fd6102d23660046125a6565b6108fb565b3480156102e357600080fd5b506101fd6102f2366004612289565b610a92565b34801561030357600080fd5b506101fd610312366004612289565b610aed565b6001546000906001600160a01b0316331461034d5760405162461bcd60e51b815260040161034490612670565b60405180910390fd5b9695505050505050565b6001546000906001600160a01b031633146103845760405162461bcd60e51b815260040161034490612670565b95945050505050565b336103a06000546001600160a01b031690565b6001600160a01b0316146103c65760405162461bcd60e51b8152600401610344906126a7565b6001600160a01b03909116600090815260036020526040902055565b336103f56000546001600160a01b031690565b6001600160a01b03161461041b5760405162461bcd60e51b8152600401610344906126a7565b600180546001600160a01b0319166001600160a01b0383169081179091556040519081527f3f8223bcd8b3b875473e9f9e14e1ad075451a2b5ffd31591655da9a01516bf5e9060200160405180910390a150565b6001546000906001600160a01b0316331461049c5760405162461bcd60e51b815260040161034490612670565b6000838060200190518101906104b29190612791565b905060006104c68260200151874688610b97565b90507fccbb695db2dfb79e3f69bcf724d11b850c79b0ae358e62d60ed94044f38a2b9c81600060026040516104fd93929190612911565b60405180910390a150600098975050505050505050565b336105276000546001600160a01b031690565b6001600160a01b03161461054d5760405162461bcd60e51b8152600401610344906126a7565b600480546001600160a01b0319166001600160a01b0392909216919091179055565b6001546000906001600160a01b0316331461059c5760405162461bcd60e51b815260040161034490612670565b6000838060200190518101906105b29190612791565b8051518051919250906000906105ca576105ca61292c565b60200260200101516001600160a01b0316876001600160a01b03161461066b5760405162461bcd60e51b815260206004820152604a60248201527f6272696467656420746f6b656e206d757374206265207468652073616d65206160448201527f732074686520666972737420746f6b656e20696e2064657374696e6174696f6e606482015269040e6eec2e040e0c2e8d60b31b608482015260a401610344565b600061067d8260200151874688610b97565b825151519091506000906001908110156107cc5760025484515180516106d8926001600160a01b0316918c916000906106b8576106b861292c565b60200260200101516001600160a01b0316610bd19092919063ffffffff16565b6002548451604090810151905160009283926001600160a01b03909116916107009190612942565b6000604051808303816000865af19150503d806000811461073d576040519150601f19603f3d011682016040523d82523d6000602084013e610742565b606091505b509150915060008180602001905181019061075d919061295e565b905082156107ac5786515180516107a3919061077b9060019061298d565b8151811061078b5761078b61292c565b60200260200101518289602001518a60600151610ccb565b600193506107c4565b6107bd8d8d89602001516000610ccb565b50600392508a5b505050610804565b83515180516107fd91906000906107e5576107e561292c565b60200260200101518a86602001518760600151610ccb565b5087905060015b7fccbb695db2dfb79e3f69bcf724d11b850c79b0ae358e62d60ed94044f38a2b9c83838360405161083793929190612911565b60405180910390a15060019a9950505050505050505050565b3332146108895760405162461bcd60e51b81526020600482015260076024820152664e6f7420454f4160c81b6044820152606401610344565b6108d033308861089988806129a4565b60008181106108aa576108aa61292c565b90506020020160208101906108bf9190612289565b6001600160a01b0316929190610e35565b6108f28787876108df886129ed565b6108e8886129ed565b8787600034610e6d565b50505050505050565b3332146109345760405162461bcd60e51b81526020600482015260076024820152664e6f7420454f4160c81b6044820152606401610344565b8634101561097a5760405162461bcd60e51b8152602060048201526013602482015272105b5bdd5b9d081a5b9cdd59999a58da595b9d606a1b6044820152606401610344565b6004546001600160a01b031661099086806129a4565b60008181106109a1576109a161292c565b90506020020160208101906109b69190612289565b6001600160a01b0316146109fd5760405162461bcd60e51b815260206004820152600e60248201526d0e8ded6cadc40dad2e6dac2e8c6d60931b6044820152606401610344565b6004805460408051630d0e30db60e41b815290516001600160a01b039092169263d0e30db0928b92808301926000929182900301818588803b158015610a4257600080fd5b505af1158015610a56573d6000803e3d6000fd5b5050505050610a8888888888610a6b906129ed565b610a74896129ed565b8888888f34610a83919061298d565b610e6d565b5050505050505050565b33610aa56000546001600160a01b031690565b6001600160a01b031614610acb5760405162461bcd60e51b8152600401610344906126a7565b600280546001600160a01b0319166001600160a01b0392909216919091179055565b33610b006000546001600160a01b031690565b6001600160a01b031614610b265760405162461bcd60e51b8152600401610344906126a7565b6001600160a01b038116610b8b5760405162461bcd60e51b815260206004820152602660248201527f4f776e61626c653a206e6577206f776e657220697320746865207a65726f206160448201526564647265737360d01b6064820152608401610344565b610b9481611137565b50565b600084848484604051602001610bb09493929190612adb565b6040516020818303038152906040528051906020012090505b949350505050565b604051636eb1769f60e11b81523060048201526001600160a01b038381166024830152600091839186169063dd62ed3e9060440160206040518083038186803b158015610c1d57600080fd5b505afa158015610c31573d6000803e3d6000fd5b505050506040513d601f19601f82011682018060405250810190610c55919061295e565b610c5f9190612b37565b6040516001600160a01b038516602482015260448101829052909150610cc590859063095ea7b360e01b906064015b60408051601f198184030181529190526020810180516001600160e01b03166001600160e01b031990931692909217909152611187565b50505050565b8015610e21576004546001600160a01b03858116911614610d1f5760405162461bcd60e51b815260206004820152600e60248201526d0e8ded6cadc40dad2e6dac2e8c6d60931b6044820152606401610344565b60048054604051632e1a7d4d60e01b81529182018590526001600160a01b031690632e1a7d4d90602401600060405180830381600087803b158015610d6357600080fd5b505af1158015610d77573d6000803e3d6000fd5b505050506000826001600160a01b03168461c35090604051600060405180830381858888f193505050503d8060008114610dcd576040519150601f19603f3d011682016040523d82523d6000602084013e610dd2565b606091505b5050905080610e1b5760405162461bcd60e51b81526020600482015260156024820152746661696c656420746f2073656e64206e617469766560581b6044820152606401610344565b50610cc5565b610cc56001600160a01b038516838561125e565b6040516001600160a01b0380851660248301528316604482015260648101829052610cc59085906323b872dd60e01b90608401610c8e565b855151610eb25760405162461bcd60e51b81526020600482015260136024820152720cadae0e8f240e6e4c640e6eec2e040e0c2e8d606b1b6044820152606401610344565b8551805160009190610ec69060019061298d565b81518110610ed657610ed661292c565b60200260200101519050600360008860000151600081518110610efb57610efb61292c565b60200260200101516001600160a01b03166001600160a01b03168152602001908152602001600020548911610f865760405162461bcd60e51b815260206004820152602b60248201527f616d6f756e74206d7573742062652067726561746572207468616e206d696e2060448201526a1cddd85c08185b5bdd5b9d60aa1b6064820152608401610344565b865151469060011080610fab5750806001600160401b0316896001600160401b031614155b610fed5760405162461bcd60e51b81526020600482015260136024820152721b9bdbdc081a5cc81b9bdd08185b1b1bddd959606a1b6044820152606401610344565b8751518a90600110156110e75760025489518051611020926001600160a01b0316918e916000906106b8576106b861292c565b60025460208a015160405160009283926001600160a01b03909116916110469190612942565b6000604051808303816000865af19150503d8060008114611083576040519150601f19603f3d011682016040523d82523d6000602084013e611088565b606091505b5091509150816110cc5760405162461bcd60e51b815260206004820152600f60248201526e1cdc98c81cddd85c0819985a5b1959608a1b6044820152606401610344565b6000818060200190518101906110e2919061295e565b505050505b816001600160401b03168a6001600160401b03161415611115576111108c8c848c8a888761128e565b611129565b6111298c8c848d8d8d8d8d8d8d8d8c61136c565b505050505050505050505050565b600080546001600160a01b038381166001600160a01b0319831681178455604051919092169283917f8be0079c531659141344cd1fd0a4f28419497f9722a3daafe3b4186f6b6457e09190a35050565b60006111dc826040518060400160405280602081526020017f5361666545524332303a206c6f772d6c6576656c2063616c6c206661696c6564815250856001600160a01b03166114f69092919063ffffffff16565b80519091501561125957808060200190518101906111fa9190612b4f565b6112595760405162461bcd60e51b815260206004820152602a60248201527f5361666545524332303a204552433230206f7065726174696f6e20646964206e6044820152691bdd081cdd58d8d9595960b21b6064820152608401610344565b505050565b6040516001600160a01b03831660248201526044810182905261125990849063a9059cbb60e01b90606401610c8e565b6112a26001600160a01b038316888361125e565b600033868986886040516020016112bd959493929190612c11565b6040516020818303038152906040528051906020012090507fdbd876e57420a75850bd1ce36de349d111ab4ff35e2c2379af8acc750376917481878988600001516000815181106113105761131061292c565b602090810291909101810151604080519586526001600160401b0390941691850191909152918301526001600160a01b03908116606083015260808201859052851660a082015260c00160405180910390a15050505050505050565b8651516113b15760405162461bcd60e51b81526020600482015260136024820152720cadae0e8f240c8e6e840e6eec2e040e0c2e8d606b1b6044820152606401610344565b60006040518060800160405280898152602001336001600160a01b03168152602001876001600160401b031681526020018615158152506040516020016113f89190612c55565b60405160208183030381529060405290506000611417338d8d85610b97565b905061142b8e85858e8b8d8860018d61150f565b507f600b63623f19b18f8f0e7825ec78b3d9779d8124c76ad75b58aac7167f04f8d2818c8f8d600001516000815181106114675761146761292c565b60209081029190910101518d5180516114829060019061298d565b815181106114925761149261292c565b60200260200101516040516114de9594939291909485526001600160401b0393909316602085015260408401919091526001600160a01b03908116606084015216608082015260a00190565b60405180910390a15050505050505050505050505050565b60606115058484600085611546565b90505b9392505050565b60006115388a8a8a8a8a8a8a8a600160009054906101000a90046001600160a01b03168b611677565b9a9950505050505050505050565b6060824710156115a75760405162461bcd60e51b815260206004820152602660248201527f416464726573733a20696e73756666696369656e742062616c616e636520666f6044820152651c8818d85b1b60d21b6064820152608401610344565b6001600160a01b0385163b6115fe5760405162461bcd60e51b815260206004820152601d60248201527f416464726573733a2063616c6c20746f206e6f6e2d636f6e74726163740000006044820152606401610344565b600080866001600160a01b0316858760405161161a9190612942565b60006040518083038185875af1925050503d8060008114611657576040519150601f19603f3d011682016040523d82523d6000602084013e61165c565b606091505b509150915061166c828286611710565b979650505050505050565b600080600061168c8d8d8d8d8d8d8c8c611749565b885191935091501561170057846001600160a01b0316634289fbb3858f8d85878d6040518763ffffffff1660e01b81526004016116cd959493929190612cae565b6000604051808303818588803b1580156116e657600080fd5b505af11580156116fa573d6000803e3d6000fd5b50505050505b509b9a5050505050505050505050565b6060831561171f575081611508565b82511561172f5782518084602001fd5b8160405162461bcd60e51b81526004016103449190612cf0565b6000806001846006811115611760576117606121e6565b141561188e57826001600160a01b03166382980dc46040518163ffffffff1660e01b815260040160206040518083038186803b15801561179f57600080fd5b505afa1580156117b3573d6000803e3d6000fd5b505050506040513d601f19601f820116820180604052508101906117d79190612d03565b90506117ed6001600160a01b038a16828a610bd1565b60405163a5977fbb60e01b81526001600160a01b038b811660048301528a81166024830152604482018a90526001600160401b03808a1660648401528816608483015263ffffffff871660a483015282169063a5977fbb9060c401600060405180830381600087803b15801561186257600080fd5b505af1158015611876573d6000803e3d6000fd5b505050506118878a8a8a8a8a611e72565b9150611e65565b60028460068111156118a2576118a26121e6565b14156119a257826001600160a01b031663d8257d176040518163ffffffff1660e01b815260040160206040518083038186803b1580156118e157600080fd5b505afa1580156118f5573d6000803e3d6000fd5b505050506040513d601f19601f820116820180604052508101906119199190612d03565b905061192f6001600160a01b038a16828a610bd1565b806001600160a01b031663234636248a8a8a8e8b6040518663ffffffff1660e01b8152600401611963959493929190612d20565b600060405180830381600087803b15801561197d57600080fd5b505af1158015611991573d6000803e3d6000fd5b505050506118878a8a8a8a8a611ef5565b60038460068111156119b6576119b66121e6565b1415611ade57826001600160a01b031663dfa2dbaf6040518163ffffffff1660e01b815260040160206040518083038186803b1580156119f557600080fd5b505afa158015611a09573d6000803e3d6000fd5b505050506040513d601f19601f82011682018060405250810190611a2d9190612d03565b9050611a436001600160a01b038a16828a610bd1565b604051636f3c863f60e11b81526001600160a01b038a81166004830152602482018a90528b811660448301526001600160401b038816606483015282169063de790c7e90608401600060405180830381600087803b158015611aa457600080fd5b505af1158015611ab8573d6000803e3d6000fd5b50611ad2925050506001600160a01b038a16826000611f5e565b6118878a8a8a89612082565b6004846006811115611af257611af26121e6565b1415611c0557826001600160a01b031663c66a9c5a6040518163ffffffff1660e01b815260040160206040518083038186803b158015611b3157600080fd5b505afa158015611b45573d6000803e3d6000fd5b505050506040513d601f19601f82011682018060405250810190611b699190612d03565b9050611b7f6001600160a01b038a16828a610bd1565b806001600160a01b031663234636248a8a8a8e8b6040518663ffffffff1660e01b8152600401611bb3959493929190612d20565b602060405180830381600087803b158015611bcd57600080fd5b505af1158015611be1573d6000803e3d6000fd5b505050506040513d601f19601f82011682018060405250810190611887919061295e565b6005846006811115611c1957611c196121e6565b1415611d4857826001600160a01b03166395b12c276040518163ffffffff1660e01b815260040160206040518083038186803b158015611c5857600080fd5b505afa158015611c6c573d6000803e3d6000fd5b505050506040513d601f19601f82011682018060405250810190611c909190612d03565b9050611ca66001600160a01b038a16828a610bd1565b806001600160a01b031663a00293018a8a8a8e8b6040518663ffffffff1660e01b8152600401611cda959493929190612d20565b602060405180830381600087803b158015611cf457600080fd5b505af1158015611d08573d6000803e3d6000fd5b505050506040513d601f19601f82011682018060405250810190611d2c919061295e565b9150611d436001600160a01b038a16826000611f5e565b611e65565b6006846006811115611d5c57611d5c6121e6565b1415611e1d57826001600160a01b03166395b12c276040518163ffffffff1660e01b815260040160206040518083038186803b158015611d9b57600080fd5b505afa158015611daf573d6000803e3d6000fd5b505050506040513d601f19601f82011682018060405250810190611dd39190612d03565b9050611de96001600160a01b038a16828a610bd1565b806001600160a01b0316639e422c338a8a8a8e8b6040518663ffffffff1660e01b8152600401611cda959493929190612d20565b60405162461bcd60e51b815260206004820152601960248201527f6272696467652074797065206e6f7420737570706f72746564000000000000006044820152606401610344565b9850989650505050505050565b6040516001600160601b031930606090811b8216602084015287811b8216603484015286901b166048820152605c81018490526001600160c01b031960c084811b8216607c84015283811b8216608484015246901b16608c8201526000906094015b60405160208183030381529060405280519060200120905095945050505050565b6040516001600160601b031930606090811b8216602084015286811b82166034840152604883018690526001600160c01b031960c086811b821660688601529189901b909216607084015283811b8216608484015246901b16608c820152600090609401611ed4565b801580611fe75750604051636eb1769f60e11b81523060048201526001600160a01b03838116602483015284169063dd62ed3e9060440160206040518083038186803b158015611fad57600080fd5b505afa158015611fc1573d6000803e3d6000fd5b505050506040513d601f19601f82011682018060405250810190611fe5919061295e565b155b6120525760405162461bcd60e51b815260206004820152603660248201527f5361666545524332303a20617070726f76652066726f6d206e6f6e2d7a65726f60448201527520746f206e6f6e2d7a65726f20616c6c6f77616e636560501b6064820152608401610344565b6040516001600160a01b03831660248201526044810182905261125990849063095ea7b360e01b90606401610c8e565b6040516001600160601b031930606090811b8216602084015285811b821660348401526048830185905286901b1660688201526001600160c01b031960c083811b8216607c84015246901b166084820152600090608c01610bb0565b60008083601f8401126120f057600080fd5b5081356001600160401b0381111561210757600080fd5b60208301915083602082850101111561211f57600080fd5b9250929050565b6001600160401b0381168114610b9457600080fd5b6001600160a01b0381168114610b9457600080fd5b6000806000806000806080878903121561216957600080fd5b86356001600160401b038082111561218057600080fd5b61218c8a838b016120de565b9098509650602089013591506121a182612126565b909450604088013590808211156121b757600080fd5b506121c489828a016120de565b90945092505060608701356121d88161213b565b809150509295509295509295565b634e487b7160e01b600052602160045260246000fd5b6020810160038310612210576122106121e6565b91905290565b60008060008060006080868803121561222e57600080fd5b85356122398161213b565b94506020860135935060408601356001600160401b0381111561225b57600080fd5b612267888289016120de565b909450925050606086013561227b8161213b565b809150509295509295909350565b60006020828403121561229b57600080fd5b81356115088161213b565b600080604083850312156122b957600080fd5b82356122c48161213b565b946020939093013593505050565b634e487b7160e01b600052604160045260246000fd5b604051608081016001600160401b038111828210171561230a5761230a6122d2565b60405290565b604051606081016001600160401b038111828210171561230a5761230a6122d2565b604051601f8201601f191681016001600160401b038111828210171561235a5761235a6122d2565b604052919050565b60006001600160401b0382111561237b5761237b6122d2565b50601f01601f191660200190565b600082601f83011261239a57600080fd5b81356123ad6123a882612362565b612332565b8181528460208386010111156123c257600080fd5b816020850160208301376000918101602001919091529392505050565b60008060008060008060c087890312156123f857600080fd5b86356124038161213b565b955060208701356124138161213b565b945060408701359350606087013561242a81612126565b925060808701356001600160401b0381111561244557600080fd5b61245189828a01612389565b92505060a08701356121d88161213b565b60006060828403121561247457600080fd5b50919050565b803563ffffffff8116811461248e57600080fd5b919050565b600080600080600080600060e0888a0312156124ae57600080fd5b87356124b98161213b565b96506020880135955060408801356124d081612126565b945060608801356001600160401b03808211156124ec57600080fd5b6124f88b838c01612462565b955060808a013591508082111561250e57600080fd5b5061251b8a828b01612462565b93505061252a60a0890161247a565b915060c088013561253a81612126565b8091505092959891949750929550565b60008060008060006080868803121561256257600080fd5b853561256d8161213b565b9450602086013561257d81612126565b935060408601356001600160401b0381111561225b57600080fd5b8015158114610b9457600080fd5b600080600080600080600080610100898b0312156125c357600080fd5b88356125ce8161213b565b97506020890135965060408901356125e581612126565b955060608901356001600160401b038082111561260157600080fd5b61260d8c838d01612462565b965060808b013591508082111561262357600080fd5b506126308b828c01612462565b94505061263f60a08a0161247a565b925060c089013561264f81612126565b915060e089013561265f81612598565b809150509295985092959890939650565b60208082526019908201527f63616c6c6572206973206e6f74206d6573736167652062757300000000000000604082015260600190565b6020808252818101527f4f776e61626c653a2063616c6c6572206973206e6f7420746865206f776e6572604082015260600190565b60006001600160401b038211156126f5576126f56122d2565b5060051b60200190565b805161248e8161213b565b60005b8381101561272557818101518382015260200161270d565b83811115610cc55750506000910152565b600082601f83011261274757600080fd5b81516127556123a882612362565b81815284602083860101111561276a57600080fd5b610bc982602083016020870161270a565b805161248e81612126565b805161248e81612598565b600060208083850312156127a457600080fd5b82516001600160401b03808211156127bb57600080fd5b90840190608082870312156127cf57600080fd5b6127d76122e8565b8251828111156127e657600080fd5b8301606081890312156127f857600080fd5b612800612310565b81518481111561280f57600080fd5b8201601f81018a1361282057600080fd5b805161282e6123a8826126dc565b81815260059190911b8201880190888101908c83111561284d57600080fd5b928901925b828410156128745783516128658161213b565b82529289019290890190612852565b8452505050818601518481111561288a57600080fd5b6128968a828501612736565b87830152506040820151848111156128ad57600080fd5b6128b98a828501612736565b6040830152508252506128cd8385016126ff565b848201526128dd6040840161277b565b60408201526128ee60608401612786565b60608201529695505050505050565b6004811061290d5761290d6121e6565b9052565b8381526020810183905260608101610bc960408301846128fd565b634e487b7160e01b600052603260045260246000fd5b6000825161295481846020870161270a565b9190910192915050565b60006020828403121561297057600080fd5b5051919050565b634e487b7160e01b600052601160045260246000fd5b60008282101561299f5761299f612977565b500390565b6000808335601e198436030181126129bb57600080fd5b8301803591506001600160401b038211156129d557600080fd5b6020019150600581901b360382131561211f57600080fd5b6000606082360312156129ff57600080fd5b612a07612310565b82356001600160401b0380821115612a1e57600080fd5b9084019036601f830112612a3157600080fd5b81356020612a416123a8836126dc565b82815260059290921b84018101918181019036841115612a6057600080fd5b948201945b83861015612a87578535612a788161213b565b82529482019490820190612a65565b86525086810135935082841115612a9d57600080fd5b612aa936858901612389565b90850152506040850135915080821115612ac257600080fd5b50612acf36828601612389565b60408301525092915050565b6bffffffffffffffffffffffff198560601b16815260006001600160401b0360c01b808660c01b166014840152808560c01b16601c840152508251612b2781602485016020870161270a565b9190910160240195945050505050565b60008219821115612b4a57612b4a612977565b500190565b600060208284031215612b6157600080fd5b815161150881612598565b60008151808452612b8481602086016020860161270a565b601f01601f19169290920160200192915050565b805160608084528151908401819052600091602091908201906080860190845b81811015612bdd5783516001600160a01b031683529284019291840191600101612bb8565b505082850151915085810383870152612bf68183612b6c565b92505050604083015184820360408601526103848282612b6c565b6001600160a01b0386811682526001600160401b03868116602084015290851660408301528316606082015260a06080820181905260009061166c90830184612b98565b602081526000825160806020840152612c7160a0840182612b98565b905060018060a01b0360208501511660408401526001600160401b0360408501511660608401526060840151151560808401528091505092915050565b6001600160a01b0386811682526001600160401b0386166020830152841660408201526060810183905260a06080820181905260009061166c90830184612b6c565b6020815260006115086020830184612b6c565b600060208284031215612d1557600080fd5b81516115088161213b565b6001600160a01b03958616815260208101949094526001600160401b0392831660408501529316606083015291909116608082015260a0019056fea2646970667358221220125c49bce1868cd683e29442f23c215e790e2696ea32c816b3e0d4f69ed14ffd64736f6c63430008090033",
			"opcodes": "PUSH1 0x80 PUSH1 0x40 MSTORE CALLVALUE DUP1 ISZERO PUSH3 0x11 JUMPI PUSH1 0x0 DUP1 REVERT JUMPDEST POP PUSH1 0x40 MLOAD PUSH3 0x2EB7 CODESIZE SUB DUP1 PUSH3 0x2EB7 DUP4 CODECOPY DUP2 ADD PUSH1 0x40 DUP2 SWAP1 MSTORE PUSH3 0x34 SWAP2 PUSH3 0xDE JUMP JUMPDEST PUSH3 0x3F CALLER PUSH3 0x71 JUMP JUMPDEST PUSH1 0x1 DUP1 SLOAD PUSH1 0x1 PUSH1 0x1 PUSH1 0xA0 SHL SUB SWAP4 DUP5 AND PUSH1 0x1 PUSH1 0x1 PUSH1 0xA0 SHL SUB NOT SWAP2 DUP3 AND OR SWAP1 SWAP2 SSTORE PUSH1 0x4 DUP1 SLOAD SWAP3 SWAP1 SWAP4 AND SWAP2 AND OR SWAP1 SSTORE PUSH3 0x116 JUMP JUMPDEST PUSH1 0x0 DUP1 SLOAD PUSH1 0x1 PUSH1 0x1 PUSH1 0xA0 SHL SUB DUP4 DUP2 AND PUSH1 0x1 PUSH1 0x1 PUSH1 0xA0 SHL SUB NOT DUP4 AND DUP2 OR DUP5 SSTORE PUSH1 0x40 MLOAD SWAP2 SWAP1 SWAP3 AND SWAP3 DUP4 SWAP2 PUSH32 0x8BE0079C531659141344CD1FD0A4F28419497F9722A3DAAFE3B4186F6B6457E0 SWAP2 SWAP1 LOG3 POP POP JUMP JUMPDEST DUP1 MLOAD PUSH1 0x1 PUSH1 0x1 PUSH1 0xA0 SHL SUB DUP2 AND DUP2 EQ PUSH3 0xD9 JUMPI PUSH1 0x0 DUP1 REVERT JUMPDEST SWAP2 SWAP1 POP JUMP JUMPDEST PUSH1 0x0 DUP1 PUSH1 0x40 DUP4 DUP6 SUB SLT ISZERO PUSH3 0xF2 JUMPI PUSH1 0x0 DUP1 REVERT JUMPDEST PUSH3 0xFD DUP4 PUSH3 0xC1 JUMP JUMPDEST SWAP2 POP PUSH3 0x10D PUSH1 0x20 DUP5 ADD PUSH3 0xC1 JUMP JUMPDEST SWAP1 POP SWAP3 POP SWAP3 SWAP1 POP JUMP JUMPDEST PUSH2 0x2D91 DUP1 PUSH3 0x126 PUSH1 0x0 CODECOPY PUSH1 0x0 RETURN INVALID PUSH1 0x80 PUSH1 0x40 MSTORE PUSH1 0x4 CALLDATASIZE LT PUSH2 0x102 JUMPI PUSH1 0x0 CALLDATALOAD PUSH1 0xE0 SHR DUP1 PUSH4 0x5B5A66A7 GT PUSH2 0x95 JUMPI DUP1 PUSH4 0x9C649FDF GT PUSH2 0x64 JUMPI DUP1 PUSH4 0x9C649FDF EQ PUSH2 0x296 JUMPI DUP1 PUSH4 0xA1A227FA EQ PUSH2 0x2A4 JUMPI DUP1 PUSH4 0xE3CB78A8 EQ PUSH2 0x2C4 JUMPI DUP1 PUSH4 0xE97EDF09 EQ PUSH2 0x2D7 JUMPI DUP1 PUSH4 0xF2FDE38B EQ PUSH2 0x2F7 JUMPI PUSH1 0x0 DUP1 REVERT JUMPDEST DUP1 PUSH4 0x5B5A66A7 EQ PUSH2 0x232 JUMPI DUP1 PUSH4 0x7CD2BFFC EQ PUSH2 0x252 JUMPI DUP1 PUSH4 0x8DA5CB5B EQ PUSH2 0x265 JUMPI DUP1 PUSH4 0x9398BF46 EQ PUSH2 0x283 JUMPI PUSH1 0x0 DUP1 REVERT JUMPDEST DUP1 PUSH4 0x457BFA2F GT PUSH2 0xD1 JUMPI DUP1 PUSH4 0x457BFA2F EQ PUSH2 0x1BD JUMPI DUP1 PUSH4 0x496DBFD9 EQ PUSH2 0x1DD JUMPI DUP1 PUSH4 0x547CAD12 EQ PUSH2 0x1FF JUMPI DUP1 PUSH4 0x5AB7AFC6 EQ PUSH2 0x21F JUMPI PUSH1 0x0 DUP1 REVERT JUMPDEST DUP1 PUSH4 0x63CE4E5 EQ PUSH2 0x10E JUMPI DUP1 PUSH4 0xBCB4982 EQ PUSH2 0x137 JUMPI DUP1 PUSH4 0x1306342D EQ PUSH2 0x14A JUMPI DUP1 PUSH4 0x34E18125 EQ PUSH2 0x182 JUMPI PUSH1 0x0 DUP1 REVERT JUMPDEST CALLDATASIZE PUSH2 0x109 JUMPI STOP JUMPDEST PUSH1 0x0 DUP1 REVERT JUMPDEST PUSH2 0x121 PUSH2 0x11C CALLDATASIZE PUSH1 0x4 PUSH2 0x2150 JUMP JUMPDEST PUSH2 0x317 JUMP JUMPDEST PUSH1 0x40 MLOAD PUSH2 0x12E SWAP2 SWAP1 PUSH2 0x21FC JUMP JUMPDEST PUSH1 0x40 MLOAD DUP1 SWAP2 SUB SWAP1 RETURN JUMPDEST PUSH2 0x121 PUSH2 0x145 CALLDATASIZE PUSH1 0x4 PUSH2 0x2216 JUMP JUMPDEST PUSH2 0x357 JUMP JUMPDEST CALLVALUE DUP1 ISZERO PUSH2 0x156 JUMPI PUSH1 0x0 DUP1 REVERT JUMPDEST POP PUSH1 0x2 SLOAD PUSH2 0x16A SWAP1 PUSH1 0x1 PUSH1 0x1 PUSH1 0xA0 SHL SUB AND DUP2 JUMP JUMPDEST PUSH1 0x40 MLOAD PUSH1 0x1 PUSH1 0x1 PUSH1 0xA0 SHL SUB SWAP1 SWAP2 AND DUP2 MSTORE PUSH1 0x20 ADD PUSH2 0x12E JUMP JUMPDEST CALLVALUE DUP1 ISZERO PUSH2 0x18E JUMPI PUSH1 0x0 DUP1 REVERT JUMPDEST POP PUSH2 0x1AF PUSH2 0x19D CALLDATASIZE PUSH1 0x4 PUSH2 0x2289 JUMP JUMPDEST PUSH1 0x3 PUSH1 0x20 MSTORE PUSH1 0x0 SWAP1 DUP2 MSTORE PUSH1 0x40 SWAP1 KECCAK256 SLOAD DUP2 JUMP JUMPDEST PUSH1 0x40 MLOAD SWAP1 DUP2 MSTORE PUSH1 0x20 ADD PUSH2 0x12E JUMP JUMPDEST CALLVALUE DUP1 ISZERO PUSH2 0x1C9 JUMPI PUSH1 0x0 DUP1 REVERT JUMPDEST POP PUSH1 0x4 SLOAD PUSH2 0x16A SWAP1 PUSH1 0x1 PUSH1 0x1 PUSH1 0xA0 SHL SUB AND DUP2 JUMP JUMPDEST CALLVALUE DUP1 ISZERO PUSH2 0x1E9 JUMPI PUSH1 0x0 DUP1 REVERT JUMPDEST POP PUSH2 0x1FD PUSH2 0x1F8 CALLDATASIZE PUSH1 0x4 PUSH2 0x22A6 JUMP JUMPDEST PUSH2 0x38D JUMP JUMPDEST STOP JUMPDEST CALLVALUE DUP1 ISZERO PUSH2 0x20B JUMPI PUSH1 0x0 DUP1 REVERT JUMPDEST POP PUSH2 0x1FD PUSH2 0x21A CALLDATASIZE PUSH1 0x4 PUSH2 0x2289 JUMP JUMPDEST PUSH2 0x3E2 JUMP JUMPDEST PUSH2 0x121 PUSH2 0x22D CALLDATASIZE PUSH1 0x4 PUSH2 0x23DF JUMP JUMPDEST PUSH2 0x46F JUMP JUMPDEST CALLVALUE DUP1 ISZERO PUSH2 0x23E JUMPI PUSH1 0x0 DUP1 REVERT JUMPDEST POP PUSH2 0x1FD PUSH2 0x24D CALLDATASIZE PUSH1 0x4 PUSH2 0x2289 JUMP JUMPDEST PUSH2 0x514 JUMP JUMPDEST PUSH2 0x121 PUSH2 0x260 CALLDATASIZE PUSH1 0x4 PUSH2 0x23DF JUMP JUMPDEST PUSH2 0x56F JUMP JUMPDEST CALLVALUE DUP1 ISZERO PUSH2 0x271 JUMPI PUSH1 0x0 DUP1 REVERT JUMPDEST POP PUSH1 0x0 SLOAD PUSH1 0x1 PUSH1 0x1 PUSH1 0xA0 SHL SUB AND PUSH2 0x16A JUMP JUMPDEST PUSH2 0x1FD PUSH2 0x291 CALLDATASIZE PUSH1 0x4 PUSH2 0x2493 JUMP JUMPDEST PUSH2 0x850 JUMP JUMPDEST PUSH2 0x121 PUSH2 0x145 CALLDATASIZE PUSH1 0x4 PUSH2 0x254A JUMP JUMPDEST CALLVALUE DUP1 ISZERO PUSH2 0x2B0 JUMPI PUSH1 0x0 DUP1 REVERT JUMPDEST POP PUSH1 0x1 SLOAD PUSH2 0x16A SWAP1 PUSH1 0x1 PUSH1 0x1 PUSH1 0xA0 SHL SUB AND DUP2 JUMP JUMPDEST PUSH2 0x1FD PUSH2 0x2D2 CALLDATASIZE PUSH1 0x4 PUSH2 0x25A6 JUMP JUMPDEST PUSH2 0x8FB JUMP JUMPDEST CALLVALUE DUP1 ISZERO PUSH2 0x2E3 JUMPI PUSH1 0x0 DUP1 REVERT JUMPDEST POP PUSH2 0x1FD PUSH2 0x2F2 CALLDATASIZE PUSH1 0x4 PUSH2 0x2289 JUMP JUMPDEST PUSH2 0xA92 JUMP JUMPDEST CALLVALUE DUP1 ISZERO PUSH2 0x303 JUMPI PUSH1 0x0 DUP1 REVERT JUMPDEST POP PUSH2 0x1FD PUSH2 0x312 CALLDATASIZE PUSH1 0x4 PUSH2 0x2289 JUMP JUMPDEST PUSH2 0xAED JUMP JUMPDEST PUSH1 0x1 SLOAD PUSH1 0x0 SWAP1 PUSH1 0x1 PUSH1 0x1 PUSH1 0xA0 SHL SUB AND CALLER EQ PUSH2 0x34D JUMPI PUSH1 0x40 MLOAD PUSH3 0x461BCD PUSH1 0xE5 SHL DUP2 MSTORE PUSH1 0x4 ADD PUSH2 0x344 SWAP1 PUSH2 0x2670 JUMP JUMPDEST PUSH1 0x40 MLOAD DUP1 SWAP2 SUB SWAP1 REVERT JUMPDEST SWAP7 SWAP6 POP POP POP POP POP POP JUMP JUMPDEST PUSH1 0x1 SLOAD PUSH1 0x0 SWAP1 PUSH1 0x1 PUSH1 0x1 PUSH1 0xA0 SHL SUB AND CALLER EQ PUSH2 0x384 JUMPI PUSH1 0x40 MLOAD PUSH3 0x461BCD PUSH1 0xE5 SHL DUP2 MSTORE PUSH1 0x4 ADD PUSH2 0x344 SWAP1 PUSH2 0x2670 JUMP JUMPDEST SWAP6 SWAP5 POP POP POP POP POP JUMP JUMPDEST CALLER PUSH2 0x3A0 PUSH1 0x0 SLOAD PUSH1 0x1 PUSH1 0x1 PUSH1 0xA0 SHL SUB AND SWAP1 JUMP JUMPDEST PUSH1 0x1 PUSH1 0x1 PUSH1 0xA0 SHL SUB AND EQ PUSH2 0x3C6 JUMPI PUSH1 0x40 MLOAD PUSH3 0x461BCD PUSH1 0xE5 SHL DUP2 MSTORE PUSH1 0x4 ADD PUSH2 0x344 SWAP1 PUSH2 0x26A7 JUMP JUMPDEST PUSH1 0x1 PUSH1 0x1 PUSH1 0xA0 SHL SUB SWAP1 SWAP2 AND PUSH1 0x0 SWAP1 DUP2 MSTORE PUSH1 0x3 PUSH1 0x20 MSTORE PUSH1 0x40 SWAP1 KECCAK256 SSTORE JUMP JUMPDEST CALLER PUSH2 0x3F5 PUSH1 0x0 SLOAD PUSH1 0x1 PUSH1 0x1 PUSH1 0xA0 SHL SUB AND SWAP1 JUMP JUMPDEST PUSH1 0x1 PUSH1 0x1 PUSH1 0xA0 SHL SUB AND EQ PUSH2 0x41B JUMPI PUSH1 0x40 MLOAD PUSH3 0x461BCD PUSH1 0xE5 SHL DUP2 MSTORE PUSH1 0x4 ADD PUSH2 0x344 SWAP1 PUSH2 0x26A7 JUMP JUMPDEST PUSH1 0x1 DUP1 SLOAD PUSH1 0x1 PUSH1 0x1 PUSH1 0xA0 SHL SUB NOT AND PUSH1 0x1 PUSH1 0x1 PUSH1 0xA0 SHL SUB DUP4 AND SWAP1 DUP2 OR SWAP1 SWAP2 SSTORE PUSH1 0x40 MLOAD SWAP1 DUP2 MSTORE PUSH32 0x3F8223BCD8B3B875473E9F9E14E1AD075451A2B5FFD31591655DA9A01516BF5E SWAP1 PUSH1 0x20 ADD PUSH1 0x40 MLOAD DUP1 SWAP2 SUB SWAP1 LOG1 POP JUMP JUMPDEST PUSH1 0x1 SLOAD PUSH1 0x0 SWAP1 PUSH1 0x1 PUSH1 0x1 PUSH1 0xA0 SHL SUB AND CALLER EQ PUSH2 0x49C JUMPI PUSH1 0x40 MLOAD PUSH3 0x461BCD PUSH1 0xE5 SHL DUP2 MSTORE PUSH1 0x4 ADD PUSH2 0x344 SWAP1 PUSH2 0x2670 JUMP JUMPDEST PUSH1 0x0 DUP4 DUP1 PUSH1 0x20 ADD SWAP1 MLOAD DUP2 ADD SWAP1 PUSH2 0x4B2 SWAP2 SWAP1 PUSH2 0x2791 JUMP JUMPDEST SWAP1 POP PUSH1 0x0 PUSH2 0x4C6 DUP3 PUSH1 0x20 ADD MLOAD DUP8 CHAINID DUP9 PUSH2 0xB97 JUMP JUMPDEST SWAP1 POP PUSH32 0xCCBB695DB2DFB79E3F69BCF724D11B850C79B0AE358E62D60ED94044F38A2B9C DUP2 PUSH1 0x0 PUSH1 0x2 PUSH1 0x40 MLOAD PUSH2 0x4FD SWAP4 SWAP3 SWAP2 SWAP1 PUSH2 0x2911 JUMP JUMPDEST PUSH1 0x40 MLOAD DUP1 SWAP2 SUB SWAP1 LOG1 POP PUSH1 0x0 SWAP9 SWAP8 POP POP POP POP POP POP POP POP JUMP JUMPDEST CALLER PUSH2 0x527 PUSH1 0x0 SLOAD PUSH1 0x1 PUSH1 0x1 PUSH1 0xA0 SHL SUB AND SWAP1 JUMP JUMPDEST PUSH1 0x1 PUSH1 0x1 PUSH1 0xA0 SHL SUB AND EQ PUSH2 0x54D JUMPI PUSH1 0x40 MLOAD PUSH3 0x461BCD PUSH1 0xE5 SHL DUP2 MSTORE PUSH1 0x4 ADD PUSH2 0x344 SWAP1 PUSH2 0x26A7 JUMP JUMPDEST PUSH1 0x4 DUP1 SLOAD PUSH1 0x1 PUSH1 0x1 PUSH1 0xA0 SHL SUB NOT AND PUSH1 0x1 PUSH1 0x1 PUSH1 0xA0 SHL SUB SWAP3 SWAP1 SWAP3 AND SWAP2 SWAP1 SWAP2 OR SWAP1 SSTORE JUMP JUMPDEST PUSH1 0x1 SLOAD PUSH1 0x0 SWAP1 PUSH1 0x1 PUSH1 0x1 PUSH1 0xA0 SHL SUB AND CALLER EQ PUSH2 0x59C JUMPI PUSH1 0x40 MLOAD PUSH3 0x461BCD PUSH1 0xE5 SHL DUP2 MSTORE PUSH1 0x4 ADD PUSH2 0x344 SWAP1 PUSH2 0x2670 JUMP JUMPDEST PUSH1 0x0 DUP4 DUP1 PUSH1 0x20 ADD SWAP1 MLOAD DUP2 ADD SWAP1 PUSH2 0x5B2 SWAP2 SWAP1 PUSH2 0x2791 JUMP JUMPDEST DUP1 MLOAD MLOAD DUP1 MLOAD SWAP2 SWAP3 POP SWAP1 PUSH1 0x0 SWAP1 PUSH2 0x5CA JUMPI PUSH2 0x5CA PUSH2 0x292C JUMP JUMPDEST PUSH1 0x20 MUL PUSH1 0x20 ADD ADD MLOAD PUSH1 0x1 PUSH1 0x1 PUSH1 0xA0 SHL SUB AND DUP8 PUSH1 0x1 PUSH1 0x1 PUSH1 0xA0 SHL SUB AND EQ PUSH2 0x66B JUMPI PUSH1 0x40 MLOAD PUSH3 0x461BCD PUSH1 0xE5 SHL DUP2 MSTORE PUSH1 0x20 PUSH1 0x4 DUP3 ADD MSTORE PUSH1 0x4A PUSH1 0x24 DUP3 ADD MSTORE PUSH32 0x6272696467656420746F6B656E206D757374206265207468652073616D652061 PUSH1 0x44 DUP3 ADD MSTORE PUSH32 0x732074686520666972737420746F6B656E20696E2064657374696E6174696F6E PUSH1 0x64 DUP3 ADD MSTORE PUSH10 0x40E6EEC2E040E0C2E8D PUSH1 0xB3 SHL PUSH1 0x84 DUP3 ADD MSTORE PUSH1 0xA4 ADD PUSH2 0x344 JUMP JUMPDEST PUSH1 0x0 PUSH2 0x67D DUP3 PUSH1 0x20 ADD MLOAD DUP8 CHAINID DUP9 PUSH2 0xB97 JUMP JUMPDEST DUP3 MLOAD MLOAD MLOAD SWAP1 SWAP2 POP PUSH1 0x0 SWAP1 PUSH1 0x1 SWAP1 DUP2 LT ISZERO PUSH2 0x7CC JUMPI PUSH1 0x2 SLOAD DUP5 MLOAD MLOAD DUP1 MLOAD PUSH2 0x6D8 SWAP3 PUSH1 0x1 PUSH1 0x1 PUSH1 0xA0 SHL SUB AND SWAP2 DUP13 SWAP2 PUSH1 0x0 SWAP1 PUSH2 0x6B8 JUMPI PUSH2 0x6B8 PUSH2 0x292C JUMP JUMPDEST PUSH1 0x20 MUL PUSH1 0x20 ADD ADD MLOAD PUSH1 0x1 PUSH1 0x1 PUSH1 0xA0 SHL SUB AND PUSH2 0xBD1 SWAP1 SWAP3 SWAP2 SWAP1 PUSH4 0xFFFFFFFF AND JUMP JUMPDEST PUSH1 0x2 SLOAD DUP5 MLOAD PUSH1 0x40 SWAP1 DUP2 ADD MLOAD SWAP1 MLOAD PUSH1 0x0 SWAP3 DUP4 SWAP3 PUSH1 0x1 PUSH1 0x1 PUSH1 0xA0 SHL SUB SWAP1 SWAP2 AND SWAP2 PUSH2 0x700 SWAP2 SWAP1 PUSH2 0x2942 JUMP JUMPDEST PUSH1 0x0 PUSH1 0x40 MLOAD DUP1 DUP4 SUB DUP2 PUSH1 0x0 DUP7 GAS CALL SWAP2 POP POP RETURNDATASIZE DUP1 PUSH1 0x0 DUP2 EQ PUSH2 0x73D JUMPI PUSH1 0x40 MLOAD SWAP2 POP PUSH1 0x1F NOT PUSH1 0x3F RETURNDATASIZE ADD AND DUP3 ADD PUSH1 0x40 MSTORE RETURNDATASIZE DUP3 MSTORE RETURNDATASIZE PUSH1 0x0 PUSH1 0x20 DUP5 ADD RETURNDATACOPY PUSH2 0x742 JUMP JUMPDEST PUSH1 0x60 SWAP2 POP JUMPDEST POP SWAP2 POP SWAP2 POP PUSH1 0x0 DUP2 DUP1 PUSH1 0x20 ADD SWAP1 MLOAD DUP2 ADD SWAP1 PUSH2 0x75D SWAP2 SWAP1 PUSH2 0x295E JUMP JUMPDEST SWAP1 POP DUP3 ISZERO PUSH2 0x7AC JUMPI DUP7 MLOAD MLOAD DUP1 MLOAD PUSH2 0x7A3 SWAP2 SWAP1 PUSH2 0x77B SWAP1 PUSH1 0x1 SWAP1 PUSH2 0x298D JUMP JUMPDEST DUP2 MLOAD DUP2 LT PUSH2 0x78B JUMPI PUSH2 0x78B PUSH2 0x292C JUMP JUMPDEST PUSH1 0x20 MUL PUSH1 0x20 ADD ADD MLOAD DUP3 DUP10 PUSH1 0x20 ADD MLOAD DUP11 PUSH1 0x60 ADD MLOAD PUSH2 0xCCB JUMP JUMPDEST PUSH1 0x1 SWAP4 POP PUSH2 0x7C4 JUMP JUMPDEST PUSH2 0x7BD DUP14 DUP14 DUP10 PUSH1 0x20 ADD MLOAD PUSH1 0x0 PUSH2 0xCCB JUMP JUMPDEST POP PUSH1 0x3 SWAP3 POP DUP11 JUMPDEST POP POP POP PUSH2 0x804 JUMP JUMPDEST DUP4 MLOAD MLOAD DUP1 MLOAD PUSH2 0x7FD SWAP2 SWAP1 PUSH1 0x0 SWAP1 PUSH2 0x7E5 JUMPI PUSH2 0x7E5 PUSH2 0x292C JUMP JUMPDEST PUSH1 0x20 MUL PUSH1 0x20 ADD ADD MLOAD DUP11 DUP7 PUSH1 0x20 ADD MLOAD DUP8 PUSH1 0x60 ADD MLOAD PUSH2 0xCCB JUMP JUMPDEST POP DUP8 SWAP1 POP PUSH1 0x1 JUMPDEST PUSH32 0xCCBB695DB2DFB79E3F69BCF724D11B850C79B0AE358E62D60ED94044F38A2B9C DUP4 DUP4 DUP4 PUSH1 0x40 MLOAD PUSH2 0x837 SWAP4 SWAP3 SWAP2 SWAP1 PUSH2 0x2911 JUMP JUMPDEST PUSH1 0x40 MLOAD DUP1 SWAP2 SUB SWAP1 LOG1 POP PUSH1 0x1 SWAP11 SWAP10 POP POP POP POP POP POP POP POP POP POP JUMP JUMPDEST CALLER ORIGIN EQ PUSH2 0x889 JUMPI PUSH1 0x40 MLOAD PUSH3 0x461BCD PUSH1 0xE5 SHL DUP2 MSTORE PUSH1 0x20 PUSH1 0x4 DUP3 ADD MSTORE PUSH1 0x7 PUSH1 0x24 DUP3 ADD MSTORE PUSH7 0x4E6F7420454F41 PUSH1 0xC8 SHL PUSH1 0x44 DUP3 ADD MSTORE PUSH1 0x64 ADD PUSH2 0x344 JUMP JUMPDEST PUSH2 0x8D0 CALLER ADDRESS DUP9 PUSH2 0x899 DUP9 DUP1 PUSH2 0x29A4 JUMP JUMPDEST PUSH1 0x0 DUP2 DUP2 LT PUSH2 0x8AA JUMPI PUSH2 0x8AA PUSH2 0x292C JUMP JUMPDEST SWAP1 POP PUSH1 0x20 MUL ADD PUSH1 0x20 DUP2 ADD SWAP1 PUSH2 0x8BF SWAP2 SWAP1 PUSH2 0x2289 JUMP JUMPDEST PUSH1 0x1 PUSH1 0x1 PUSH1 0xA0 SHL SUB AND SWAP3 SWAP2 SWAP1 PUSH2 0xE35 JUMP JUMPDEST PUSH2 0x8F2 DUP8 DUP8 DUP8 PUSH2 0x8DF DUP9 PUSH2 0x29ED JUMP JUMPDEST PUSH2 0x8E8 DUP9 PUSH2 0x29ED JUMP JUMPDEST DUP8 DUP8 PUSH1 0x0 CALLVALUE PUSH2 0xE6D JUMP JUMPDEST POP POP POP POP POP POP POP JUMP JUMPDEST CALLER ORIGIN EQ PUSH2 0x934 JUMPI PUSH1 0x40 MLOAD PUSH3 0x461BCD PUSH1 0xE5 SHL DUP2 MSTORE PUSH1 0x20 PUSH1 0x4 DUP3 ADD MSTORE PUSH1 0x7 PUSH1 0x24 DUP3 ADD MSTORE PUSH7 0x4E6F7420454F41 PUSH1 0xC8 SHL PUSH1 0x44 DUP3 ADD MSTORE PUSH1 0x64 ADD PUSH2 0x344 JUMP JUMPDEST DUP7 CALLVALUE LT ISZERO PUSH2 0x97A JUMPI PUSH1 0x40 MLOAD PUSH3 0x461BCD PUSH1 0xE5 SHL DUP2 MSTORE PUSH1 0x20 PUSH1 0x4 DUP3 ADD MSTORE PUSH1 0x13 PUSH1 0x24 DUP3 ADD MSTORE PUSH19 0x105B5BDD5B9D081A5B9CDD59999A58DA595B9D PUSH1 0x6A SHL PUSH1 0x44 DUP3 ADD MSTORE PUSH1 0x64 ADD PUSH2 0x344 JUMP JUMPDEST PUSH1 0x4 SLOAD PUSH1 0x1 PUSH1 0x1 PUSH1 0xA0 SHL SUB AND PUSH2 0x990 DUP7 DUP1 PUSH2 0x29A4 JUMP JUMPDEST PUSH1 0x0 DUP2 DUP2 LT PUSH2 0x9A1 JUMPI PUSH2 0x9A1 PUSH2 0x292C JUMP JUMPDEST SWAP1 POP PUSH1 0x20 MUL ADD PUSH1 0x20 DUP2 ADD SWAP1 PUSH2 0x9B6 SWAP2 SWAP1 PUSH2 0x2289 JUMP JUMPDEST PUSH1 0x1 PUSH1 0x1 PUSH1 0xA0 SHL SUB AND EQ PUSH2 0x9FD JUMPI PUSH1 0x40 MLOAD PUSH3 0x461BCD PUSH1 0xE5 SHL DUP2 MSTORE PUSH1 0x20 PUSH1 0x4 DUP3 ADD MSTORE PUSH1 0xE PUSH1 0x24 DUP3 ADD MSTORE PUSH14 0xE8DED6CADC40DAD2E6DAC2E8C6D PUSH1 0x93 SHL PUSH1 0x44 DUP3 ADD MSTORE PUSH1 0x64 ADD PUSH2 0x344 JUMP JUMPDEST PUSH1 0x4 DUP1 SLOAD PUSH1 0x40 DUP1 MLOAD PUSH4 0xD0E30DB PUSH1 0xE4 SHL DUP2 MSTORE SWAP1 MLOAD PUSH1 0x1 PUSH1 0x1 PUSH1 0xA0 SHL SUB SWAP1 SWAP3 AND SWAP3 PUSH4 0xD0E30DB0 SWAP3 DUP12 SWAP3 DUP1 DUP4 ADD SWAP3 PUSH1 0x0 SWAP3 SWAP2 DUP3 SWAP1 SUB ADD DUP2 DUP6 DUP9 DUP1 EXTCODESIZE ISZERO DUP1 ISZERO PUSH2 0xA42 JUMPI PUSH1 0x0 DUP1 REVERT JUMPDEST POP GAS CALL ISZERO DUP1 ISZERO PUSH2 0xA56 JUMPI RETURNDATASIZE PUSH1 0x0 DUP1 RETURNDATACOPY RETURNDATASIZE PUSH1 0x0 REVERT JUMPDEST POP POP POP POP POP PUSH2 0xA88 DUP9 DUP9 DUP9 DUP9 PUSH2 0xA6B SWAP1 PUSH2 0x29ED JUMP JUMPDEST PUSH2 0xA74 DUP10 PUSH2 0x29ED JUMP JUMPDEST DUP9 DUP9 DUP9 DUP16 CALLVALUE PUSH2 0xA83 SWAP2 SWAP1 PUSH2 0x298D JUMP JUMPDEST PUSH2 0xE6D JUMP JUMPDEST POP POP POP POP POP POP POP POP JUMP JUMPDEST CALLER PUSH2 0xAA5 PUSH1 0x0 SLOAD PUSH1 0x1 PUSH1 0x1 PUSH1 0xA0 SHL SUB AND SWAP1 JUMP JUMPDEST PUSH1 0x1 PUSH1 0x1 PUSH1 0xA0 SHL SUB AND EQ PUSH2 0xACB JUMPI PUSH1 0x40 MLOAD PUSH3 0x461BCD PUSH1 0xE5 SHL DUP2 MSTORE PUSH1 0x4 ADD PUSH2 0x344 SWAP1 PUSH2 0x26A7 JUMP JUMPDEST PUSH1 0x2 DUP1 SLOAD PUSH1 0x1 PUSH1 0x1 PUSH1 0xA0 SHL SUB NOT AND PUSH1 0x1 PUSH1 0x1 PUSH1 0xA0 SHL SUB SWAP3 SWAP1 SWAP3 AND SWAP2 SWAP1 SWAP2 OR SWAP1 SSTORE JUMP JUMPDEST CALLER PUSH2 0xB00 PUSH1 0x0 SLOAD PUSH1 0x1 PUSH1 0x1 PUSH1 0xA0 SHL SUB AND SWAP1 JUMP JUMPDEST PUSH1 0x1 PUSH1 0x1 PUSH1 0xA0 SHL SUB AND EQ PUSH2 0xB26 JUMPI PUSH1 0x40 MLOAD PUSH3 0x461BCD PUSH1 0xE5 SHL DUP2 MSTORE PUSH1 0x4 ADD PUSH2 0x344 SWAP1 PUSH2 0x26A7 JUMP JUMPDEST PUSH1 0x1 PUSH1 0x1 PUSH1 0xA0 SHL SUB DUP2 AND PUSH2 0xB8B JUMPI PUSH1 0x40 MLOAD PUSH3 0x461BCD PUSH1 0xE5 SHL DUP2 MSTORE PUSH1 0x20 PUSH1 0x4 DUP3 ADD MSTORE PUSH1 0x26 PUSH1 0x24 DUP3 ADD MSTORE PUSH32 0x4F776E61626C653A206E6577206F776E657220697320746865207A65726F2061 PUSH1 0x44 DUP3 ADD MSTORE PUSH6 0x646472657373 PUSH1 0xD0 SHL PUSH1 0x64 DUP3 ADD MSTORE PUSH1 0x84 ADD PUSH2 0x344 JUMP JUMPDEST PUSH2 0xB94 DUP2 PUSH2 0x1137 JUMP JUMPDEST POP JUMP JUMPDEST PUSH1 0x0 DUP5 DUP5 DUP5 DUP5 PUSH1 0x40 MLOAD PUSH1 0x20 ADD PUSH2 0xBB0 SWAP5 SWAP4 SWAP3 SWAP2 SWAP1 PUSH2 0x2ADB JUMP JUMPDEST PUSH1 0x40 MLOAD PUSH1 0x20 DUP2 DUP4 SUB SUB DUP2 MSTORE SWAP1 PUSH1 0x40 MSTORE DUP1 MLOAD SWAP1 PUSH1 0x20 ADD KECCAK256 SWAP1 POP JUMPDEST SWAP5 SWAP4 POP POP POP POP JUMP JUMPDEST PUSH1 0x40 MLOAD PUSH4 0x6EB1769F PUSH1 0xE1 SHL DUP2 MSTORE ADDRESS PUSH1 0x4 DUP3 ADD MSTORE PUSH1 0x1 PUSH1 0x1 PUSH1 0xA0 SHL SUB DUP4 DUP2 AND PUSH1 0x24 DUP4 ADD MSTORE PUSH1 0x0 SWAP2 DUP4 SWAP2 DUP7 AND SWAP1 PUSH4 0xDD62ED3E SWAP1 PUSH1 0x44 ADD PUSH1 0x20 PUSH1 0x40 MLOAD DUP1 DUP4 SUB DUP2 DUP7 DUP1 EXTCODESIZE ISZERO DUP1 ISZERO PUSH2 0xC1D JUMPI PUSH1 0x0 DUP1 REVERT JUMPDEST POP GAS STATICCALL ISZERO DUP1 ISZERO PUSH2 0xC31 JUMPI RETURNDATASIZE PUSH1 0x0 DUP1 RETURNDATACOPY RETURNDATASIZE PUSH1 0x0 REVERT JUMPDEST POP POP POP POP PUSH1 0x40 MLOAD RETURNDATASIZE PUSH1 0x1F NOT PUSH1 0x1F DUP3 ADD AND DUP3 ADD DUP1 PUSH1 0x40 MSTORE POP DUP2 ADD SWAP1 PUSH2 0xC55 SWAP2 SWAP1 PUSH2 0x295E JUMP JUMPDEST PUSH2 0xC5F SWAP2 SWAP1 PUSH2 0x2B37 JUMP JUMPDEST PUSH1 0x40 MLOAD PUSH1 0x1 PUSH1 0x1 PUSH1 0xA0 SHL SUB DUP6 AND PUSH1 0x24 DUP3 ADD MSTORE PUSH1 0x44 DUP2 ADD DUP3 SWAP1 MSTORE SWAP1 SWAP2 POP PUSH2 0xCC5 SWAP1 DUP6 SWAP1 PUSH4 0x95EA7B3 PUSH1 0xE0 SHL SWAP1 PUSH1 0x64 ADD JUMPDEST PUSH1 0x40 DUP1 MLOAD PUSH1 0x1F NOT DUP2 DUP5 SUB ADD DUP2 MSTORE SWAP2 SWAP1 MSTORE PUSH1 0x20 DUP2 ADD DUP1 MLOAD PUSH1 0x1 PUSH1 0x1 PUSH1 0xE0 SHL SUB AND PUSH1 0x1 PUSH1 0x1 PUSH1 0xE0 SHL SUB NOT SWAP1 SWAP4 AND SWAP3 SWAP1 SWAP3 OR SWAP1 SWAP2 MSTORE PUSH2 0x1187 JUMP JUMPDEST POP POP POP POP JUMP JUMPDEST DUP1 ISZERO PUSH2 0xE21 JUMPI PUSH1 0x4 SLOAD PUSH1 0x1 PUSH1 0x1 PUSH1 0xA0 SHL SUB DUP6 DUP2 AND SWAP2 AND EQ PUSH2 0xD1F JUMPI PUSH1 0x40 MLOAD PUSH3 0x461BCD PUSH1 0xE5 SHL DUP2 MSTORE PUSH1 0x20 PUSH1 0x4 DUP3 ADD MSTORE PUSH1 0xE PUSH1 0x24 DUP3 ADD MSTORE PUSH14 0xE8DED6CADC40DAD2E6DAC2E8C6D PUSH1 0x93 SHL PUSH1 0x44 DUP3 ADD MSTORE PUSH1 0x64 ADD PUSH2 0x344 JUMP JUMPDEST PUSH1 0x4 DUP1 SLOAD PUSH1 0x40 MLOAD PUSH4 0x2E1A7D4D PUSH1 0xE0 SHL DUP2 MSTORE SWAP2 DUP3 ADD DUP6 SWAP1 MSTORE PUSH1 0x1 PUSH1 0x1 PUSH1 0xA0 SHL SUB AND SWAP1 PUSH4 0x2E1A7D4D SWAP1 PUSH1 0x24 ADD PUSH1 0x0 PUSH1 0x40 MLOAD DUP1 DUP4 SUB DUP2 PUSH1 0x0 DUP8 DUP1 EXTCODESIZE ISZERO DUP1 ISZERO PUSH2 0xD63 JUMPI PUSH1 0x0 DUP1 REVERT JUMPDEST POP GAS CALL ISZERO DUP1 ISZERO PUSH2 0xD77 JUMPI RETURNDATASIZE PUSH1 0x0 DUP1 RETURNDATACOPY RETURNDATASIZE PUSH1 0x0 REVERT JUMPDEST POP POP POP POP PUSH1 0x0 DUP3 PUSH1 0x1 PUSH1 0x1 PUSH1 0xA0 SHL SUB AND DUP5 PUSH2 0xC350 SWAP1 PUSH1 0x40 MLOAD PUSH1 0x0 PUSH1 0x40 MLOAD DUP1 DUP4 SUB DUP2 DUP6 DUP9 DUP9 CALL SWAP4 POP POP POP POP RETURNDATASIZE DUP1 PUSH1 0x0 DUP2 EQ PUSH2 0xDCD JUMPI PUSH1 0x40 MLOAD SWAP2 POP PUSH1 0x1F NOT PUSH1 0x3F RETURNDATASIZE ADD AND DUP3 ADD PUSH1 0x40 MSTORE RETURNDATASIZE DUP3 MSTORE RETURNDATASIZE PUSH1 0x0 PUSH1 0x20 DUP5 ADD RETURNDATACOPY PUSH2 0xDD2 JUMP JUMPDEST PUSH1 0x60 SWAP2 POP JUMPDEST POP POP SWAP1 POP DUP1 PUSH2 0xE1B JUMPI PUSH1 0x40 MLOAD PUSH3 0x461BCD PUSH1 0xE5 SHL DUP2 MSTORE PUSH1 0x20 PUSH1 0x4 DUP3 ADD MSTORE PUSH1 0x15 PUSH1 0x24 DUP3 ADD MSTORE PUSH21 0x6661696C656420746F2073656E64206E6174697665 PUSH1 0x58 SHL PUSH1 0x44 DUP3 ADD MSTORE PUSH1 0x64 ADD PUSH2 0x344 JUMP JUMPDEST POP PUSH2 0xCC5 JUMP JUMPDEST PUSH2 0xCC5 PUSH1 0x1 PUSH1 0x1 PUSH1 0xA0 SHL SUB DUP6 AND DUP4 DUP6 PUSH2 0x125E JUMP JUMPDEST PUSH1 0x40 MLOAD PUSH1 0x1 PUSH1 0x1 PUSH1 0xA0 SHL SUB DUP1 DUP6 AND PUSH1 0x24 DUP4 ADD MSTORE DUP4 AND PUSH1 0x44 DUP3 ADD MSTORE PUSH1 0x64 DUP2 ADD DUP3 SWAP1 MSTORE PUSH2 0xCC5 SWAP1 DUP6 SWAP1 PUSH4 0x23B872DD PUSH1 0xE0 SHL SWAP1 PUSH1 0x84 ADD PUSH2 0xC8E JUMP JUMPDEST DUP6 MLOAD MLOAD PUSH2 0xEB2 JUMPI PUSH1 0x40 MLOAD PUSH3 0x461BCD PUSH1 0xE5 SHL DUP2 MSTORE PUSH1 0x20 PUSH1 0x4 DUP3 ADD MSTORE PUSH1 0x13 PUSH1 0x24 DUP3 ADD MSTORE PUSH19 0xCADAE0E8F240E6E4C640E6EEC2E040E0C2E8D PUSH1 0x6B SHL PUSH1 0x44 DUP3 ADD MSTORE PUSH1 0x64 ADD PUSH2 0x344 JUMP JUMPDEST DUP6 MLOAD DUP1 MLOAD PUSH1 0x0 SWAP2 SWAP1 PUSH2 0xEC6 SWAP1 PUSH1 0x1 SWAP1 PUSH2 0x298D JUMP JUMPDEST DUP2 MLOAD DUP2 LT PUSH2 0xED6 JUMPI PUSH2 0xED6 PUSH2 0x292C JUMP JUMPDEST PUSH1 0x20 MUL PUSH1 0x20 ADD ADD MLOAD SWAP1 POP PUSH1 0x3 PUSH1 0x0 DUP9 PUSH1 0x0 ADD MLOAD PUSH1 0x0 DUP2 MLOAD DUP2 LT PUSH2 0xEFB JUMPI PUSH2 0xEFB PUSH2 0x292C JUMP JUMPDEST PUSH1 0x20 MUL PUSH1 0x20 ADD ADD MLOAD PUSH1 0x1 PUSH1 0x1 PUSH1 0xA0 SHL SUB AND PUSH1 0x1 PUSH1 0x1 PUSH1 0xA0 SHL SUB AND DUP2 MSTORE PUSH1 0x20 ADD SWAP1 DUP2 MSTORE PUSH1 0x20 ADD PUSH1 0x0 KECCAK256 SLOAD DUP10 GT PUSH2 0xF86 JUMPI PUSH1 0x40 MLOAD PUSH3 0x461BCD PUSH1 0xE5 SHL DUP2 MSTORE PUSH1 0x20 PUSH1 0x4 DUP3 ADD MSTORE PUSH1 0x2B PUSH1 0x24 DUP3 ADD MSTORE PUSH32 0x616D6F756E74206D7573742062652067726561746572207468616E206D696E20 PUSH1 0x44 DUP3 ADD MSTORE PUSH11 0x1CDDD85C08185B5BDD5B9D PUSH1 0xAA SHL PUSH1 0x64 DUP3 ADD MSTORE PUSH1 0x84 ADD PUSH2 0x344 JUMP JUMPDEST DUP7 MLOAD MLOAD CHAINID SWAP1 PUSH1 0x1 LT DUP1 PUSH2 0xFAB JUMPI POP DUP1 PUSH1 0x1 PUSH1 0x1 PUSH1 0x40 SHL SUB AND DUP10 PUSH1 0x1 PUSH1 0x1 PUSH1 0x40 SHL SUB AND EQ ISZERO JUMPDEST PUSH2 0xFED JUMPI PUSH1 0x40 MLOAD PUSH3 0x461BCD PUSH1 0xE5 SHL DUP2 MSTORE PUSH1 0x20 PUSH1 0x4 DUP3 ADD MSTORE PUSH1 0x13 PUSH1 0x24 DUP3 ADD MSTORE PUSH19 0x1B9BDBDC081A5CC81B9BDD08185B1B1BDDD959 PUSH1 0x6A SHL PUSH1 0x44 DUP3 ADD MSTORE PUSH1 0x64 ADD PUSH2 0x344 JUMP JUMPDEST DUP8 MLOAD MLOAD DUP11 SWAP1 PUSH1 0x1 LT ISZERO PUSH2 0x10E7 JUMPI PUSH1 0x2 SLOAD DUP10 MLOAD DUP1 MLOAD PUSH2 0x1020 SWAP3 PUSH1 0x1 PUSH1 0x1 PUSH1 0xA0 SHL SUB AND SWAP2 DUP15 SWAP2 PUSH1 0x0 SWAP1 PUSH2 0x6B8 JUMPI PUSH2 0x6B8 PUSH2 0x292C JUMP JUMPDEST PUSH1 0x2 SLOAD PUSH1 0x20 DUP11 ADD MLOAD PUSH1 0x40 MLOAD PUSH1 0x0 SWAP3 DUP4 SWAP3 PUSH1 0x1 PUSH1 0x1 PUSH1 0xA0 SHL SUB SWAP1 SWAP2 AND SWAP2 PUSH2 0x1046 SWAP2 SWAP1 PUSH2 0x2942 JUMP JUMPDEST PUSH1 0x0 PUSH1 0x40 MLOAD DUP1 DUP4 SUB DUP2 PUSH1 0x0 DUP7 GAS CALL SWAP2 POP POP RETURNDATASIZE DUP1 PUSH1 0x0 DUP2 EQ PUSH2 0x1083 JUMPI PUSH1 0x40 MLOAD SWAP2 POP PUSH1 0x1F NOT PUSH1 0x3F RETURNDATASIZE ADD AND DUP3 ADD PUSH1 0x40 MSTORE RETURNDATASIZE DUP3 MSTORE RETURNDATASIZE PUSH1 0x0 PUSH1 0x20 DUP5 ADD RETURNDATACOPY PUSH2 0x1088 JUMP JUMPDEST PUSH1 0x60 SWAP2 POP JUMPDEST POP SWAP2 POP SWAP2 POP DUP2 PUSH2 0x10CC JUMPI PUSH1 0x40 MLOAD PUSH3 0x461BCD PUSH1 0xE5 SHL DUP2 MSTORE PUSH1 0x20 PUSH1 0x4 DUP3 ADD MSTORE PUSH1 0xF PUSH1 0x24 DUP3 ADD MSTORE PUSH15 0x1CDC98C81CDDD85C0819985A5B1959 PUSH1 0x8A SHL PUSH1 0x44 DUP3 ADD MSTORE PUSH1 0x64 ADD PUSH2 0x344 JUMP JUMPDEST PUSH1 0x0 DUP2 DUP1 PUSH1 0x20 ADD SWAP1 MLOAD DUP2 ADD SWAP1 PUSH2 0x10E2 SWAP2 SWAP1 PUSH2 0x295E JUMP JUMPDEST POP POP POP POP JUMPDEST DUP2 PUSH1 0x1 PUSH1 0x1 PUSH1 0x40 SHL SUB AND DUP11 PUSH1 0x1 PUSH1 0x1 PUSH1 0x40 SHL SUB AND EQ ISZERO PUSH2 0x1115 JUMPI PUSH2 0x1110 DUP13 DUP13 DUP5 DUP13 DUP11 DUP9 DUP8 PUSH2 0x128E JUMP JUMPDEST PUSH2 0x1129 JUMP JUMPDEST PUSH2 0x1129 DUP13 DUP13 DUP5 DUP14 DUP14 DUP14 DUP14 DUP14 DUP14 DUP14 DUP14 DUP13 PUSH2 0x136C JUMP JUMPDEST POP POP POP POP POP POP POP POP POP POP POP POP JUMP JUMPDEST PUSH1 0x0 DUP1 SLOAD PUSH1 0x1 PUSH1 0x1 PUSH1 0xA0 SHL SUB DUP4 DUP2 AND PUSH1 0x1 PUSH1 0x1 PUSH1 0xA0 SHL SUB NOT DUP4 AND DUP2 OR DUP5 SSTORE PUSH1 0x40 MLOAD SWAP2 SWAP1 SWAP3 AND SWAP3 DUP4 SWAP2 PUSH32 0x8BE0079C531659141344CD1FD0A4F28419497F9722A3DAAFE3B4186F6B6457E0 SWAP2 SWAP1 LOG3 POP POP JUMP JUMPDEST PUSH1 0x0 PUSH2 0x11DC DUP3 PUSH1 0x40 MLOAD DUP1 PUSH1 0x40 ADD PUSH1 0x40 MSTORE DUP1 PUSH1 0x20 DUP2 MSTORE PUSH1 0x20 ADD PUSH32 0x5361666545524332303A206C6F772D6C6576656C2063616C6C206661696C6564 DUP2 MSTORE POP DUP6 PUSH1 0x1 PUSH1 0x1 PUSH1 0xA0 SHL SUB AND PUSH2 0x14F6 SWAP1 SWAP3 SWAP2 SWAP1 PUSH4 0xFFFFFFFF AND JUMP JUMPDEST DUP1 MLOAD SWAP1 SWAP2 POP ISZERO PUSH2 0x1259 JUMPI DUP1 DUP1 PUSH1 0x20 ADD SWAP1 MLOAD DUP2 ADD SWAP1 PUSH2 0x11FA SWAP2 SWAP1 PUSH2 0x2B4F JUMP JUMPDEST PUSH2 0x1259 JUMPI PUSH1 0x40 MLOAD PUSH3 0x461BCD PUSH1 0xE5 SHL DUP2 MSTORE PUSH1 0x20 PUSH1 0x4 DUP3 ADD MSTORE PUSH1 0x2A PUSH1 0x24 DUP3 ADD MSTORE PUSH32 0x5361666545524332303A204552433230206F7065726174696F6E20646964206E PUSH1 0x44 DUP3 ADD MSTORE PUSH10 0x1BDD081CDD58D8D95959 PUSH1 0xB2 SHL PUSH1 0x64 DUP3 ADD MSTORE PUSH1 0x84 ADD PUSH2 0x344 JUMP JUMPDEST POP POP POP JUMP JUMPDEST PUSH1 0x40 MLOAD PUSH1 0x1 PUSH1 0x1 PUSH1 0xA0 SHL SUB DUP4 AND PUSH1 0x24 DUP3 ADD MSTORE PUSH1 0x44 DUP2 ADD DUP3 SWAP1 MSTORE PUSH2 0x1259 SWAP1 DUP5 SWAP1 PUSH4 0xA9059CBB PUSH1 0xE0 SHL SWAP1 PUSH1 0x64 ADD PUSH2 0xC8E JUMP JUMPDEST PUSH2 0x12A2 PUSH1 0x1 PUSH1 0x1 PUSH1 0xA0 SHL SUB DUP4 AND DUP9 DUP4 PUSH2 0x125E JUMP JUMPDEST PUSH1 0x0 CALLER DUP7 DUP10 DUP7 DUP9 PUSH1 0x40 MLOAD PUSH1 0x20 ADD PUSH2 0x12BD SWAP6 SWAP5 SWAP4 SWAP3 SWAP2 SWAP1 PUSH2 0x2C11 JUMP JUMPDEST PUSH1 0x40 MLOAD PUSH1 0x20 DUP2 DUP4 SUB SUB DUP2 MSTORE SWAP1 PUSH1 0x40 MSTORE DUP1 MLOAD SWAP1 PUSH1 0x20 ADD KECCAK256 SWAP1 POP PUSH32 0xDBD876E57420A75850BD1CE36DE349D111AB4FF35E2C2379AF8ACC7503769174 DUP2 DUP8 DUP10 DUP9 PUSH1 0x0 ADD MLOAD PUSH1 0x0 DUP2 MLOAD DUP2 LT PUSH2 0x1310 JUMPI PUSH2 0x1310 PUSH2 0x292C JUMP JUMPDEST PUSH1 0x20 SWAP1 DUP2 MUL SWAP2 SWAP1 SWAP2 ADD DUP2 ADD MLOAD PUSH1 0x40 DUP1 MLOAD SWAP6 DUP7 MSTORE PUSH1 0x1 PUSH1 0x1 PUSH1 0x40 SHL SUB SWAP1 SWAP5 AND SWAP2 DUP6 ADD SWAP2 SWAP1 SWAP2 MSTORE SWAP2 DUP4 ADD MSTORE PUSH1 0x1 PUSH1 0x1 PUSH1 0xA0 SHL SUB SWAP1 DUP2 AND PUSH1 0x60 DUP4 ADD MSTORE PUSH1 0x80 DUP3 ADD DUP6 SWAP1 MSTORE DUP6 AND PUSH1 0xA0 DUP3 ADD MSTORE PUSH1 0xC0 ADD PUSH1 0x40 MLOAD DUP1 SWAP2 SUB SWAP1 LOG1 POP POP POP POP POP POP POP POP JUMP JUMPDEST DUP7 MLOAD MLOAD PUSH2 0x13B1 JUMPI PUSH1 0x40 MLOAD PUSH3 0x461BCD PUSH1 0xE5 SHL DUP2 MSTORE PUSH1 0x20 PUSH1 0x4 DUP3 ADD MSTORE PUSH1 0x13 PUSH1 0x24 DUP3 ADD MSTORE PUSH19 0xCADAE0E8F240C8E6E840E6EEC2E040E0C2E8D PUSH1 0x6B SHL PUSH1 0x44 DUP3 ADD MSTORE PUSH1 0x64 ADD PUSH2 0x344 JUMP JUMPDEST PUSH1 0x0 PUSH1 0x40 MLOAD DUP1 PUSH1 0x80 ADD PUSH1 0x40 MSTORE DUP1 DUP10 DUP2 MSTORE PUSH1 0x20 ADD CALLER PUSH1 0x1 PUSH1 0x1 PUSH1 0xA0 SHL SUB AND DUP2 MSTORE PUSH1 0x20 ADD DUP8 PUSH1 0x1 PUSH1 0x1 PUSH1 0x40 SHL SUB AND DUP2 MSTORE PUSH1 0x20 ADD DUP7 ISZERO ISZERO DUP2 MSTORE POP PUSH1 0x40 MLOAD PUSH1 0x20 ADD PUSH2 0x13F8 SWAP2 SWAP1 PUSH2 0x2C55 JUMP JUMPDEST PUSH1 0x40 MLOAD PUSH1 0x20 DUP2 DUP4 SUB SUB DUP2 MSTORE SWAP1 PUSH1 0x40 MSTORE SWAP1 POP PUSH1 0x0 PUSH2 0x1417 CALLER DUP14 DUP14 DUP6 PUSH2 0xB97 JUMP JUMPDEST SWAP1 POP PUSH2 0x142B DUP15 DUP6 DUP6 DUP15 DUP12 DUP14 DUP9 PUSH1 0x1 DUP14 PUSH2 0x150F JUMP JUMPDEST POP PUSH32 0x600B63623F19B18F8F0E7825EC78B3D9779D8124C76AD75B58AAC7167F04F8D2 DUP2 DUP13 DUP16 DUP14 PUSH1 0x0 ADD MLOAD PUSH1 0x0 DUP2 MLOAD DUP2 LT PUSH2 0x1467 JUMPI PUSH2 0x1467 PUSH2 0x292C JUMP JUMPDEST PUSH1 0x20 SWAP1 DUP2 MUL SWAP2 SWAP1 SWAP2 ADD ADD MLOAD DUP14 MLOAD DUP1 MLOAD PUSH2 0x1482 SWAP1 PUSH1 0x1 SWAP1 PUSH2 0x298D JUMP JUMPDEST DUP2 MLOAD DUP2 LT PUSH2 0x1492 JUMPI PUSH2 0x1492 PUSH2 0x292C JUMP JUMPDEST PUSH1 0x20 MUL PUSH1 0x20 ADD ADD MLOAD PUSH1 0x40 MLOAD PUSH2 0x14DE SWAP6 SWAP5 SWAP4 SWAP3 SWAP2 SWAP1 SWAP5 DUP6 MSTORE PUSH1 0x1 PUSH1 0x1 PUSH1 0x40 SHL SUB SWAP4 SWAP1 SWAP4 AND PUSH1 0x20 DUP6 ADD MSTORE PUSH1 0x40 DUP5 ADD SWAP2 SWAP1 SWAP2 MSTORE PUSH1 0x1 PUSH1 0x1 PUSH1 0xA0 SHL SUB SWAP1 DUP2 AND PUSH1 0x60 DUP5 ADD MSTORE AND PUSH1 0x80 DUP3 ADD MSTORE PUSH1 0xA0 ADD SWAP1 JUMP JUMPDEST PUSH1 0x40 MLOAD DUP1 SWAP2 SUB SWAP1 LOG1 POP POP POP POP POP POP POP POP POP POP POP POP POP POP JUMP JUMPDEST PUSH1 0x60 PUSH2 0x1505 DUP5 DUP5 PUSH1 0x0 DUP6 PUSH2 0x1546 JUMP JUMPDEST SWAP1 POP JUMPDEST SWAP4 SWAP3 POP POP POP JUMP JUMPDEST PUSH1 0x0 PUSH2 0x1538 DUP11 DUP11 DUP11 DUP11 DUP11 DUP11 DUP11 DUP11 PUSH1 0x1 PUSH1 0x0 SWAP1 SLOAD SWAP1 PUSH2 0x100 EXP SWAP1 DIV PUSH1 0x1 PUSH1 0x1 PUSH1 0xA0 SHL SUB AND DUP12 PUSH2 0x1677 JUMP JUMPDEST SWAP11 SWAP10 POP POP POP POP POP POP POP POP POP POP JUMP JUMPDEST PUSH1 0x60 DUP3 SELFBALANCE LT ISZERO PUSH2 0x15A7 JUMPI PUSH1 0x40 MLOAD PUSH3 0x461BCD PUSH1 0xE5 SHL DUP2 MSTORE PUSH1 0x20 PUSH1 0x4 DUP3 ADD MSTORE PUSH1 0x26 PUSH1 0x24 DUP3 ADD MSTORE PUSH32 0x416464726573733A20696E73756666696369656E742062616C616E636520666F PUSH1 0x44 DUP3 ADD MSTORE PUSH6 0x1C8818D85B1B PUSH1 0xD2 SHL PUSH1 0x64 DUP3 ADD MSTORE PUSH1 0x84 ADD PUSH2 0x344 JUMP JUMPDEST PUSH1 0x1 PUSH1 0x1 PUSH1 0xA0 SHL SUB DUP6 AND EXTCODESIZE PUSH2 0x15FE JUMPI PUSH1 0x40 MLOAD PUSH3 0x461BCD PUSH1 0xE5 SHL DUP2 MSTORE PUSH1 0x20 PUSH1 0x4 DUP3 ADD MSTORE PUSH1 0x1D PUSH1 0x24 DUP3 ADD MSTORE PUSH32 0x416464726573733A2063616C6C20746F206E6F6E2D636F6E7472616374000000 PUSH1 0x44 DUP3 ADD MSTORE PUSH1 0x64 ADD PUSH2 0x344 JUMP JUMPDEST PUSH1 0x0 DUP1 DUP7 PUSH1 0x1 PUSH1 0x1 PUSH1 0xA0 SHL SUB AND DUP6 DUP8 PUSH1 0x40 MLOAD PUSH2 0x161A SWAP2 SWAP1 PUSH2 0x2942 JUMP JUMPDEST PUSH1 0x0 PUSH1 0x40 MLOAD DUP1 DUP4 SUB DUP2 DUP6 DUP8 GAS CALL SWAP3 POP POP POP RETURNDATASIZE DUP1 PUSH1 0x0 DUP2 EQ PUSH2 0x1657 JUMPI PUSH1 0x40 MLOAD SWAP2 POP PUSH1 0x1F NOT PUSH1 0x3F RETURNDATASIZE ADD AND DUP3 ADD PUSH1 0x40 MSTORE RETURNDATASIZE DUP3 MSTORE RETURNDATASIZE PUSH1 0x0 PUSH1 0x20 DUP5 ADD RETURNDATACOPY PUSH2 0x165C JUMP JUMPDEST PUSH1 0x60 SWAP2 POP JUMPDEST POP SWAP2 POP SWAP2 POP PUSH2 0x166C DUP3 DUP3 DUP7 PUSH2 0x1710 JUMP JUMPDEST SWAP8 SWAP7 POP POP POP POP POP POP POP JUMP JUMPDEST PUSH1 0x0 DUP1 PUSH1 0x0 PUSH2 0x168C DUP14 DUP14 DUP14 DUP14 DUP14 DUP14 DUP13 DUP13 PUSH2 0x1749 JUMP JUMPDEST DUP9 MLOAD SWAP2 SWAP4 POP SWAP2 POP ISZERO PUSH2 0x1700 JUMPI DUP5 PUSH1 0x1 PUSH1 0x1 PUSH1 0xA0 SHL SUB AND PUSH4 0x4289FBB3 DUP6 DUP16 DUP14 DUP6 DUP8 DUP14 PUSH1 0x40 MLOAD DUP8 PUSH4 0xFFFFFFFF AND PUSH1 0xE0 SHL DUP2 MSTORE PUSH1 0x4 ADD PUSH2 0x16CD SWAP6 SWAP5 SWAP4 SWAP3 SWAP2 SWAP1 PUSH2 0x2CAE JUMP JUMPDEST PUSH1 0x0 PUSH1 0x40 MLOAD DUP1 DUP4 SUB DUP2 DUP6 DUP9 DUP1 EXTCODESIZE ISZERO DUP1 ISZERO PUSH2 0x16E6 JUMPI PUSH1 0x0 DUP1 REVERT JUMPDEST POP GAS CALL ISZERO DUP1 ISZERO PUSH2 0x16FA JUMPI RETURNDATASIZE PUSH1 0x0 DUP1 RETURNDATACOPY RETURNDATASIZE PUSH1 0x0 REVERT JUMPDEST POP POP POP POP POP JUMPDEST POP SWAP12 SWAP11 POP POP POP POP POP POP POP POP POP POP POP JUMP JUMPDEST PUSH1 0x60 DUP4 ISZERO PUSH2 0x171F JUMPI POP DUP2 PUSH2 0x1508 JUMP JUMPDEST DUP3 MLOAD ISZERO PUSH2 0x172F JUMPI DUP3 MLOAD DUP1 DUP5 PUSH1 0x20 ADD REVERT JUMPDEST DUP2 PUSH1 0x40 MLOAD PUSH3 0x461BCD PUSH1 0xE5 SHL DUP2 MSTORE PUSH1 0x4 ADD PUSH2 0x344 SWAP2 SWAP1 PUSH2 0x2CF0 JUMP JUMPDEST PUSH1 0x0 DUP1 PUSH1 0x1 DUP5 PUSH1 0x6 DUP2 GT ISZERO PUSH2 0x1760 JUMPI PUSH2 0x1760 PUSH2 0x21E6 JUMP JUMPDEST EQ ISZERO PUSH2 0x188E JUMPI DUP3 PUSH1 0x1 PUSH1 0x1 PUSH1 0xA0 SHL SUB AND PUSH4 0x82980DC4 PUSH1 0x40 MLOAD DUP2 PUSH4 0xFFFFFFFF AND PUSH1 0xE0 SHL DUP2 MSTORE PUSH1 0x4 ADD PUSH1 0x20 PUSH1 0x40 MLOAD DUP1 DUP4 SUB DUP2 DUP7 DUP1 EXTCODESIZE ISZERO DUP1 ISZERO PUSH2 0x179F JUMPI PUSH1 0x0 DUP1 REVERT JUMPDEST POP GAS STATICCALL ISZERO DUP1 ISZERO PUSH2 0x17B3 JUMPI RETURNDATASIZE PUSH1 0x0 DUP1 RETURNDATACOPY RETURNDATASIZE PUSH1 0x0 REVERT JUMPDEST POP POP POP POP PUSH1 0x40 MLOAD RETURNDATASIZE PUSH1 0x1F NOT PUSH1 0x1F DUP3 ADD AND DUP3 ADD DUP1 PUSH1 0x40 MSTORE POP DUP2 ADD SWAP1 PUSH2 0x17D7 SWAP2 SWAP1 PUSH2 0x2D03 JUMP JUMPDEST SWAP1 POP PUSH2 0x17ED PUSH1 0x1 PUSH1 0x1 PUSH1 0xA0 SHL SUB DUP11 AND DUP3 DUP11 PUSH2 0xBD1 JUMP JUMPDEST PUSH1 0x40 MLOAD PUSH4 0xA5977FBB PUSH1 0xE0 SHL DUP2 MSTORE PUSH1 0x1 PUSH1 0x1 PUSH1 0xA0 SHL SUB DUP12 DUP2 AND PUSH1 0x4 DUP4 ADD MSTORE DUP11 DUP2 AND PUSH1 0x24 DUP4 ADD MSTORE PUSH1 0x44 DUP3 ADD DUP11 SWAP1 MSTORE PUSH1 0x1 PUSH1 0x1 PUSH1 0x40 SHL SUB DUP1 DUP11 AND PUSH1 0x64 DUP5 ADD MSTORE DUP9 AND PUSH1 0x84 DUP4 ADD MSTORE PUSH4 0xFFFFFFFF DUP8 AND PUSH1 0xA4 DUP4 ADD MSTORE DUP3 AND SWAP1 PUSH4 0xA5977FBB SWAP1 PUSH1 0xC4 ADD PUSH1 0x0 PUSH1 0x40 MLOAD DUP1 DUP4 SUB DUP2 PUSH1 0x0 DUP8 DUP1 EXTCODESIZE ISZERO DUP1 ISZERO PUSH2 0x1862 JUMPI PUSH1 0x0 DUP1 REVERT JUMPDEST POP GAS CALL ISZERO DUP1 ISZERO PUSH2 0x1876 JUMPI RETURNDATASIZE PUSH1 0x0 DUP1 RETURNDATACOPY RETURNDATASIZE PUSH1 0x0 REVERT JUMPDEST POP POP POP POP PUSH2 0x1887 DUP11 DUP11 DUP11 DUP11 DUP11 PUSH2 0x1E72 JUMP JUMPDEST SWAP2 POP PUSH2 0x1E65 JUMP JUMPDEST PUSH1 0x2 DUP5 PUSH1 0x6 DUP2 GT ISZERO PUSH2 0x18A2 JUMPI PUSH2 0x18A2 PUSH2 0x21E6 JUMP JUMPDEST EQ ISZERO PUSH2 0x19A2 JUMPI DUP3 PUSH1 0x1 PUSH1 0x1 PUSH1 0xA0 SHL SUB AND PUSH4 0xD8257D17 PUSH1 0x40 MLOAD DUP2 PUSH4 0xFFFFFFFF AND PUSH1 0xE0 SHL DUP2 MSTORE PUSH1 0x4 ADD PUSH1 0x20 PUSH1 0x40 MLOAD DUP1 DUP4 SUB DUP2 DUP7 DUP1 EXTCODESIZE ISZERO DUP1 ISZERO PUSH2 0x18E1 JUMPI PUSH1 0x0 DUP1 REVERT JUMPDEST POP GAS STATICCALL ISZERO DUP1 ISZERO PUSH2 0x18F5 JUMPI RETURNDATASIZE PUSH1 0x0 DUP1 RETURNDATACOPY RETURNDATASIZE PUSH1 0x0 REVERT JUMPDEST POP POP POP POP PUSH1 0x40 MLOAD RETURNDATASIZE PUSH1 0x1F NOT PUSH1 0x1F DUP3 ADD AND DUP3 ADD DUP1 PUSH1 0x40 MSTORE POP DUP2 ADD SWAP1 PUSH2 0x1919 SWAP2 SWAP1 PUSH2 0x2D03 JUMP JUMPDEST SWAP1 POP PUSH2 0x192F PUSH1 0x1 PUSH1 0x1 PUSH1 0xA0 SHL SUB DUP11 AND DUP3 DUP11 PUSH2 0xBD1 JUMP JUMPDEST DUP1 PUSH1 0x1 PUSH1 0x1 PUSH1 0xA0 SHL SUB AND PUSH4 0x23463624 DUP11 DUP11 DUP11 DUP15 DUP12 PUSH1 0x40 MLOAD DUP7 PUSH4 0xFFFFFFFF AND PUSH1 0xE0 SHL DUP2 MSTORE PUSH1 0x4 ADD PUSH2 0x1963 SWAP6 SWAP5 SWAP4 SWAP3 SWAP2 SWAP1 PUSH2 0x2D20 JUMP JUMPDEST PUSH1 0x0 PUSH1 0x40 MLOAD DUP1 DUP4 SUB DUP2 PUSH1 0x0 DUP8 DUP1 EXTCODESIZE ISZERO DUP1 ISZERO PUSH2 0x197D JUMPI PUSH1 0x0 DUP1 REVERT JUMPDEST POP GAS CALL ISZERO DUP1 ISZERO PUSH2 0x1991 JUMPI RETURNDATASIZE PUSH1 0x0 DUP1 RETURNDATACOPY RETURNDATASIZE PUSH1 0x0 REVERT JUMPDEST POP POP POP POP PUSH2 0x1887 DUP11 DUP11 DUP11 DUP11 DUP11 PUSH2 0x1EF5 JUMP JUMPDEST PUSH1 0x3 DUP5 PUSH1 0x6 DUP2 GT ISZERO PUSH2 0x19B6 JUMPI PUSH2 0x19B6 PUSH2 0x21E6 JUMP JUMPDEST EQ ISZERO PUSH2 0x1ADE JUMPI DUP3 PUSH1 0x1 PUSH1 0x1 PUSH1 0xA0 SHL SUB AND PUSH4 0xDFA2DBAF PUSH1 0x40 MLOAD DUP2 PUSH4 0xFFFFFFFF AND PUSH1 0xE0 SHL DUP2 MSTORE PUSH1 0x4 ADD PUSH1 0x20 PUSH1 0x40 MLOAD DUP1 DUP4 SUB DUP2 DUP7 DUP1 EXTCODESIZE ISZERO DUP1 ISZERO PUSH2 0x19F5 JUMPI PUSH1 0x0 DUP1 REVERT JUMPDEST POP GAS STATICCALL ISZERO DUP1 ISZERO PUSH2 0x1A09 JUMPI RETURNDATASIZE PUSH1 0x0 DUP1 RETURNDATACOPY RETURNDATASIZE PUSH1 0x0 REVERT JUMPDEST POP POP POP POP PUSH1 0x40 MLOAD RETURNDATASIZE PUSH1 0x1F NOT PUSH1 0x1F DUP3 ADD AND DUP3 ADD DUP1 PUSH1 0x40 MSTORE POP DUP2 ADD SWAP1 PUSH2 0x1A2D SWAP2 SWAP1 PUSH2 0x2D03 JUMP JUMPDEST SWAP1 POP PUSH2 0x1A43 PUSH1 0x1 PUSH1 0x1 PUSH1 0xA0 SHL SUB DUP11 AND DUP3 DUP11 PUSH2 0xBD1 JUMP JUMPDEST PUSH1 0x40 MLOAD PUSH4 0x6F3C863F PUSH1 0xE1 SHL DUP2 MSTORE PUSH1 0x1 PUSH1 0x1 PUSH1 0xA0 SHL SUB DUP11 DUP2 AND PUSH1 0x4 DUP4 ADD MSTORE PUSH1 0x24 DUP3 ADD DUP11 SWAP1 MSTORE DUP12 DUP2 AND PUSH1 0x44 DUP4 ADD MSTORE PUSH1 0x1 PUSH1 0x1 PUSH1 0x40 SHL SUB DUP9 AND PUSH1 0x64 DUP4 ADD MSTORE DUP3 AND SWAP1 PUSH4 0xDE790C7E SWAP1 PUSH1 0x84 ADD PUSH1 0x0 PUSH1 0x40 MLOAD DUP1 DUP4 SUB DUP2 PUSH1 0x0 DUP8 DUP1 EXTCODESIZE ISZERO DUP1 ISZERO PUSH2 0x1AA4 JUMPI PUSH1 0x0 DUP1 REVERT JUMPDEST POP GAS CALL ISZERO DUP1 ISZERO PUSH2 0x1AB8 JUMPI RETURNDATASIZE PUSH1 0x0 DUP1 RETURNDATACOPY RETURNDATASIZE PUSH1 0x0 REVERT JUMPDEST POP PUSH2 0x1AD2 SWAP3 POP POP POP PUSH1 0x1 PUSH1 0x1 PUSH1 0xA0 SHL SUB DUP11 AND DUP3 PUSH1 0x0 PUSH2 0x1F5E JUMP JUMPDEST PUSH2 0x1887 DUP11 DUP11 DUP11 DUP10 PUSH2 0x2082 JUMP JUMPDEST PUSH1 0x4 DUP5 PUSH1 0x6 DUP2 GT ISZERO PUSH2 0x1AF2 JUMPI PUSH2 0x1AF2 PUSH2 0x21E6 JUMP JUMPDEST EQ ISZERO PUSH2 0x1C05 JUMPI DUP3 PUSH1 0x1 PUSH1 0x1 PUSH1 0xA0 SHL SUB AND PUSH4 0xC66A9C5A PUSH1 0x40 MLOAD DUP2 PUSH4 0xFFFFFFFF AND PUSH1 0xE0 SHL DUP2 MSTORE PUSH1 0x4 ADD PUSH1 0x20 PUSH1 0x40 MLOAD DUP1 DUP4 SUB DUP2 DUP7 DUP1 EXTCODESIZE ISZERO DUP1 ISZERO PUSH2 0x1B31 JUMPI PUSH1 0x0 DUP1 REVERT JUMPDEST POP GAS STATICCALL ISZERO DUP1 ISZERO PUSH2 0x1B45 JUMPI RETURNDATASIZE PUSH1 0x0 DUP1 RETURNDATACOPY RETURNDATASIZE PUSH1 0x0 REVERT JUMPDEST POP POP POP POP PUSH1 0x40 MLOAD RETURNDATASIZE PUSH1 0x1F NOT PUSH1 0x1F DUP3 ADD AND DUP3 ADD DUP1 PUSH1 0x40 MSTORE POP DUP2 ADD SWAP1 PUSH2 0x1B69 SWAP2 SWAP1 PUSH2 0x2D03 JUMP JUMPDEST SWAP1 POP PUSH2 0x1B7F PUSH1 0x1 PUSH1 0x1 PUSH1 0xA0 SHL SUB DUP11 AND DUP3 DUP11 PUSH2 0xBD1 JUMP JUMPDEST DUP1 PUSH1 0x1 PUSH1 0x1 PUSH1 0xA0 SHL SUB AND PUSH4 0x23463624 DUP11 DUP11 DUP11 DUP15 DUP12 PUSH1 0x40 MLOAD DUP7 PUSH4 0xFFFFFFFF AND PUSH1 0xE0 SHL DUP2 MSTORE PUSH1 0x4 ADD PUSH2 0x1BB3 SWAP6 SWAP5 SWAP4 SWAP3 SWAP2 SWAP1 PUSH2 0x2D20 JUMP JUMPDEST PUSH1 0x20 PUSH1 0x40 MLOAD DUP1 DUP4 SUB DUP2 PUSH1 0x0 DUP8 DUP1 EXTCODESIZE ISZERO DUP1 ISZERO PUSH2 0x1BCD JUMPI PUSH1 0x0 DUP1 REVERT JUMPDEST POP GAS CALL ISZERO DUP1 ISZERO PUSH2 0x1BE1 JUMPI RETURNDATASIZE PUSH1 0x0 DUP1 RETURNDATACOPY RETURNDATASIZE PUSH1 0x0 REVERT JUMPDEST POP POP POP POP PUSH1 0x40 MLOAD RETURNDATASIZE PUSH1 0x1F NOT PUSH1 0x1F DUP3 ADD AND DUP3 ADD DUP1 PUSH1 0x40 MSTORE POP DUP2 ADD SWAP1 PUSH2 0x1887 SWAP2 SWAP1 PUSH2 0x295E JUMP JUMPDEST PUSH1 0x5 DUP5 PUSH1 0x6 DUP2 GT ISZERO PUSH2 0x1C19 JUMPI PUSH2 0x1C19 PUSH2 0x21E6 JUMP JUMPDEST EQ ISZERO PUSH2 0x1D48 JUMPI DUP3 PUSH1 0x1 PUSH1 0x1 PUSH1 0xA0 SHL SUB AND PUSH4 0x95B12C27 PUSH1 0x40 MLOAD DUP2 PUSH4 0xFFFFFFFF AND PUSH1 0xE0 SHL DUP2 MSTORE PUSH1 0x4 ADD PUSH1 0x20 PUSH1 0x40 MLOAD DUP1 DUP4 SUB DUP2 DUP7 DUP1 EXTCODESIZE ISZERO DUP1 ISZERO PUSH2 0x1C58 JUMPI PUSH1 0x0 DUP1 REVERT JUMPDEST POP GAS STATICCALL ISZERO DUP1 ISZERO PUSH2 0x1C6C JUMPI RETURNDATASIZE PUSH1 0x0 DUP1 RETURNDATACOPY RETURNDATASIZE PUSH1 0x0 REVERT JUMPDEST POP POP POP POP PUSH1 0x40 MLOAD RETURNDATASIZE PUSH1 0x1F NOT PUSH1 0x1F DUP3 ADD AND DUP3 ADD DUP1 PUSH1 0x40 MSTORE POP DUP2 ADD SWAP1 PUSH2 0x1C90 SWAP2 SWAP1 PUSH2 0x2D03 JUMP JUMPDEST SWAP1 POP PUSH2 0x1CA6 PUSH1 0x1 PUSH1 0x1 PUSH1 0xA0 SHL SUB DUP11 AND DUP3 DUP11 PUSH2 0xBD1 JUMP JUMPDEST DUP1 PUSH1 0x1 PUSH1 0x1 PUSH1 0xA0 SHL SUB AND PUSH4 0xA0029301 DUP11 DUP11 DUP11 DUP15 DUP12 PUSH1 0x40 MLOAD DUP7 PUSH4 0xFFFFFFFF AND PUSH1 0xE0 SHL DUP2 MSTORE PUSH1 0x4 ADD PUSH2 0x1CDA SWAP6 SWAP5 SWAP4 SWAP3 SWAP2 SWAP1 PUSH2 0x2D20 JUMP JUMPDEST PUSH1 0x20 PUSH1 0x40 MLOAD DUP1 DUP4 SUB DUP2 PUSH1 0x0 DUP8 DUP1 EXTCODESIZE ISZERO DUP1 ISZERO PUSH2 0x1CF4 JUMPI PUSH1 0x0 DUP1 REVERT JUMPDEST POP GAS CALL ISZERO DUP1 ISZERO PUSH2 0x1D08 JUMPI RETURNDATASIZE PUSH1 0x0 DUP1 RETURNDATACOPY RETURNDATASIZE PUSH1 0x0 REVERT JUMPDEST POP POP POP POP PUSH1 0x40 MLOAD RETURNDATASIZE PUSH1 0x1F NOT PUSH1 0x1F DUP3 ADD AND DUP3 ADD DUP1 PUSH1 0x40 MSTORE POP DUP2 ADD SWAP1 PUSH2 0x1D2C SWAP2 SWAP1 PUSH2 0x295E JUMP JUMPDEST SWAP2 POP PUSH2 0x1D43 PUSH1 0x1 PUSH1 0x1 PUSH1 0xA0 SHL SUB DUP11 AND DUP3 PUSH1 0x0 PUSH2 0x1F5E JUMP JUMPDEST PUSH2 0x1E65 JUMP JUMPDEST PUSH1 0x6 DUP5 PUSH1 0x6 DUP2 GT ISZERO PUSH2 0x1D5C JUMPI PUSH2 0x1D5C PUSH2 0x21E6 JUMP JUMPDEST EQ ISZERO PUSH2 0x1E1D JUMPI DUP3 PUSH1 0x1 PUSH1 0x1 PUSH1 0xA0 SHL SUB AND PUSH4 0x95B12C27 PUSH1 0x40 MLOAD DUP2 PUSH4 0xFFFFFFFF AND PUSH1 0xE0 SHL DUP2 MSTORE PUSH1 0x4 ADD PUSH1 0x20 PUSH1 0x40 MLOAD DUP1 DUP4 SUB DUP2 DUP7 DUP1 EXTCODESIZE ISZERO DUP1 ISZERO PUSH2 0x1D9B JUMPI PUSH1 0x0 DUP1 REVERT JUMPDEST POP GAS STATICCALL ISZERO DUP1 ISZERO PUSH2 0x1DAF JUMPI RETURNDATASIZE PUSH1 0x0 DUP1 RETURNDATACOPY RETURNDATASIZE PUSH1 0x0 REVERT JUMPDEST POP POP POP POP PUSH1 0x40 MLOAD RETURNDATASIZE PUSH1 0x1F NOT PUSH1 0x1F DUP3 ADD AND DUP3 ADD DUP1 PUSH1 0x40 MSTORE POP DUP2 ADD SWAP1 PUSH2 0x1DD3 SWAP2 SWAP1 PUSH2 0x2D03 JUMP JUMPDEST SWAP1 POP PUSH2 0x1DE9 PUSH1 0x1 PUSH1 0x1 PUSH1 0xA0 SHL SUB DUP11 AND DUP3 DUP11 PUSH2 0xBD1 JUMP JUMPDEST DUP1 PUSH1 0x1 PUSH1 0x1 PUSH1 0xA0 SHL SUB AND PUSH4 0x9E422C33 DUP11 DUP11 DUP11 DUP15 DUP12 PUSH1 0x40 MLOAD DUP7 PUSH4 0xFFFFFFFF AND PUSH1 0xE0 SHL DUP2 MSTORE PUSH1 0x4 ADD PUSH2 0x1CDA SWAP6 SWAP5 SWAP4 SWAP3 SWAP2 SWAP1 PUSH2 0x2D20 JUMP JUMPDEST PUSH1 0x40 MLOAD PUSH3 0x461BCD PUSH1 0xE5 SHL DUP2 MSTORE PUSH1 0x20 PUSH1 0x4 DUP3 ADD MSTORE PUSH1 0x19 PUSH1 0x24 DUP3 ADD MSTORE PUSH32 0x6272696467652074797065206E6F7420737570706F7274656400000000000000 PUSH1 0x44 DUP3 ADD MSTORE PUSH1 0x64 ADD PUSH2 0x344 JUMP JUMPDEST SWAP9 POP SWAP9 SWAP7 POP POP POP POP POP POP POP JUMP JUMPDEST PUSH1 0x40 MLOAD PUSH1 0x1 PUSH1 0x1 PUSH1 0x60 SHL SUB NOT ADDRESS PUSH1 0x60 SWAP1 DUP2 SHL DUP3 AND PUSH1 0x20 DUP5 ADD MSTORE DUP8 DUP2 SHL DUP3 AND PUSH1 0x34 DUP5 ADD MSTORE DUP7 SWAP1 SHL AND PUSH1 0x48 DUP3 ADD MSTORE PUSH1 0x5C DUP2 ADD DUP5 SWAP1 MSTORE PUSH1 0x1 PUSH1 0x1 PUSH1 0xC0 SHL SUB NOT PUSH1 0xC0 DUP5 DUP2 SHL DUP3 AND PUSH1 0x7C DUP5 ADD MSTORE DUP4 DUP2 SHL DUP3 AND PUSH1 0x84 DUP5 ADD MSTORE CHAINID SWAP1 SHL AND PUSH1 0x8C DUP3 ADD MSTORE PUSH1 0x0 SWAP1 PUSH1 0x94 ADD JUMPDEST PUSH1 0x40 MLOAD PUSH1 0x20 DUP2 DUP4 SUB SUB DUP2 MSTORE SWAP1 PUSH1 0x40 MSTORE DUP1 MLOAD SWAP1 PUSH1 0x20 ADD KECCAK256 SWAP1 POP SWAP6 SWAP5 POP POP POP POP POP JUMP JUMPDEST PUSH1 0x40 MLOAD PUSH1 0x1 PUSH1 0x1 PUSH1 0x60 SHL SUB NOT ADDRESS PUSH1 0x60 SWAP1 DUP2 SHL DUP3 AND PUSH1 0x20 DUP5 ADD MSTORE DUP7 DUP2 SHL DUP3 AND PUSH1 0x34 DUP5 ADD MSTORE PUSH1 0x48 DUP4 ADD DUP7 SWAP1 MSTORE PUSH1 0x1 PUSH1 0x1 PUSH1 0xC0 SHL SUB NOT PUSH1 0xC0 DUP7 DUP2 SHL DUP3 AND PUSH1 0x68 DUP7 ADD MSTORE SWAP2 DUP10 SWAP1 SHL SWAP1 SWAP3 AND PUSH1 0x70 DUP5 ADD MSTORE DUP4 DUP2 SHL DUP3 AND PUSH1 0x84 DUP5 ADD MSTORE CHAINID SWAP1 SHL AND PUSH1 0x8C DUP3 ADD MSTORE PUSH1 0x0 SWAP1 PUSH1 0x94 ADD PUSH2 0x1ED4 JUMP JUMPDEST DUP1 ISZERO DUP1 PUSH2 0x1FE7 JUMPI POP PUSH1 0x40 MLOAD PUSH4 0x6EB1769F PUSH1 0xE1 SHL DUP2 MSTORE ADDRESS PUSH1 0x4 DUP3 ADD MSTORE PUSH1 0x1 PUSH1 0x1 PUSH1 0xA0 SHL SUB DUP4 DUP2 AND PUSH1 0x24 DUP4 ADD MSTORE DUP5 AND SWAP1 PUSH4 0xDD62ED3E SWAP1 PUSH1 0x44 ADD PUSH1 0x20 PUSH1 0x40 MLOAD DUP1 DUP4 SUB DUP2 DUP7 DUP1 EXTCODESIZE ISZERO DUP1 ISZERO PUSH2 0x1FAD JUMPI PUSH1 0x0 DUP1 REVERT JUMPDEST POP GAS STATICCALL ISZERO DUP1 ISZERO PUSH2 0x1FC1 JUMPI RETURNDATASIZE PUSH1 0x0 DUP1 RETURNDATACOPY RETURNDATASIZE PUSH1 0x0 REVERT JUMPDEST POP POP POP POP PUSH1 0x40 MLOAD RETURNDATASIZE PUSH1 0x1F NOT PUSH1 0x1F DUP3 ADD AND DUP3 ADD DUP1 PUSH1 0x40 MSTORE POP DUP2 ADD SWAP1 PUSH2 0x1FE5 SWAP2 SWAP1 PUSH2 0x295E JUMP JUMPDEST ISZERO JUMPDEST PUSH2 0x2052 JUMPI PUSH1 0x40 MLOAD PUSH3 0x461BCD PUSH1 0xE5 SHL DUP2 MSTORE PUSH1 0x20 PUSH1 0x4 DUP3 ADD MSTORE PUSH1 0x36 PUSH1 0x24 DUP3 ADD MSTORE PUSH32 0x5361666545524332303A20617070726F76652066726F6D206E6F6E2D7A65726F PUSH1 0x44 DUP3 ADD MSTORE PUSH22 0x20746F206E6F6E2D7A65726F20616C6C6F77616E6365 PUSH1 0x50 SHL PUSH1 0x64 DUP3 ADD MSTORE PUSH1 0x84 ADD PUSH2 0x344 JUMP JUMPDEST PUSH1 0x40 MLOAD PUSH1 0x1 PUSH1 0x1 PUSH1 0xA0 SHL SUB DUP4 AND PUSH1 0x24 DUP3 ADD MSTORE PUSH1 0x44 DUP2 ADD DUP3 SWAP1 MSTORE PUSH2 0x1259 SWAP1 DUP5 SWAP1 PUSH4 0x95EA7B3 PUSH1 0xE0 SHL SWAP1 PUSH1 0x64 ADD PUSH2 0xC8E JUMP JUMPDEST PUSH1 0x40 MLOAD PUSH1 0x1 PUSH1 0x1 PUSH1 0x60 SHL SUB NOT ADDRESS PUSH1 0x60 SWAP1 DUP2 SHL DUP3 AND PUSH1 0x20 DUP5 ADD MSTORE DUP6 DUP2 SHL DUP3 AND PUSH1 0x34 DUP5 ADD MSTORE PUSH1 0x48 DUP4 ADD DUP6 SWAP1 MSTORE DUP7 SWAP1 SHL AND PUSH1 0x68 DUP3 ADD MSTORE PUSH1 0x1 PUSH1 0x1 PUSH1 0xC0 SHL SUB NOT PUSH1 0xC0 DUP4 DUP2 SHL DUP3 AND PUSH1 0x7C DUP5 ADD MSTORE CHAINID SWAP1 SHL AND PUSH1 0x84 DUP3 ADD MSTORE PUSH1 0x0 SWAP1 PUSH1 0x8C ADD PUSH2 0xBB0 JUMP JUMPDEST PUSH1 0x0 DUP1 DUP4 PUSH1 0x1F DUP5 ADD SLT PUSH2 0x20F0 JUMPI PUSH1 0x0 DUP1 REVERT JUMPDEST POP DUP2 CALLDATALOAD PUSH1 0x1 PUSH1 0x1 PUSH1 0x40 SHL SUB DUP2 GT ISZERO PUSH2 0x2107 JUMPI PUSH1 0x0 DUP1 REVERT JUMPDEST PUSH1 0x20 DUP4 ADD SWAP2 POP DUP4 PUSH1 0x20 DUP3 DUP6 ADD ADD GT ISZERO PUSH2 0x211F JUMPI PUSH1 0x0 DUP1 REVERT JUMPDEST SWAP3 POP SWAP3 SWAP1 POP JUMP JUMPDEST PUSH1 0x1 PUSH1 0x1 PUSH1 0x40 SHL SUB DUP2 AND DUP2 EQ PUSH2 0xB94 JUMPI PUSH1 0x0 DUP1 REVERT JUMPDEST PUSH1 0x1 PUSH1 0x1 PUSH1 0xA0 SHL SUB DUP2 AND DUP2 EQ PUSH2 0xB94 JUMPI PUSH1 0x0 DUP1 REVERT JUMPDEST PUSH1 0x0 DUP1 PUSH1 0x0 DUP1 PUSH1 0x0 DUP1 PUSH1 0x80 DUP8 DUP10 SUB SLT ISZERO PUSH2 0x2169 JUMPI PUSH1 0x0 DUP1 REVERT JUMPDEST DUP7 CALLDATALOAD PUSH1 0x1 PUSH1 0x1 PUSH1 0x40 SHL SUB DUP1 DUP3 GT ISZERO PUSH2 0x2180 JUMPI PUSH1 0x0 DUP1 REVERT JUMPDEST PUSH2 0x218C DUP11 DUP4 DUP12 ADD PUSH2 0x20DE JUMP JUMPDEST SWAP1 SWAP9 POP SWAP7 POP PUSH1 0x20 DUP10 ADD CALLDATALOAD SWAP2 POP PUSH2 0x21A1 DUP3 PUSH2 0x2126 JUMP JUMPDEST SWAP1 SWAP5 POP PUSH1 0x40 DUP9 ADD CALLDATALOAD SWAP1 DUP1 DUP3 GT ISZERO PUSH2 0x21B7 JUMPI PUSH1 0x0 DUP1 REVERT JUMPDEST POP PUSH2 0x21C4 DUP10 DUP3 DUP11 ADD PUSH2 0x20DE JUMP JUMPDEST SWAP1 SWAP5 POP SWAP3 POP POP PUSH1 0x60 DUP8 ADD CALLDATALOAD PUSH2 0x21D8 DUP2 PUSH2 0x213B JUMP JUMPDEST DUP1 SWAP2 POP POP SWAP3 SWAP6 POP SWAP3 SWAP6 POP SWAP3 SWAP6 JUMP JUMPDEST PUSH4 0x4E487B71 PUSH1 0xE0 SHL PUSH1 0x0 MSTORE PUSH1 0x21 PUSH1 0x4 MSTORE PUSH1 0x24 PUSH1 0x0 REVERT JUMPDEST PUSH1 0x20 DUP2 ADD PUSH1 0x3 DUP4 LT PUSH2 0x2210 JUMPI PUSH2 0x2210 PUSH2 0x21E6 JUMP JUMPDEST SWAP2 SWAP1 MSTORE SWAP1 JUMP JUMPDEST PUSH1 0x0 DUP1 PUSH1 0x0 DUP1 PUSH1 0x0 PUSH1 0x80 DUP7 DUP9 SUB SLT ISZERO PUSH2 0x222E JUMPI PUSH1 0x0 DUP1 REVERT JUMPDEST DUP6 CALLDATALOAD PUSH2 0x2239 DUP2 PUSH2 0x213B JUMP JUMPDEST SWAP5 POP PUSH1 0x20 DUP7 ADD CALLDATALOAD SWAP4 POP PUSH1 0x40 DUP7 ADD CALLDATALOAD PUSH1 0x1 PUSH1 0x1 PUSH1 0x40 SHL SUB DUP2 GT ISZERO PUSH2 0x225B JUMPI PUSH1 0x0 DUP1 REVERT JUMPDEST PUSH2 0x2267 DUP9 DUP3 DUP10 ADD PUSH2 0x20DE JUMP JUMPDEST SWAP1 SWAP5 POP SWAP3 POP POP PUSH1 0x60 DUP7 ADD CALLDATALOAD PUSH2 0x227B DUP2 PUSH2 0x213B JUMP JUMPDEST DUP1 SWAP2 POP POP SWAP3 SWAP6 POP SWAP3 SWAP6 SWAP1 SWAP4 POP JUMP JUMPDEST PUSH1 0x0 PUSH1 0x20 DUP3 DUP5 SUB SLT ISZERO PUSH2 0x229B JUMPI PUSH1 0x0 DUP1 REVERT JUMPDEST DUP2 CALLDATALOAD PUSH2 0x1508 DUP2 PUSH2 0x213B JUMP JUMPDEST PUSH1 0x0 DUP1 PUSH1 0x40 DUP4 DUP6 SUB SLT ISZERO PUSH2 0x22B9 JUMPI PUSH1 0x0 DUP1 REVERT JUMPDEST DUP3 CALLDATALOAD PUSH2 0x22C4 DUP2 PUSH2 0x213B JUMP JUMPDEST SWAP5 PUSH1 0x20 SWAP4 SWAP1 SWAP4 ADD CALLDATALOAD SWAP4 POP POP POP JUMP JUMPDEST PUSH4 0x4E487B71 PUSH1 0xE0 SHL PUSH1 0x0 MSTORE PUSH1 0x41 PUSH1 0x4 MSTORE PUSH1 0x24 PUSH1 0x0 REVERT JUMPDEST PUSH1 0x40 MLOAD PUSH1 0x80 DUP2 ADD PUSH1 0x1 PUSH1 0x1 PUSH1 0x40 SHL SUB DUP2 GT DUP3 DUP3 LT OR ISZERO PUSH2 0x230A JUMPI PUSH2 0x230A PUSH2 0x22D2 JUMP JUMPDEST PUSH1 0x40 MSTORE SWAP1 JUMP JUMPDEST PUSH1 0x40 MLOAD PUSH1 0x60 DUP2 ADD PUSH1 0x1 PUSH1 0x1 PUSH1 0x40 SHL SUB DUP2 GT DUP3 DUP3 LT OR ISZERO PUSH2 0x230A JUMPI PUSH2 0x230A PUSH2 0x22D2 JUMP JUMPDEST PUSH1 0x40 MLOAD PUSH1 0x1F DUP3 ADD PUSH1 0x1F NOT AND DUP2 ADD PUSH1 0x1 PUSH1 0x1 PUSH1 0x40 SHL SUB DUP2 GT DUP3 DUP3 LT OR ISZERO PUSH2 0x235A JUMPI PUSH2 0x235A PUSH2 0x22D2 JUMP JUMPDEST PUSH1 0x40 MSTORE SWAP2 SWAP1 POP JUMP JUMPDEST PUSH1 0x0 PUSH1 0x1 PUSH1 0x1 PUSH1 0x40 SHL SUB DUP3 GT ISZERO PUSH2 0x237B JUMPI PUSH2 0x237B PUSH2 0x22D2 JUMP JUMPDEST POP PUSH1 0x1F ADD PUSH1 0x1F NOT AND PUSH1 0x20 ADD SWAP1 JUMP JUMPDEST PUSH1 0x0 DUP3 PUSH1 0x1F DUP4 ADD SLT PUSH2 0x239A JUMPI PUSH1 0x0 DUP1 REVERT JUMPDEST DUP2 CALLDATALOAD PUSH2 0x23AD PUSH2 0x23A8 DUP3 PUSH2 0x2362 JUMP JUMPDEST PUSH2 0x2332 JUMP JUMPDEST DUP2 DUP2 MSTORE DUP5 PUSH1 0x20 DUP4 DUP7 ADD ADD GT ISZERO PUSH2 0x23C2 JUMPI PUSH1 0x0 DUP1 REVERT JUMPDEST DUP2 PUSH1 0x20 DUP6 ADD PUSH1 0x20 DUP4 ADD CALLDATACOPY PUSH1 0x0 SWAP2 DUP2 ADD PUSH1 0x20 ADD SWAP2 SWAP1 SWAP2 MSTORE SWAP4 SWAP3 POP POP POP JUMP JUMPDEST PUSH1 0x0 DUP1 PUSH1 0x0 DUP1 PUSH1 0x0 DUP1 PUSH1 0xC0 DUP8 DUP10 SUB SLT ISZERO PUSH2 0x23F8 JUMPI PUSH1 0x0 DUP1 REVERT JUMPDEST DUP7 CALLDATALOAD PUSH2 0x2403 DUP2 PUSH2 0x213B JUMP JUMPDEST SWAP6 POP PUSH1 0x20 DUP8 ADD CALLDATALOAD PUSH2 0x2413 DUP2 PUSH2 0x213B JUMP JUMPDEST SWAP5 POP PUSH1 0x40 DUP8 ADD CALLDATALOAD SWAP4 POP PUSH1 0x60 DUP8 ADD CALLDATALOAD PUSH2 0x242A DUP2 PUSH2 0x2126 JUMP JUMPDEST SWAP3 POP PUSH1 0x80 DUP8 ADD CALLDATALOAD PUSH1 0x1 PUSH1 0x1 PUSH1 0x40 SHL SUB DUP2 GT ISZERO PUSH2 0x2445 JUMPI PUSH1 0x0 DUP1 REVERT JUMPDEST PUSH2 0x2451 DUP10 DUP3 DUP11 ADD PUSH2 0x2389 JUMP JUMPDEST SWAP3 POP POP PUSH1 0xA0 DUP8 ADD CALLDATALOAD PUSH2 0x21D8 DUP2 PUSH2 0x213B JUMP JUMPDEST PUSH1 0x0 PUSH1 0x60 DUP3 DUP5 SUB SLT ISZERO PUSH2 0x2474 JUMPI PUSH1 0x0 DUP1 REVERT JUMPDEST POP SWAP2 SWAP1 POP JUMP JUMPDEST DUP1 CALLDATALOAD PUSH4 0xFFFFFFFF DUP2 AND DUP2 EQ PUSH2 0x248E JUMPI PUSH1 0x0 DUP1 REVERT JUMPDEST SWAP2 SWAP1 POP JUMP JUMPDEST PUSH1 0x0 DUP1 PUSH1 0x0 DUP1 PUSH1 0x0 DUP1 PUSH1 0x0 PUSH1 0xE0 DUP9 DUP11 SUB SLT ISZERO PUSH2 0x24AE JUMPI PUSH1 0x0 DUP1 REVERT JUMPDEST DUP8 CALLDATALOAD PUSH2 0x24B9 DUP2 PUSH2 0x213B JUMP JUMPDEST SWAP7 POP PUSH1 0x20 DUP9 ADD CALLDATALOAD SWAP6 POP PUSH1 0x40 DUP9 ADD CALLDATALOAD PUSH2 0x24D0 DUP2 PUSH2 0x2126 JUMP JUMPDEST SWAP5 POP PUSH1 0x60 DUP9 ADD CALLDATALOAD PUSH1 0x1 PUSH1 0x1 PUSH1 0x40 SHL SUB DUP1 DUP3 GT ISZERO PUSH2 0x24EC JUMPI PUSH1 0x0 DUP1 REVERT JUMPDEST PUSH2 0x24F8 DUP12 DUP4 DUP13 ADD PUSH2 0x2462 JUMP JUMPDEST SWAP6 POP PUSH1 0x80 DUP11 ADD CALLDATALOAD SWAP2 POP DUP1 DUP3 GT ISZERO PUSH2 0x250E JUMPI PUSH1 0x0 DUP1 REVERT JUMPDEST POP PUSH2 0x251B DUP11 DUP3 DUP12 ADD PUSH2 0x2462 JUMP JUMPDEST SWAP4 POP POP PUSH2 0x252A PUSH1 0xA0 DUP10 ADD PUSH2 0x247A JUMP JUMPDEST SWAP2 POP PUSH1 0xC0 DUP9 ADD CALLDATALOAD PUSH2 0x253A DUP2 PUSH2 0x2126 JUMP JUMPDEST DUP1 SWAP2 POP POP SWAP3 SWAP6 SWAP9 SWAP2 SWAP5 SWAP8 POP SWAP3 SWAP6 POP JUMP JUMPDEST PUSH1 0x0 DUP1 PUSH1 0x0 DUP1 PUSH1 0x0 PUSH1 0x80 DUP7 DUP9 SUB SLT ISZERO PUSH2 0x2562 JUMPI PUSH1 0x0 DUP1 REVERT JUMPDEST DUP6 CALLDATALOAD PUSH2 0x256D DUP2 PUSH2 0x213B JUMP JUMPDEST SWAP5 POP PUSH1 0x20 DUP7 ADD CALLDATALOAD PUSH2 0x257D DUP2 PUSH2 0x2126 JUMP JUMPDEST SWAP4 POP PUSH1 0x40 DUP7 ADD CALLDATALOAD PUSH1 0x1 PUSH1 0x1 PUSH1 0x40 SHL SUB DUP2 GT ISZERO PUSH2 0x225B JUMPI PUSH1 0x0 DUP1 REVERT JUMPDEST DUP1 ISZERO ISZERO DUP2 EQ PUSH2 0xB94 JUMPI PUSH1 0x0 DUP1 REVERT JUMPDEST PUSH1 0x0 DUP1 PUSH1 0x0 DUP1 PUSH1 0x0 DUP1 PUSH1 0x0 DUP1 PUSH2 0x100 DUP10 DUP12 SUB SLT ISZERO PUSH2 0x25C3 JUMPI PUSH1 0x0 DUP1 REVERT JUMPDEST DUP9 CALLDATALOAD PUSH2 0x25CE DUP2 PUSH2 0x213B JUMP JUMPDEST SWAP8 POP PUSH1 0x20 DUP10 ADD CALLDATALOAD SWAP7 POP PUSH1 0x40 DUP10 ADD CALLDATALOAD PUSH2 0x25E5 DUP2 PUSH2 0x2126 JUMP JUMPDEST SWAP6 POP PUSH1 0x60 DUP10 ADD CALLDATALOAD PUSH1 0x1 PUSH1 0x1 PUSH1 0x40 SHL SUB DUP1 DUP3 GT ISZERO PUSH2 0x2601 JUMPI PUSH1 0x0 DUP1 REVERT JUMPDEST PUSH2 0x260D DUP13 DUP4 DUP14 ADD PUSH2 0x2462 JUMP JUMPDEST SWAP7 POP PUSH1 0x80 DUP12 ADD CALLDATALOAD SWAP2 POP DUP1 DUP3 GT ISZERO PUSH2 0x2623 JUMPI PUSH1 0x0 DUP1 REVERT JUMPDEST POP PUSH2 0x2630 DUP12 DUP3 DUP13 ADD PUSH2 0x2462 JUMP JUMPDEST SWAP5 POP POP PUSH2 0x263F PUSH1 0xA0 DUP11 ADD PUSH2 0x247A JUMP JUMPDEST SWAP3 POP PUSH1 0xC0 DUP10 ADD CALLDATALOAD PUSH2 0x264F DUP2 PUSH2 0x2126 JUMP JUMPDEST SWAP2 POP PUSH1 0xE0 DUP10 ADD CALLDATALOAD PUSH2 0x265F DUP2 PUSH2 0x2598 JUMP JUMPDEST DUP1 SWAP2 POP POP SWAP3 SWAP6 SWAP9 POP SWAP3 SWAP6 SWAP9 SWAP1 SWAP4 SWAP7 POP JUMP JUMPDEST PUSH1 0x20 DUP1 DUP3 MSTORE PUSH1 0x19 SWAP1 DUP3 ADD MSTORE PUSH32 0x63616C6C6572206973206E6F74206D6573736167652062757300000000000000 PUSH1 0x40 DUP3 ADD MSTORE PUSH1 0x60 ADD SWAP1 JUMP JUMPDEST PUSH1 0x20 DUP1 DUP3 MSTORE DUP2 DUP2 ADD MSTORE PUSH32 0x4F776E61626C653A2063616C6C6572206973206E6F7420746865206F776E6572 PUSH1 0x40 DUP3 ADD MSTORE PUSH1 0x60 ADD SWAP1 JUMP JUMPDEST PUSH1 0x0 PUSH1 0x1 PUSH1 0x1 PUSH1 0x40 SHL SUB DUP3 GT ISZERO PUSH2 0x26F5 JUMPI PUSH2 0x26F5 PUSH2 0x22D2 JUMP JUMPDEST POP PUSH1 0x5 SHL PUSH1 0x20 ADD SWAP1 JUMP JUMPDEST DUP1 MLOAD PUSH2 0x248E DUP2 PUSH2 0x213B JUMP JUMPDEST PUSH1 0x0 JUMPDEST DUP4 DUP2 LT ISZERO PUSH2 0x2725 JUMPI DUP2 DUP2 ADD MLOAD DUP4 DUP3 ADD MSTORE PUSH1 0x20 ADD PUSH2 0x270D JUMP JUMPDEST DUP4 DUP2 GT ISZERO PUSH2 0xCC5 JUMPI POP POP PUSH1 0x0 SWAP2 ADD MSTORE JUMP JUMPDEST PUSH1 0x0 DUP3 PUSH1 0x1F DUP4 ADD SLT PUSH2 0x2747 JUMPI PUSH1 0x0 DUP1 REVERT JUMPDEST DUP2 MLOAD PUSH2 0x2755 PUSH2 0x23A8 DUP3 PUSH2 0x2362 JUMP JUMPDEST DUP2 DUP2 MSTORE DUP5 PUSH1 0x20 DUP4 DUP7 ADD ADD GT ISZERO PUSH2 0x276A JUMPI PUSH1 0x0 DUP1 REVERT JUMPDEST PUSH2 0xBC9 DUP3 PUSH1 0x20 DUP4 ADD PUSH1 0x20 DUP8 ADD PUSH2 0x270A JUMP JUMPDEST DUP1 MLOAD PUSH2 0x248E DUP2 PUSH2 0x2126 JUMP JUMPDEST DUP1 MLOAD PUSH2 0x248E DUP2 PUSH2 0x2598 JUMP JUMPDEST PUSH1 0x0 PUSH1 0x20 DUP1 DUP4 DUP6 SUB SLT ISZERO PUSH2 0x27A4 JUMPI PUSH1 0x0 DUP1 REVERT JUMPDEST DUP3 MLOAD PUSH1 0x1 PUSH1 0x1 PUSH1 0x40 SHL SUB DUP1 DUP3 GT ISZERO PUSH2 0x27BB JUMPI PUSH1 0x0 DUP1 REVERT JUMPDEST SWAP1 DUP5 ADD SWAP1 PUSH1 0x80 DUP3 DUP8 SUB SLT ISZERO PUSH2 0x27CF JUMPI PUSH1 0x0 DUP1 REVERT JUMPDEST PUSH2 0x27D7 PUSH2 0x22E8 JUMP JUMPDEST DUP3 MLOAD DUP3 DUP2 GT ISZERO PUSH2 0x27E6 JUMPI PUSH1 0x0 DUP1 REVERT JUMPDEST DUP4 ADD PUSH1 0x60 DUP2 DUP10 SUB SLT ISZERO PUSH2 0x27F8 JUMPI PUSH1 0x0 DUP1 REVERT JUMPDEST PUSH2 0x2800 PUSH2 0x2310 JUMP JUMPDEST DUP2 MLOAD DUP5 DUP2 GT ISZERO PUSH2 0x280F JUMPI PUSH1 0x0 DUP1 REVERT JUMPDEST DUP3 ADD PUSH1 0x1F DUP2 ADD DUP11 SGT PUSH2 0x2820 JUMPI PUSH1 0x0 DUP1 REVERT JUMPDEST DUP1 MLOAD PUSH2 0x282E PUSH2 0x23A8 DUP3 PUSH2 0x26DC JUMP JUMPDEST DUP2 DUP2 MSTORE PUSH1 0x5 SWAP2 SWAP1 SWAP2 SHL DUP3 ADD DUP9 ADD SWAP1 DUP9 DUP2 ADD SWAP1 DUP13 DUP4 GT ISZERO PUSH2 0x284D JUMPI PUSH1 0x0 DUP1 REVERT JUMPDEST SWAP3 DUP10 ADD SWAP3 JUMPDEST DUP3 DUP5 LT ISZERO PUSH2 0x2874 JUMPI DUP4 MLOAD PUSH2 0x2865 DUP2 PUSH2 0x213B JUMP JUMPDEST DUP3 MSTORE SWAP3 DUP10 ADD SWAP3 SWAP1 DUP10 ADD SWAP1 PUSH2 0x2852 JUMP JUMPDEST DUP5 MSTORE POP POP POP DUP2 DUP7 ADD MLOAD DUP5 DUP2 GT ISZERO PUSH2 0x288A JUMPI PUSH1 0x0 DUP1 REVERT JUMPDEST PUSH2 0x2896 DUP11 DUP3 DUP6 ADD PUSH2 0x2736 JUMP JUMPDEST DUP8 DUP4 ADD MSTORE POP PUSH1 0x40 DUP3 ADD MLOAD DUP5 DUP2 GT ISZERO PUSH2 0x28AD JUMPI PUSH1 0x0 DUP1 REVERT JUMPDEST PUSH2 0x28B9 DUP11 DUP3 DUP6 ADD PUSH2 0x2736 JUMP JUMPDEST PUSH1 0x40 DUP4 ADD MSTORE POP DUP3 MSTORE POP PUSH2 0x28CD DUP4 DUP6 ADD PUSH2 0x26FF JUMP JUMPDEST DUP5 DUP3 ADD MSTORE PUSH2 0x28DD PUSH1 0x40 DUP5 ADD PUSH2 0x277B JUMP JUMPDEST PUSH1 0x40 DUP3 ADD MSTORE PUSH2 0x28EE PUSH1 0x60 DUP5 ADD PUSH2 0x2786 JUMP JUMPDEST PUSH1 0x60 DUP3 ADD MSTORE SWAP7 SWAP6 POP POP POP POP POP POP JUMP JUMPDEST PUSH1 0x4 DUP2 LT PUSH2 0x290D JUMPI PUSH2 0x290D PUSH2 0x21E6 JUMP JUMPDEST SWAP1 MSTORE JUMP JUMPDEST DUP4 DUP2 MSTORE PUSH1 0x20 DUP2 ADD DUP4 SWAP1 MSTORE PUSH1 0x60 DUP2 ADD PUSH2 0xBC9 PUSH1 0x40 DUP4 ADD DUP5 PUSH2 0x28FD JUMP JUMPDEST PUSH4 0x4E487B71 PUSH1 0xE0 SHL PUSH1 0x0 MSTORE PUSH1 0x32 PUSH1 0x4 MSTORE PUSH1 0x24 PUSH1 0x0 REVERT JUMPDEST PUSH1 0x0 DUP3 MLOAD PUSH2 0x2954 DUP2 DUP5 PUSH1 0x20 DUP8 ADD PUSH2 0x270A JUMP JUMPDEST SWAP2 SWAP1 SWAP2 ADD SWAP3 SWAP2 POP POP JUMP JUMPDEST PUSH1 0x0 PUSH1 0x20 DUP3 DUP5 SUB SLT ISZERO PUSH2 0x2970 JUMPI PUSH1 0x0 DUP1 REVERT JUMPDEST POP MLOAD SWAP2 SWAP1 POP JUMP JUMPDEST PUSH4 0x4E487B71 PUSH1 0xE0 SHL PUSH1 0x0 MSTORE PUSH1 0x11 PUSH1 0x4 MSTORE PUSH1 0x24 PUSH1 0x0 REVERT JUMPDEST PUSH1 0x0 DUP3 DUP3 LT ISZERO PUSH2 0x299F JUMPI PUSH2 0x299F PUSH2 0x2977 JUMP JUMPDEST POP SUB SWAP1 JUMP JUMPDEST PUSH1 0x0 DUP1 DUP4 CALLDATALOAD PUSH1 0x1E NOT DUP5 CALLDATASIZE SUB ADD DUP2 SLT PUSH2 0x29BB JUMPI PUSH1 0x0 DUP1 REVERT JUMPDEST DUP4 ADD DUP1 CALLDATALOAD SWAP2 POP PUSH1 0x1 PUSH1 0x1 PUSH1 0x40 SHL SUB DUP3 GT ISZERO PUSH2 0x29D5 JUMPI PUSH1 0x0 DUP1 REVERT JUMPDEST PUSH1 0x20 ADD SWAP2 POP PUSH1 0x5 DUP2 SWAP1 SHL CALLDATASIZE SUB DUP3 SGT ISZERO PUSH2 0x211F JUMPI PUSH1 0x0 DUP1 REVERT JUMPDEST PUSH1 0x0 PUSH1 0x60 DUP3 CALLDATASIZE SUB SLT ISZERO PUSH2 0x29FF JUMPI PUSH1 0x0 DUP1 REVERT JUMPDEST PUSH2 0x2A07 PUSH2 0x2310 JUMP JUMPDEST DUP3 CALLDATALOAD PUSH1 0x1 PUSH1 0x1 PUSH1 0x40 SHL SUB DUP1 DUP3 GT ISZERO PUSH2 0x2A1E JUMPI PUSH1 0x0 DUP1 REVERT JUMPDEST SWAP1 DUP5 ADD SWAP1 CALLDATASIZE PUSH1 0x1F DUP4 ADD SLT PUSH2 0x2A31 JUMPI PUSH1 0x0 DUP1 REVERT JUMPDEST DUP2 CALLDATALOAD PUSH1 0x20 PUSH2 0x2A41 PUSH2 0x23A8 DUP4 PUSH2 0x26DC JUMP JUMPDEST DUP3 DUP2 MSTORE PUSH1 0x5 SWAP3 SWAP1 SWAP3 SHL DUP5 ADD DUP2 ADD SWAP2 DUP2 DUP2 ADD SWAP1 CALLDATASIZE DUP5 GT ISZERO PUSH2 0x2A60 JUMPI PUSH1 0x0 DUP1 REVERT JUMPDEST SWAP5 DUP3 ADD SWAP5 JUMPDEST DUP4 DUP7 LT ISZERO PUSH2 0x2A87 JUMPI DUP6 CALLDATALOAD PUSH2 0x2A78 DUP2 PUSH2 0x213B JUMP JUMPDEST DUP3 MSTORE SWAP5 DUP3 ADD SWAP5 SWAP1 DUP3 ADD SWAP1 PUSH2 0x2A65 JUMP JUMPDEST DUP7 MSTORE POP DUP7 DUP2 ADD CALLDATALOAD SWAP4 POP DUP3 DUP5 GT ISZERO PUSH2 0x2A9D JUMPI PUSH1 0x0 DUP1 REVERT JUMPDEST PUSH2 0x2AA9 CALLDATASIZE DUP6 DUP10 ADD PUSH2 0x2389 JUMP JUMPDEST SWAP1 DUP6 ADD MSTORE POP PUSH1 0x40 DUP6 ADD CALLDATALOAD SWAP2 POP DUP1 DUP3 GT ISZERO PUSH2 0x2AC2 JUMPI PUSH1 0x0 DUP1 REVERT JUMPDEST POP PUSH2 0x2ACF CALLDATASIZE DUP3 DUP7 ADD PUSH2 0x2389 JUMP JUMPDEST PUSH1 0x40 DUP4 ADD MSTORE POP SWAP3 SWAP2 POP POP JUMP JUMPDEST PUSH12 0xFFFFFFFFFFFFFFFFFFFFFFFF NOT DUP6 PUSH1 0x60 SHL AND DUP2 MSTORE PUSH1 0x0 PUSH1 0x1 PUSH1 0x1 PUSH1 0x40 SHL SUB PUSH1 0xC0 SHL DUP1 DUP7 PUSH1 0xC0 SHL AND PUSH1 0x14 DUP5 ADD MSTORE DUP1 DUP6 PUSH1 0xC0 SHL AND PUSH1 0x1C DUP5 ADD MSTORE POP DUP3 MLOAD PUSH2 0x2B27 DUP2 PUSH1 0x24 DUP6 ADD PUSH1 0x20 DUP8 ADD PUSH2 0x270A JUMP JUMPDEST SWAP2 SWAP1 SWAP2 ADD PUSH1 0x24 ADD SWAP6 SWAP5 POP POP POP POP POP JUMP JUMPDEST PUSH1 0x0 DUP3 NOT DUP3 GT ISZERO PUSH2 0x2B4A JUMPI PUSH2 0x2B4A PUSH2 0x2977 JUMP JUMPDEST POP ADD SWAP1 JUMP JUMPDEST PUSH1 0x0 PUSH1 0x20 DUP3 DUP5 SUB SLT ISZERO PUSH2 0x2B61 JUMPI PUSH1 0x0 DUP1 REVERT JUMPDEST DUP2 MLOAD PUSH2 0x1508 DUP2 PUSH2 0x2598 JUMP JUMPDEST PUSH1 0x0 DUP2 MLOAD DUP1 DUP5 MSTORE PUSH2 0x2B84 DUP2 PUSH1 0x20 DUP7 ADD PUSH1 0x20 DUP7 ADD PUSH2 0x270A JUMP JUMPDEST PUSH1 0x1F ADD PUSH1 0x1F NOT AND SWAP3 SWAP1 SWAP3 ADD PUSH1 0x20 ADD SWAP3 SWAP2 POP POP JUMP JUMPDEST DUP1 MLOAD PUSH1 0x60 DUP1 DUP5 MSTORE DUP2 MLOAD SWAP1 DUP5 ADD DUP2 SWAP1 MSTORE PUSH1 0x0 SWAP2 PUSH1 0x20 SWAP2 SWAP1 DUP3 ADD SWAP1 PUSH1 0x80 DUP7 ADD SWAP1 DUP5 JUMPDEST DUP2 DUP2 LT ISZERO PUSH2 0x2BDD JUMPI DUP4 MLOAD PUSH1 0x1 PUSH1 0x1 PUSH1 0xA0 SHL SUB AND DUP4 MSTORE SWAP3 DUP5 ADD SWAP3 SWAP2 DUP5 ADD SWAP2 PUSH1 0x1 ADD PUSH2 0x2BB8 JUMP JUMPDEST POP POP DUP3 DUP6 ADD MLOAD SWAP2 POP DUP6 DUP2 SUB DUP4 DUP8 ADD MSTORE PUSH2 0x2BF6 DUP2 DUP4 PUSH2 0x2B6C JUMP JUMPDEST SWAP3 POP POP POP PUSH1 0x40 DUP4 ADD MLOAD DUP5 DUP3 SUB PUSH1 0x40 DUP7 ADD MSTORE PUSH2 0x384 DUP3 DUP3 PUSH2 0x2B6C JUMP JUMPDEST PUSH1 0x1 PUSH1 0x1 PUSH1 0xA0 SHL SUB DUP7 DUP2 AND DUP3 MSTORE PUSH1 0x1 PUSH1 0x1 PUSH1 0x40 SHL SUB DUP7 DUP2 AND PUSH1 0x20 DUP5 ADD MSTORE SWAP1 DUP6 AND PUSH1 0x40 DUP4 ADD MSTORE DUP4 AND PUSH1 0x60 DUP3 ADD MSTORE PUSH1 0xA0 PUSH1 0x80 DUP3 ADD DUP2 SWAP1 MSTORE PUSH1 0x0 SWAP1 PUSH2 0x166C SWAP1 DUP4 ADD DUP5 PUSH2 0x2B98 JUMP JUMPDEST PUSH1 0x20 DUP2 MSTORE PUSH1 0x0 DUP3 MLOAD PUSH1 0x80 PUSH1 0x20 DUP5 ADD MSTORE PUSH2 0x2C71 PUSH1 0xA0 DUP5 ADD DUP3 PUSH2 0x2B98 JUMP JUMPDEST SWAP1 POP PUSH1 0x1 DUP1 PUSH1 0xA0 SHL SUB PUSH1 0x20 DUP6 ADD MLOAD AND PUSH1 0x40 DUP5 ADD MSTORE PUSH1 0x1 PUSH1 0x1 PUSH1 0x40 SHL SUB PUSH1 0x40 DUP6 ADD MLOAD AND PUSH1 0x60 DUP5 ADD MSTORE PUSH1 0x60 DUP5 ADD MLOAD ISZERO ISZERO PUSH1 0x80 DUP5 ADD MSTORE DUP1 SWAP2 POP POP SWAP3 SWAP2 POP POP JUMP JUMPDEST PUSH1 0x1 PUSH1 0x1 PUSH1 0xA0 SHL SUB DUP7 DUP2 AND DUP3 MSTORE PUSH1 0x1 PUSH1 0x1 PUSH1 0x40 SHL SUB DUP7 AND PUSH1 0x20 DUP4 ADD MSTORE DUP5 AND PUSH1 0x40 DUP3 ADD MSTORE PUSH1 0x60 DUP2 ADD DUP4 SWAP1 MSTORE PUSH1 0xA0 PUSH1 0x80 DUP3 ADD DUP2 SWAP1 MSTORE PUSH1 0x0 SWAP1 PUSH2 0x166C SWAP1 DUP4 ADD DUP5 PUSH2 0x2B6C JUMP JUMPDEST PUSH1 0x20 DUP2 MSTORE PUSH1 0x0 PUSH2 0x1508 PUSH1 0x20 DUP4 ADD DUP5 PUSH2 0x2B6C JUMP JUMPDEST PUSH1 0x0 PUSH1 0x20 DUP3 DUP5 SUB SLT ISZERO PUSH2 0x2D15 JUMPI PUSH1 0x0 DUP1 REVERT JUMPDEST DUP2 MLOAD PUSH2 0x1508 DUP2 PUSH2 0x213B JUMP JUMPDEST PUSH1 0x1 PUSH1 0x1 PUSH1 0xA0 SHL SUB SWAP6 DUP7 AND DUP2 MSTORE PUSH1 0x20 DUP2 ADD SWAP5 SWAP1 SWAP5 MSTORE PUSH1 0x1 PUSH1 0x1 PUSH1 0x40 SHL SUB SWAP3 DUP4 AND PUSH1 0x40 DUP6 ADD MSTORE SWAP4 AND PUSH1 0x60 DUP4 ADD MSTORE SWAP2 SWAP1 SWAP2 AND PUSH1 0x80 DUP3 ADD MSTORE PUSH1 0xA0 ADD SWAP1 JUMP INVALID LOG2 PUSH5 0x6970667358 0x22 SLT KECCAK256 SLT 0x5C 0x49 0xBC 0xE1 DUP7 DUP13 0xD6 DUP4 0xE2 SWAP5 TIMESTAMP CALLCODE EXTCODECOPY 0x21 0x5E PUSH26 0xE2696EA32C816B3E0D4F69ED14FFD64736F6C63430008090033 "
		},
		"gasEstimates": {
			"creation": {
				"codeDepositCost": "2333000",
				"executionCost": "infinite",
				"totalCost": "infinite"
			},
			"external": {
				"executeMessage(address,uint64,bytes,address)": "infinite",
				"executeMessage(bytes,uint64,bytes,address)": "infinite",
				"executeMessageWithTransfer(address,address,uint256,uint64,bytes,address)": "infinite",
				"executeMessageWithTransferFallback(address,address,uint256,uint64,bytes,address)": "infinite",
				"executeMessageWithTransferRefund(address,uint256,bytes,address)": "infinite",
				"messageBus()": "2381",
				"minSwapAmounts(address)": "2603",
				"nativeWrap()": "2360",
				"ooSwap()": "2405",
				"owner()": "2398",
				"setMessageBus(address)": "27858",
				"setMinSwapAmount(address,uint256)": "24728",
				"setNativeWrap(address)": "26761",
				"setOOSwap(address)": "26826",
				"transferOwnership(address)": "infinite",
				"transferWithSwap(address,uint256,uint64,(address[],bytes,bytes),(address[],bytes,bytes),uint32,uint64)": "infinite",
				"transferWithSwapNative(address,uint256,uint64,(address[],bytes,bytes),(address[],bytes,bytes),uint32,uint64,bool)": "infinite"
			},
			"internal": {
				"_computeSwapRequestId(address,uint64,uint64,bytes memory)": "infinite",
				"_crossChainTransferWithSwap(address,uint256,uint64,uint64,struct OOCrossChainAndSwap.SwapInfo memory,struct OOCrossChainAndSwap.SwapInfo memory,uint32,uint64,bool,uint256,address,uint256)": "infinite",
				"_directSend(address,uint256,uint64,struct OOCrossChainAndSwap.SwapInfo memory,uint64,address,uint256)": "infinite",
				"_sendToken(address,uint256,address,bool)": "infinite",
				"_transferWithSwap(address,uint256,uint64,struct OOCrossChainAndSwap.SwapInfo memory,struct OOCrossChainAndSwap.SwapInfo memory,uint32,uint64,bool,uint256)": "infinite"
			}
		},
		"methodIdentifiers": {
			"executeMessage(address,uint64,bytes,address)": "9c649fdf",
			"executeMessage(bytes,uint64,bytes,address)": "063ce4e5",
			"executeMessageWithTransfer(address,address,uint256,uint64,bytes,address)": "7cd2bffc",
			"executeMessageWithTransferFallback(address,address,uint256,uint64,bytes,address)": "5ab7afc6",
			"executeMessageWithTransferRefund(address,uint256,bytes,address)": "0bcb4982",
			"messageBus()": "a1a227fa",
			"minSwapAmounts(address)": "34e18125",
			"nativeWrap()": "457bfa2f",
			"ooSwap()": "1306342d",
			"owner()": "8da5cb5b",
			"setMessageBus(address)": "547cad12",
			"setMinSwapAmount(address,uint256)": "496dbfd9",
			"setNativeWrap(address)": "5b5a66a7",
			"setOOSwap(address)": "e97edf09",
			"transferOwnership(address)": "f2fde38b",
			"transferWithSwap(address,uint256,uint64,(address[],bytes,bytes),(address[],bytes,bytes),uint32,uint64)": "9398bf46",
			"transferWithSwapNative(address,uint256,uint64,(address[],bytes,bytes),(address[],bytes,bytes),uint32,uint64,bool)": "e3cb78a8"
		}
	},
	"abi": [
		{
			"inputs": [
				{
					"internalType": "address",
					"name": "_messageBus",
					"type": "address"
				},
				{
					"internalType": "address",
					"name": "_nativeWrap",
					"type": "address"
				}
			],
			"stateMutability": "nonpayable",
			"type": "constructor"
		},
		{
			"anonymous": false,
			"inputs": [
				{
					"indexed": false,
					"internalType": "bytes32",
					"name": "id",
					"type": "bytes32"
				},
				{
					"indexed": false,
					"internalType": "uint64",
					"name": "srcChainId",
					"type": "uint64"
				},
				{
					"indexed": false,
					"internalType": "uint256",
					"name": "amountIn",
					"type": "uint256"
				},
				{
					"indexed": false,
					"internalType": "address",
					"name": "tokenIn",
					"type": "address"
				},
				{
					"indexed": false,
					"internalType": "uint256",
					"name": "amountOut",
					"type": "uint256"
				},
				{
					"indexed": false,
					"internalType": "address",
					"name": "tokenOut",
					"type": "address"
				}
			],
			"name": "DirectSwap",
			"type": "event"
		},
		{
			"anonymous": false,
			"inputs": [
				{
					"indexed": false,
					"internalType": "address",
					"name": "messageBus",
					"type": "address"
				}
			],
			"name": "MessageBusUpdated",
			"type": "event"
		},
		{
			"anonymous": false,
			"inputs": [
				{
					"indexed": true,
					"internalType": "address",
					"name": "previousOwner",
					"type": "address"
				},
				{
					"indexed": true,
					"internalType": "address",
					"name": "newOwner",
					"type": "address"
				}
			],
			"name": "OwnershipTransferred",
			"type": "event"
		},
		{
			"anonymous": false,
			"inputs": [
				{
					"indexed": false,
					"internalType": "bytes32",
					"name": "id",
					"type": "bytes32"
				},
				{
					"indexed": false,
					"internalType": "uint256",
					"name": "dstAmount",
					"type": "uint256"
				},
				{
					"indexed": false,
					"internalType": "enum OOCrossChainAndSwap.SwapStatus",
					"name": "status",
					"type": "uint8"
				}
			],
			"name": "SwapRequestDone",
			"type": "event"
		},
		{
			"anonymous": false,
			"inputs": [
				{
					"indexed": false,
					"internalType": "bytes32",
					"name": "id",
					"type": "bytes32"
				},
				{
					"indexed": false,
					"internalType": "uint64",
					"name": "dstChainId",
					"type": "uint64"
				},
				{
					"indexed": false,
					"internalType": "uint256",
					"name": "srcAmount",
					"type": "uint256"
				},
				{
					"indexed": false,
					"internalType": "address",
					"name": "srcToken",
					"type": "address"
				},
				{
					"indexed": false,
					"internalType": "address",
					"name": "dstToken",
					"type": "address"
				}
			],
			"name": "SwapRequestSent",
			"type": "event"
		},
		{
			"inputs": [
				{
					"internalType": "bytes",
					"name": "_sender",
					"type": "bytes"
				},
				{
					"internalType": "uint64",
					"name": "_srcChainId",
					"type": "uint64"
				},
				{
					"internalType": "bytes",
					"name": "_message",
					"type": "bytes"
				},
				{
					"internalType": "address",
					"name": "_executor",
					"type": "address"
				}
			],
			"name": "executeMessage",
			"outputs": [
				{
					"internalType": "enum IMessageReceiverApp.ExecutionStatus",
					"name": "",
					"type": "uint8"
				}
			],
			"stateMutability": "payable",
			"type": "function"
		},
		{
			"inputs": [
				{
					"internalType": "address",
					"name": "_sender",
					"type": "address"
				},
				{
					"internalType": "uint64",
					"name": "_srcChainId",
					"type": "uint64"
				},
				{
					"internalType": "bytes",
					"name": "_message",
					"type": "bytes"
				},
				{
					"internalType": "address",
					"name": "_executor",
					"type": "address"
				}
			],
			"name": "executeMessage",
			"outputs": [
				{
					"internalType": "enum IMessageReceiverApp.ExecutionStatus",
					"name": "",
					"type": "uint8"
				}
			],
			"stateMutability": "payable",
			"type": "function"
		},
		{
			"inputs": [
				{
					"internalType": "address",
					"name": "",
					"type": "address"
				},
				{
					"internalType": "address",
					"name": "_token",
					"type": "address"
				},
				{
					"internalType": "uint256",
					"name": "_amount",
					"type": "uint256"
				},
				{
					"internalType": "uint64",
					"name": "_srcChainId",
					"type": "uint64"
				},
				{
					"internalType": "bytes",
					"name": "_message",
					"type": "bytes"
				},
				{
					"internalType": "address",
					"name": "",
					"type": "address"
				}
			],
			"name": "executeMessageWithTransfer",
			"outputs": [
				{
					"internalType": "enum IMessageReceiverApp.ExecutionStatus",
					"name": "",
					"type": "uint8"
				}
			],
			"stateMutability": "payable",
			"type": "function"
		},
		{
			"inputs": [
				{
					"internalType": "address",
					"name": "",
					"type": "address"
				},
				{
					"internalType": "address",
					"name": "",
					"type": "address"
				},
				{
					"internalType": "uint256",
					"name": "",
					"type": "uint256"
				},
				{
					"internalType": "uint64",
					"name": "_srcChainId",
					"type": "uint64"
				},
				{
					"internalType": "bytes",
					"name": "_message",
					"type": "bytes"
				},
				{
					"internalType": "address",
					"name": "",
					"type": "address"
				}
			],
			"name": "executeMessageWithTransferFallback",
			"outputs": [
				{
					"internalType": "enum IMessageReceiverApp.ExecutionStatus",
					"name": "",
					"type": "uint8"
				}
			],
			"stateMutability": "payable",
			"type": "function"
		},
		{
			"inputs": [
				{
					"internalType": "address",
					"name": "_token",
					"type": "address"
				},
				{
					"internalType": "uint256",
					"name": "_amount",
					"type": "uint256"
				},
				{
					"internalType": "bytes",
					"name": "_message",
					"type": "bytes"
				},
				{
					"internalType": "address",
					"name": "_executor",
					"type": "address"
				}
			],
			"name": "executeMessageWithTransferRefund",
			"outputs": [
				{
					"internalType": "enum IMessageReceiverApp.ExecutionStatus",
					"name": "",
					"type": "uint8"
				}
			],
			"stateMutability": "payable",
			"type": "function"
		},
		{
			"inputs": [],
			"name": "messageBus",
			"outputs": [
				{
					"internalType": "address",
					"name": "",
					"type": "address"
				}
			],
			"stateMutability": "view",
			"type": "function"
		},
		{
			"inputs": [
				{
					"internalType": "address",
					"name": "",
					"type": "address"
				}
			],
			"name": "minSwapAmounts",
			"outputs": [
				{
					"internalType": "uint256",
					"name": "",
					"type": "uint256"
				}
			],
			"stateMutability": "view",
			"type": "function"
		},
		{
			"inputs": [],
			"name": "nativeWrap",
			"outputs": [
				{
					"internalType": "address",
					"name": "",
					"type": "address"
				}
			],
			"stateMutability": "view",
			"type": "function"
		},
		{
			"inputs": [],
			"name": "ooSwap",
			"outputs": [
				{
					"internalType": "address payable",
					"name": "",
					"type": "address"
				}
			],
			"stateMutability": "view",
			"type": "function"
		},
		{
			"inputs": [],
			"name": "owner",
			"outputs": [
				{
					"internalType": "address",
					"name": "",
					"type": "address"
				}
			],
			"stateMutability": "view",
			"type": "function"
		},
		{
			"inputs": [
				{
					"internalType": "address",
					"name": "_messageBus",
					"type": "address"
				}
			],
			"name": "setMessageBus",
			"outputs": [],
			"stateMutability": "nonpayable",
			"type": "function"
		},
		{
			"inputs": [
				{
					"internalType": "address",
					"name": "_token",
					"type": "address"
				},
				{
					"internalType": "uint256",
					"name": "_minSwapAmount",
					"type": "uint256"
				}
			],
			"name": "setMinSwapAmount",
			"outputs": [],
			"stateMutability": "nonpayable",
			"type": "function"
		},
		{
			"inputs": [
				{
					"internalType": "address",
					"name": "_nativeWrap",
					"type": "address"
				}
			],
			"name": "setNativeWrap",
			"outputs": [],
			"stateMutability": "nonpayable",
			"type": "function"
		},
		{
			"inputs": [
				{
					"internalType": "address",
					"name": "_ooSwap",
					"type": "address"
				}
			],
			"name": "setOOSwap",
			"outputs": [],
			"stateMutability": "nonpayable",
			"type": "function"
		},
		{
			"inputs": [
				{
					"internalType": "address",
					"name": "newOwner",
					"type": "address"
				}
			],
			"name": "transferOwnership",
			"outputs": [],
			"stateMutability": "nonpayable",
			"type": "function"
		},
		{
			"inputs": [
				{
					"internalType": "address",
					"name": "_receiver",
					"type": "address"
				},
				{
					"internalType": "uint256",
					"name": "_amountIn",
					"type": "uint256"
				},
				{
					"internalType": "uint64",
					"name": "_dstChainId",
					"type": "uint64"
				},
				{
					"components": [
						{
							"internalType": "address[]",
							"name": "path",
							"type": "address[]"
						},
						{
							"internalType": "bytes",
							"name": "_srcSwapExtraData",
							"type": "bytes"
						},
						{
							"internalType": "bytes",
							"name": "_dstSwapExtraData",
							"type": "bytes"
						}
					],
					"internalType": "struct OOCrossChainAndSwap.SwapInfo",
					"name": "_srcSwap",
					"type": "tuple"
				},
				{
					"components": [
						{
							"internalType": "address[]",
							"name": "path",
							"type": "address[]"
						},
						{
							"internalType": "bytes",
							"name": "_srcSwapExtraData",
							"type": "bytes"
						},
						{
							"internalType": "bytes",
							"name": "_dstSwapExtraData",
							"type": "bytes"
						}
					],
					"internalType": "struct OOCrossChainAndSwap.SwapInfo",
					"name": "_dstSwap",
					"type": "tuple"
				},
				{
					"internalType": "uint32",
					"name": "_maxBridgeSlippage",
					"type": "uint32"
				},
				{
					"internalType": "uint64",
					"name": "_nonce",
					"type": "uint64"
				}
			],
			"name": "transferWithSwap",
			"outputs": [],
			"stateMutability": "payable",
			"type": "function"
		},
		{
			"inputs": [
				{
					"internalType": "address",
					"name": "_receiver",
					"type": "address"
				},
				{
					"internalType": "uint256",
					"name": "_amountIn",
					"type": "uint256"
				},
				{
					"internalType": "uint64",
					"name": "_dstChainId",
					"type": "uint64"
				},
				{
					"components": [
						{
							"internalType": "address[]",
							"name": "path",
							"type": "address[]"
						},
						{
							"internalType": "bytes",
							"name": "_srcSwapExtraData",
							"type": "bytes"
						},
						{
							"internalType": "bytes",
							"name": "_dstSwapExtraData",
							"type": "bytes"
						}
					],
					"internalType": "struct OOCrossChainAndSwap.SwapInfo",
					"name": "_srcSwap",
					"type": "tuple"
				},
				{
					"components": [
						{
							"internalType": "address[]",
							"name": "path",
							"type": "address[]"
						},
						{
							"internalType": "bytes",
							"name": "_srcSwapExtraData",
							"type": "bytes"
						},
						{
							"internalType": "bytes",
							"name": "_dstSwapExtraData",
							"type": "bytes"
						}
					],
					"internalType": "struct OOCrossChainAndSwap.SwapInfo",
					"name": "_dstSwap",
					"type": "tuple"
				},
				{
					"internalType": "uint32",
					"name": "_maxBridgeSlippage",
					"type": "uint32"
				},
				{
					"internalType": "uint64",
					"name": "_nonce",
					"type": "uint64"
				},
				{
					"internalType": "bool",
					"name": "_nativeOut",
					"type": "bool"
				}
			],
			"name": "transferWithSwapNative",
			"outputs": [],
			"stateMutability": "payable",
			"type": "function"
		},
		{
			"stateMutability": "payable",
			"type": "receive"
		}
	]
}